:020000040800F2
:1000000090060020790200083B120008790E0008D3
:10001000391200087F030008D11500080000000015
:100020000000000000000000000000005315000860
:1000300081030008000000003D120008551500086B
:10004000930200089302000893020008930200083C
:10005000930200089302000893020008930200082C
:10006000930200089302000893020008930200081C
:10007000930200089302000893020008930200080C
:100080009302000800000000930200089302000899
:1000900093020008930200089302000893020008EC
:1000A00093020008930200089302000893020008DC
:1000B00093020008930200089302000893020008CC
:1000C00093020008930200089302000893020008BC
:1000D00093020008930200089302000893020008AC
:1000E000930200089302000893020008930200089C
:1000F0009302000893020008930200080000000029
:1001000000000000930200080000000093020008B5
:100110009302000800000000930200089302000808
:10012000930200089302000893020008930200085B
:100130009302000800000000000000009302000885
:100140009302000893020008000000000000000075
:10015000000000000000000000000000000000009F
:1001600000000000000000000000000093020008F2
:1001700093020008000000000000000000000000E2
:1001800000000000930200080000000000000000D2
:10019000000000000000000000000000000000005F
:1001A0000000000000000000930200089302000815
:1001B0009302000893020008930200080000000068
:1001C0000000000093020008000000000000000092
:1001D000930200089302000800F002F800F03CF8D7
:1001E0000AA090E8000C82448344AAF10107DA4592
:1001F00001D100F031F8AFF2090EBAE80F0013F0A8
:10020000010F18BFFB1A43F00103184798150000AF
:10021000B8150000103A24BF78C878C1FAD8520740
:1002200024BF30C830C144BF04680C607047000070
:100230000023002400250026103A28BF78C1FBD8EF
:10024000520728BF30C148BF0B6070471FB501F08F
:100250009CFA1FBD10B510BD00F058F81146FFF70D
:10026000F5FF01F077FA00F076F803B4FFF7F2FF3C
:1002700003BC00F07DF800000948804709480047AA
:10028000FEE7FEE7FEE7FEE7FEE7FEE7FEE7FEE746
:10029000FEE7FEE704480549054A064B70470000A3
:1002A000C1150008D9010008900000209006002028
:1002B00090020020900200204FF0000200B513468B
:1002C00094469646203922BFA0E80C50A0E80C5076
:1002D000B1F12001BFF4F7AF090728BFA0E80C5027
:1002E00048BF0CC05DF804EB890028BF40F8042B20
:1002F00008BF704748BF20F8022B11F0804F18BF8D
:1003000000F8012B7047704770477047754600F042
:100310002BF8AE4605006946534620F00700854697
:1003200018B020B5FFF7B6FFBDE820404FF000063B
:100330004FF000074FF000084FF0000B21F00701CD
:10034000AC46ACE8C009ACE8C009ACE8C009ACE810
:10035000C0098D46704710B50446AFF300802046B3
:10036000BDE81040FFF781BF004870472C00002017
:1003700001491820ABBEFEE7260002007047FEE7E9
:100380007047002240F6B83306E00021491C89B2CC
:100390009942FBD3521C92B28242F6D370470000BE
:1003A00070B5044600F03CF90546601C02D00448D4
:1003B0004068044400F034F9401BA042FAD370BDF9
:1003C000140000202DE9F04FDFF8209200230126D1
:1003D0000324A9F1040B85B00F2709F1040AABF13E
:1003E000040EFAE006FA03F52A407CD091F804C026
:1003F0000CF0030CBCF1010F02D0BCF1020F26D1AE
:10040000D0F808C0CDF800C04FEA430C04FA0CF84D
:10041000CDF810C0DDF800C02CEA080CCDF800C003
:10042000D1F80C80DDF810C008FA0CF8DDF800C037
:1004300048EA0C08C0F80880D0F804C02CEA050C83
:100440000D79C5F300159D4045EA0C0545600D7911
:10045000ED43AD070ED0C5684FEA430804FA08FC27
:1004600025EA0C05D1F808C00CFA08FC4CEA050C8A
:10047000C0F80CC00D7905F00305022D16D1DD087A
:1004800000EB850CCDF808C0DCF820805D074FEA52
:10049000D56C07FA0CF528EA05080D6905FA0CF584
:1004A000DDF808C045EA0805CCF8205005684FEA99
:1004B000430CCDF808C004FA0CFC25EA0C0591F8B1
:1004C00004C00CF00308DDF808C008FA0CF848EA8C
:1004D0000508C0F800804D6815F4403F7CD0444DBD
:1004E000D5F860C000E077E04CF0010CC5F860C0C2
:1004F0002D6E23F0030C05F0010500953D4D65447C
:100500000295AD684FEA837C4FEA1C7807FA08FC35
:1005100025EA0C05B0F1904F06D0DFF8DCC060454D
:1005200005D14FF0010C20E04FF0000C1DE0DFF88A
:10053000CCC0604502D14FF0020C16E0DFF8C0C01D
:10054000604502D14FF0030C0FE0DFF8B8C0604502
:1005500002D14FF0040C08E0DFF8ACC0604502D1D6
:100560004FF0050C01E04FF0060C0CFA08FC4CEAC9
:10057000050C029DC5F808C0D9F80050CC46D1F84A
:10058000048095435FEAC82800D51543CCF8005095
:10059000DAF80050D446D1F8048095435FEA882801
:1005A00000D51543CCF80050DBF80050DC46D1F8FC
:1005B000048095435FEA883800D51543CCF8005095
:1005C000DEF80050F446D1F8048095435FEAC8385D
:1005D00000D51543CCF800505B1C0A6832FA03F5CD
:1005E0007FF400AF05B0BDE8F08F000008040140C3
:1005F00000100240000001400004004800080048CC
:10060000000C004800100048001400480069084031
:1006100000D0012070470AB1816170478162704744
:10062000014880687047000014000020024881687B
:1006300042681144816070471400002010B5002406
:10064000032000F065F80F2000F008F808B101243D
:1006500001E000F025F8204610BD000070B50E4EF8
:1006600005460024706898B14FF47A71B1FBF0F040
:100670000A490968B1FBF0F000F0EAFB40B9102D1F
:1006800006D200222946501E00F022F8356000E014
:100690000124204670BD000014000020200000202E
:1006A0000A4882B0016E41F001010166016E01F05D
:1006B00001010091816D41F080518165806D00F0F4
:1006C0008050009002B000F093B80000001002408B
:1006D000F0B40E4B1B680C46C3F30223C3F10705AD
:1006E000042D00D90425191D072901D2002300E09B
:1006F000DB1E012606FA05F1491E214099409E4065
:10070000761E16403143F0BC00F063BF0CED00E0F4
:10071000064900F0070208684FF6FF03184040EA58
:100720000220034A10430860704700000CED00E00F
:100730000000FA052B492C4B0A6832214A432B4909
:1007400040B1B0F5007F086829D020F4C06040F4C3
:1007500080602CE00868C0F34120022804D051F8E2
:10076000800F20F4807022E0D1F8800020F48070A7
:10077000C1F88000086820F4C06040F40070086090
:10078000B2FBF3F0401C00E0401E4A69520501D55F
:100790000028F9D1486940050AD503207047C0F305
:1007A0004120022806D051F8800F40F48070086084
:1007B00000207047D1F8800040F48070C1F88000BC
:1007C000086820F4C06040F400700860B2FBF3F0E9
:1007D000401C00E0401E4A695205DBD50028F9D1D3
:1007E000D8E700002000002040420F0000700040C9
:1007F0000248816841F48041816070470070004088
:100800002DE9F0470E4605004FF0000725D0DFF830
:10081000AC81D8F8000000F00F00B0420CD2D8F83C
:10082000001021F00F013143C8F80010D8F8000083
:1008300000F00F00B04210D12968614CC80741F2A6
:10084000883A5AD06868DFF87C91032808D00228DB
:1008500020682DD0400500282CDB0120BDE8F08762
:1008600020688001F9D5E06800F00302E068C0F379
:100870000310401C032A19D0534A00BFB2FBF0F00A
:10088000E268C2F306225043E268C2F34162521C9E
:100890005200B0FBF2F0484517D9A06810F0F00FF5
:1008A0000CD0880711D5A86840B10EE0474AE5E7AB
:1008B0008003D0E700F092F8484506D9A06820F000
:1008C000F00040F08000A0608027A068696820F0F8
:1008D00003000843A060FFF7A3FE814606E000BFC7
:1008E000FFF79EFEA0EB090151453AD8A068696860
:1008F00000F00C00B0EB810FF2D12868810714D50D
:10090000400703D5A06840F4E060A06028780007A5
:1009100005D5A06820F4605040F4E060A060A068B5
:10092000A96820F0F000084304E0802F03D1A068FC
:1009300020F0F000A060D8F80010404601F00F0150
:10094000B14216D9016821F00F0131430160FFF770
:1009500067FE074607E000BFFFF762FEC11B514577
:1009600001D903207AE7D8F8000000F00F00B04268
:10097000F2D12878400705D5A068E96820F4E06046
:100980000843A0602878000706D5A068296920F4EC
:10099000605040EAC100A06000F020F8A1680C4A55
:1009A000C1F30311515C01F01F01C84009490860FF
:1009B00009480068BDE8F047FFF750BE002002403C
:1009C0000010024000B4C4040024F40000366E019C
:1009D000941700082000002014000020184910B5CA
:1009E0008868C0F381021748012A0BD08A68164B29
:1009F000C2F38102022A06D08A68C2F38102032A66
:100A000003D0002010BD184610BDCA6802F00304D0
:100A1000CA68C2F30312521C032C02D0B0FBF2F0DE
:100A200001E0B3FBF2F0CA68C968C2F30622504382
:100A3000C1F34161491C4900B0FBF1F010BD000059
:100A4000001002400024F40000366E012DE9F84346
:100A500004007AD02078F84DC00747D0A868E9682C
:100A600000F00C0001F003010C2802D0082817D078
:100A700001E0032914D06068B0F5803F17D0B0F5CD
:100A8000A02F286817D020F480302860286820F430
:100A9000802028606068E0B1FFF7C2FD064614E0E0
:100AA0002868800322D560680028D2D01EE028681C
:100AB00040F48030EDE740F480202860F7E700BF85
:100AC000FFF7AEFD801B642870D828688003F7D537
:100AD0000CE0FFF7A5FD064605E000BFFFF7A0FD0F
:100AE000801B6428F0D828688003F7D4207880071A
:100AF0004CD5A868E96800F00C0001F003010C284F
:100B000002D004280DD001E002290AD0E0680028B4
:100B100028682BD040F480702860FFF781FD0646DE
:100B200019E02868400502D5E068002891D068687F
:100B3000217C20F0FE4040EA01606860BF48006808
:100B4000FFF78CFD002800D120E072E1FFF768FD7F
:100B5000801B0228B8D828684005F7D56868217C32
:100B600020F0FE4040EA016068600FE020F48070F1
:100B70002860FFF755FD064605E000BFFFF750FD72
:100B8000801B0228A0D828684005F7D420780007E9
:100B900029D560690028D5F8940013D040F00100F1
:100BA000C5F89400FFF73CFD064606E090E000BF64
:100BB000FFF736FD801B022886D8D5F89400800701
:100BC000F6D510E020F00100C5F89400FFF728FDED
:100BD000064604E0FFF724FD801B022878D8D5F8EC
:100BE00094008007F6D42078400761D5A86D0026D0
:100BF000C00008D4A86D40F08050A865A86D0126FB
:100C000000F0805000908E480168C90511D4016839
:100C1000804641F480710160FFF702FD074604E061
:100C2000FFF7FEFCC01B022852D8D8F80000C00510
:100C3000F6D5A068012815D00528D5F8900016D063
:100C400020F00100C5F89000D5F8900020F00400D5
:100C5000C5F89000A06841F28838B8B1FFF7E0FC11
:100C600007460EE0D5F8900040F00100F0E740F0B4
:100C70000400C5F89000F5E7FFF7D2FCC11B414521
:100C800026D8D5F890008007F6D50CE0FFF7C8FC11
:100C9000074604E0FFF7C4FCC11B414518D8D5F84E
:100CA00090008007F6D41EB1A86D20F08050A86592
:100CB0002078800629D5A0690028D5F8980013D09F
:100CC00040F00100C5F89800FFF7AAFC064606E0D0
:100CD00075E000BFFFF7A4FC801B02286FD8D5F891
:100CE00098008007F6D510E020F00100C5F89800C4
:100CF000FFF796FC064604E0FFF792FC801B0228F3
:100D00005DD8D5F898008007F6D4E069F0B3A968FB
:100D1000C1F3810103295DD00228286820F080708A
:100D2000286003D0FFF77CFC04464BE0FFF778FC1B
:100D3000064604E0FFF774FC801B02283FD82868B1
:100D40008001F7D4F4E908016FF00F0202EB011102
:100D50000843218A5204490802EB4151A26841EA42
:100D600002210843217D4FF07E42490802EB416198
:100D70000843217B40EAC160E968324A11400843D8
:100D8000E860286840F08070286000E05EE0E86875
:100D900040F08070E860FFF743FC044605E000BFC8
:100DA000FFF73EFC001B022809D828688001F7D510
:100DB0004CE000BFFFF734FC001B022802D90320DF
:100DC000BDE8F88328688001F4D4E8681E4908402B
:100DD000E8603BE00128F3D0E868226A00F00301F4
:100DE000914226D1616A00F0F00209011039914266
:100DF0001FD1A26A00F4FE41B1EB022F19D194F881
:100E00002C2000F07841B1EBC26F12D1218E00F49A
:100E1000C00249084905A1F50011914209D194F891
:100E2000341000F0C06049084906A1F10071814208
:100E30000CD00120C4E70000001002401400002084
:100E4000007000400C809F01FCFFEEFE0020B7E721
:100E500010B5401EB0F1807F01D3012010BD4FF0CE
:100E6000E02460610F21601700F0B3FB0020A06157
:100E700007202061002010BDFEE7000000B585B00E
:100E800014216846FFF718FA4FF6FF700090002013
:100E90000321CDE90201019069460248FFF792FA69
:100EA00005B000BD0008004800B585B014216846B3
:100EB000FFF702FA4FF6FF70009001200190032027
:100EC00003900020029069460248FFF77BFA05B0C4
:100ED00000BD00000008004870B500240646214609
:100EE000204600F0B5F800F0F3F84FF496353046A0
:100EF00000F0C2F8641CAC42F9D370BD30B587B0C5
:100F000014216846FFF7D8F91E48C16C41F004016E
:100F1000C164C16C01F004010591C16C41F0010193
:100F2000C164C16C01F001010591C16C41F0020185
:100F3000C164C06C012500F0020005904FF44870B8
:100F4000CDE9000500240394694602940E48FFF79A
:100F500039FA280203940090CDE901544FF09044EF
:100F600069462046FFF72EFAFFF79EFFA06940F47E
:100F70008070A06104481830016841F40871016074
:100F800007B030BD001002400004004810B5FFF764
:100F9000B5FF002000F014F8084CA080A088A0F550
:100FA0000241303906D000F0D3F9002000F008F8F3
:100FB000A08010BD00F043F9F7E7000024000020F6
:100FC00070B51D490A6842F400720A600A6842F46A
:100FD00080720A60184C103C226842F020022260A5
:100FE000164A1060086840F02000086000BF00BF8B
:100FF00000BF206840F020002060206840F480702E
:101000002060FFF73BFF4FF09041886A40F480700A
:10101000886200BF00BF00BF0848001F006885B29B
:10102000886940F480708861FFF73EFF206840F4D3
:1010300000702060284670BD28040048140800484D
:1010400001B5BDF800000149488008BD240000201A
:1010500010B50C460146202000F068F82146BDE896
:101060001040212000F062B801B5BDF80000014930
:10107000088008BD24000020134A116841F4007163
:101080001160114910390B6843F480730B600B68D1
:1010900043F020030B600D4B1860106840F02000F7
:1010A000106000BF00BF00BF086840F0200008606B
:1010B000086840F48070086000BF00BF00BF086887
:1010C00040F4007008607047280400481408004885
:1010D0001449086840F400700860086840F48070A3
:1010E000086010481038026842F0200202600E4B7F
:1010F00022221A600A6842F020020A6000BF00BF84
:1011000000BF016841F020010160016841F4807175
:10111000016000BF00BF00BF016841F400710160C1
:10112000704700002804004814080048184B10B508
:101130001A6842F400721A601A6842F480721A60E7
:10114000134A103A146844F020041460114C2060D3
:10115000186840F02000186000BF00BF00BF106892
:1011600040F020001060106840F480701060216032
:10117000186840F02000186000BF00BF00BF106872
:1011800040F020001060106840F48070106010BDC6
:10119000280400481408004870B586B01421684639
:1011A000FFF78AF82148C16C41F02001C164C16C8D
:1011B00001F020010591C16C41F00101C164C16CD5
:1011C00001F001010591C16C41F00201C164C16CE3
:1011D00001F002010591C16C41F00801C164C06CCD
:1011E000134E00F008000590002204213046FFF75E
:1011F00012FA00240125CDE9005469464FF09040D1
:101200000294FFF7DFF80720CDE90004694609489A
:101210000294FFF7D7F804200090CDE90154694605
:1012200030460394FFF7CEF806B070BD00100240C0
:10123000000C004800040048FEE7FEE7704730B5A8
:1012400001210020FFF772FF4FF47A70FFF799F841
:1012500000210120FFF76AFF41F290711020FFF793
:1012600065FF4FF41C516020FFF760FF01216120F2
:10127000FFF75CFF02214620FFF758FF48F21001FC
:101280001320FFF753FF48F2FE011220FFF74EFF35
:101290004FF4A0610220FFF749FF41F23001032023
:1012A000FFF744FF40F2033421463020FFF73EFFB2
:1012B00021463120FFF73AFF21463220FFF736FF63
:1012C000E51E29463320FFF731FF03213420FFF7C5
:1012D0002DFF21463520FFF729FF14213620FFF787
:1012E00025FF21463720FFF721FF21463820FFF751
:1012F0001DFF21463920FFF719FF29463A20FFF745
:1013000015FF03213B20FFF711FF21463C20FFF78B
:101310000DFF4FF4A0513D20FFF708FF4FF400717F
:101320009220FFF703FF21469320FFF7FFFE40F6D0
:101330000D019020FFF7FAFE41F218010320FFF79C
:10134000F5FEBDE8304040F273110720FFF7EEBE16
:1013500010B543F20801E320FFF7E8FE1221E72071
:10136000FFF7E4FE41F23121EF20FFF7DFFE00211D
:101370000120FFF7DBFE4FF4E0610220FFF7D6FE0D
:1013800041F230010320FFF7D1FE00210420FFF7D6
:10139000CDFE40F207210820FFF7C8FE00210920FA
:1013A000FFF7C4FE00210A20FFF7C0FE00210C2039
:1013B000FFF7BCFE00210D20FFF7B8FE00210F2033
:1013C000FFF7B4FE00211020FFF7B0FE0721112027
:1013D000FFF7ACFE00211220FFF7A8FE002113202A
:1013E000FFF7A4FEC820FEF7DBFF41F2906110205A
:1013F000FFF79CFE40F227211120FFF797FE3220D5
:10140000FEF7CEFF1D211220FFF790FE3220FEF7DF
:10141000C7FF4FF400611320FFF788FE1421292035
:10142000FFF784FE0B212B20FFF780FE3220FEF712
:10143000B7FF00212020FFF779FE00212120FFF7D0
:1014400075FE07213020FFF771FE40F20771312051
:10145000FFF76CFE06213220FFF768FE40F20471B0
:101460003520FFF763FE41F604713620FFF75EFE7C
:1014700004213720FFF75AFE00213820FFF756FEDF
:1014800040F206713920FFF751FE40F201713C2015
:10149000FFF74CFE0F213D20FFF748FE00215020B2
:1014A000FFF744FEEF215120FFF740FE00215220BC
:1014B000FFF73CFE40F23F115320FFF737FE4FF499
:1014C0001C516020FFF732FE01216120FFF72EFE44
:1014D00000216A20FFF72AFE00218020FFF726FE68
:1014E00000218120FFF722FE00218220FFF71EFE4F
:1014F00000218320FFF71AFE00218420FFF716FE4B
:1015000000218520FFF712FE10219020FFF70EFE2C
:1015100000219220FFF70AFE03219320FFF706FE29
:101520004FF488719520FFF701FE00219720FFF707
:10153000FDFD00219820FFF7F9FD41F2180103207D
:10154000FFF7F4FDBDE8104040F273110720FFF7EC
:10155000EDBD7047FFF76AB800B593B03821684613
:10156000FEF7AAFE14210EA8FEF7A6FE4FF40070A7
:10157000FFF7E0F80220C10103914021049100909F
:10158000079008901421CDE909010B900C900D9063
:101590006846FFF75BFA08B172B6FEE70F200E90BF
:1015A00003200F90002010901190129002210EA89D
:1015B000FFF726F9002801D072B6FEE713B000BD90
:1015C0000248016841F470010160704788ED00E055
:1015D000FEE70907090E002804DB00F1E02080F88F
:1015E0000014704700F00F0000F1E02080F8141D97
:1015F0007047000070B5214D2868214CE168401A01
:1016000032283AD32868E06000F03CF8E070A27914
:10161000002620EA02014240824321716271A071DA
:10162000012907D00120022907D0032908D0042965
:1016300011D10BE02670012005E02070802002E02F
:10164000207840B9032000F03DF804E0217811B97A
:101650006070286820616079032806D004280CD1C6
:101660002078002809D1667002E02078002804D193
:10167000BDE87040012000F025B870BD1C000020BE
:101680000000002070B50E4D002401212846FEF711
:10169000BDFF00B9012402212846FEF7B7FF00B9BB
:1016A000022404212846FEF7B1FF00B903240121DA
:1016B0004FF09040FEF7AAFF00B90424204670BD09
:1016C0000004004870B5124D044601224FF6FF7128
:1016D0002846FEF7A0FF0F4E012204213046FEF7F8
:1016E0009AFF002204213046FEF795FF21020022D6
:1016F0002846FEF790FF012204213046FEF78BFFBB
:101700003046BDE8704000220421FEF784BF00008F
:1017100000080048000C00480C484178012913D10A
:101720000B490A680369D21A642A0DD3096801615A
:10173000817829B1002181705FF00100FFF7C2BFFD
:10174000012181700520F9E77047000000000020AA
:101750001C000020FEF772FFFFF7FEFEFFF71CFDE6
:10176000FFF714FC0020FFF7B7FB0020FFF768FC31
:101770004FF6FF70FFF778FC8020FFF7A3FF00BF54
:10178000FFF7CAFFFFF736FFFAE74FF04070E1EED0
:10179000100A70470000000000000000010203046E
:1017A00006070809C4170008000000202C000000EC
:1017B00014020008F01700082C0000206406000046
:1017C00030020008010000000000000000000000DE
:1017D00000000000000000001000000001000000F8
:1017E000000000000024F4000000FFFF00000000E3
:04000005080001D915
:00000001FF
