:020000040800F2
:1000000040090020990200086B4D00085D4400087B
:10001000694D0008D5160008E961000800000000DD
:100020000000000000000000000000002551000852
:1000300087170008000000006D4D000827510008D8
:10004000B3020008B3020008B3020008B3020008BC
:10005000B3020008B3020008B3020008B3020008AC
:10006000B3020008B3020008B3020008D916000862
:10007000B3020008B3020008B3020008B30200088C
:10008000B30200080000000091150008B302000848
:10009000B3020008B3020008B3020008B30200086C
:1000A000B3020008B3020008B3020008B30200085C
:1000B000A5510008B1510008B3020008B3020008BE
:1000C000B3020008B3020008B3020008B30200083C
:1000D000B3020008DD610008B3020008B3020008A3
:1000E000B3020008B3020008B3020008B30200081C
:1000F000B3020008B3020008B302000800000000C9
:1001000000000000B302000800000000B302000875
:10011000B302000800000000B3020008B3020008A8
:10012000B3020008B3020008B3020008B3020008DB
:10013000B30200080000000000000000B302000845
:10014000B3020008B3020008000000000000000035
:10015000000000000000000000000000000000009F
:10016000000000000000000000000000B3020008D2
:10017000B3020008000000000000000000000000C2
:1001800000000000B30200080000000000000000B2
:10019000000000000000000000000000000000005F
:1001A0000000000000000000B3020008B3020008D5
:1001B000B3020008B3020008B30200080000000008
:1001C00000000000B3020008000000000000000072
:1001D000B3020008B302000800F002F800F04CF887
:1001E0000AA090E8000C82448344AAF10107DA4592
:1001F00001D100F041F8AFF2090EBAE80F0013F098
:10020000010F18BFFB1A43F001031847947F000049
:10021000B47F0000103A24BF78C878C1FAD85207DA
:1002200024BF30C830C144BF04680C607047000070
:100230000023002400250026103A28BF78C1FBD8EF
:10024000520728BF30C148BF0B607047662906F0CF
:100250005286642900F0CC80002070471FB506F05C
:1002600040FE00F057FC04000020002106F02AFCAC
:10027000E0601FBD10B510BD00F04CFD1146FFF74A
:10028000EDFF06F0DDFA00F06AFD03B4FFF7F2FFC0
:1002900003BC00F0ADFD0000094880470948004755
:1002A000FEE7FEE7FEE7FEE7FEE7FEE7FEE7FEE726
:1002B000FEE7FEE704480549054A064B7047000083
:1002C00095510008D9010008400300204009002092
:1002D000400500204005002053EA020C00F0698030
:1002E0002DE9F04B4FF00006002B1FBFB3FA83F54A
:1002F00003FA05F424FA05F65E4012BF1643B2FA7B
:1003000082F502FA05F4C5F120051EBF22FA05FCAC
:1003100044EA0C04203556EA044C4FEA144418BF52
:10032000641C4FF000084FF00009904271EB030C81
:1003300039D3002919BFB1FA81F701FA07F6B0FAEB
:1003400080F700FA07F6C7F120071EBF20FA07FC66
:1003500046EA0C062037B6FBF4FCA7EB0507103F76
:1003600007F01F0BCBF120060CFA0BFB2CFA06F65C
:1003700044BFB3460026202FA4BF5E464FF0000BBB
:100380005BEA060C08BF4FF0010B19EB0B09ABFB46
:10039000027C48EB0608C01B06FB02CC0BFB03CC1F
:1003A00071EB0C01C1E70B46024641464846BDE8E9
:1003B000F08B13B54FF000004FF00001AFF3008059
:1003C000BDE81C40704700000FB41CB5074B06AADF
:1003D0007B4469460090059800F083FB0020694645
:1003E00000F092FB1CBC5DF814FB00003507000018
:1003F0002DE9F0410646002410687529314616A5FE
:1004000010D0AFF30080002802DA404213A507E0C5
:1004100031688A0701D512A502E0490704D511A564
:10042000012401E0AFF3008000210A2206F1240735
:1004300009E0B0FBF2FCB0FBF2F302FB1C00303031
:1004400078541846491C0028F3D123462A463046E2
:10045000BDE8F04100F0D8B8000000002D00000019
:100460002B000000200000002DE9F0474FF0000AAB
:1004700089460446C0F820A02046E1688847002845
:1004800076D0252806D0D4E901219047206A401C67
:100490002062F1E7E168204600258847C4F81CA0E7
:1004A00006460027C4F818A02A2E09D0304605F0C9
:1004B000C4FE38B304EB8708303EC8F8186019E072
:1004C00059F8041B204604EB87029161E1688847D4
:1004D000012F064618D1E069002820DA25F0200512
:1004E0001DE0D8F8180000EB800006EB4000303823
:1004F000C8F818002046E1688847064605F09DFECA
:100500000028EED1012F0AD02E2E08D12046E16816
:1005100088477F1C0646022F45F02005C4DBA069F2
:10052000002803DA404245F00105A061E80701D048
:1005300025F01005B6B1A6F14100192802D82036E1
:1005400045F400654A463146204625604D46FFF792
:100550007DFE58B1012806D0ED1D25F0070000F101
:10056000080989E704E005F1040985E730468AE7D0
:10057000206ABDE8F08710B5431C02E010F8011BAB
:1005800071B18107FAD14FF0013202C88C1A8C4345
:1005900014EAC211F9D0C01A0A0603D0C01E10BD59
:1005A000C01A10BD0A0401D0801E10BD0902FCD083
:1005B000401E10BD4FF0000200B51346944696460B
:1005C000203922BFA0E80C50A0E80C50B1F1200166
:1005D000BFF4F7AF090728BFA0E80C5048BF0CC014
:1005E0005DF804EB890028BF40F8042B08BF704772
:1005F00048BF20F8022B11F0804F18BF00F8012BE4
:1006000070477047704770472DE9F0470D4699468F
:100610009246044600F124080168880604D5E06982
:1006200021F01001216000E00120A84201DD471BFC
:1006300000E00027A1697A1902EB0900081AA061FD
:100640002078C00602D42046AFF30080002608E0E0
:10065000D4E901211AF806009047206A401C761C54
:1006600020624E45F4DB2078C0060AD52046AFF361
:10067000008006E0D4E9012130209047206A401C28
:100680002062381EA7F10107F4DC07E0D4E901215C
:1006900018F805009047206A401C2062281EA5F12A
:1006A0000105F3DC2046AFF300802078000602D578
:1006B0000220BDE8F0870120FBE770472DE9FF4FDE
:1006C0000C461E464FF0FF378BB0D2E90001DDF833
:1006D00060800A908A46C1F30A5505B93D4600215B
:1006E00008464FF00000BAF1000F00F4400005DAB0
:1006F00000EB80004FF4400101EA50004FEA9059AE
:10070000B9F1010F00DDB9460A9850EA4A000ED04F
:1007100044F61050A5F2FF3545432F14B8F1000FF1
:100720001ED07542291E1EDDC9F100021CE0B8F181
:10073000010F4FF0000001D0302103E0F24305E04B
:100740002154401CB042FBDB3046002200212154E2
:100750000B99C1F80880C1E900200FB0BDE8F08F07
:10076000BD1B6D1CDEE74A4600DA694206A800F0B0
:100770005BFA06AB93E8070003AB83E8070050463B
:100780000A9900F03CFB8DE80700A0F500501F38E7
:1007900000900398002D0ADD42F21F014A460844EA
:1007A000002303A90390684600F0A5FD09E0A0F529
:1007B00000504A461F38002303A90390684600F002
:1007C000AFFD8DE807000004000C03D04FF0FF30B0
:1007D000410800E01046B8F1000F03D0002200925B
:1007E00015461EE0751E05D400F098F930326255AA
:1007F0006D1EF9D5B3460122084302D000227F1CAA
:1008000004E02078302801D100227F1E002A0997B9
:1008100084D01DE0112D07DA00F080F930326255E6
:100820006D1C50EA0102F5D1084302D00098C8B10E
:100830000EE00021681E05E0235C625C63542254D4
:10084000401E491C8142F7DBAB46A81B401E0990A5
:10085000002004F80B000B98099AC0F80880C0E942
:10086000002B7AE711264FF0000857E72DE9F04FEB
:1008700088460446D21D22F0070191B0D1E900015B
:10088000CDE90A0105F0B1FC02460B98C00F01D07A
:100890002D2007E02068810701D52B2002E02021D0
:1008A00001EAC000032A099001D0072A05DB0346AC
:1008B0004146204600F078F90BE12078800601D50A
:1008C000E06900E00620B8F1650F814606D0B8F176
:1008D000660F18D0B8F1670F70D131E00020B9F180
:1008E000110F009001DB112301E009F101030AAAB5
:1008F00001A90CA8FFF7E2FEDDE90C70002609F162
:100900000105834647E001204B4600904FF0004729
:100910000AAA01A90CA8FFF7D1FEDDE90DB00C99D8
:100920005D46002610B909F101000D18B9EB05006C
:1009300003D4C0F1FF3609F10105A5EB09002BE056
:10094000B9F1010F01DA4FF001090020B9F1110FDF
:100950000090484601DD112300E003460AAA01A9E0
:100960000CA8FFF7ABFEDDE90C704D460026834670
:10097000207800070AD4AB4500DA5D4601A8012DB6
:1009800004DD411911F8011C302907D04F4502DA66
:1009900017F1040F04DA012082460FE06D1EEEE726
:1009A000002F02DCED1B3E4403E0781CA84200DD72
:1009B0007D1CB81B00F1010A4FF0004720780007AA
:1009C00003D4AA4501DB4FF0FF3A0021B7F1004FF5
:1009D0000DF143088DF8431024D002202B23002F63
:1009E00001DA7F422D230A21021EA0F1010000DC62
:1009F0005FB197FBF1FC97FBF1F201FB1C7C174602
:100A00000CF1300C08F801CDEEE7A8F101000370FD
:100A10002188090501D5452100E06521A0F10108E3
:100A200000F8011C09980FA9A1EB0807FF1D00B1F0
:100A30000120411901EBEA70A1693844081A401EEF
:100A4000A0612078C00602D42046AFF30080099848
:100A500028B1D4E901219047206A401C2062207807
:100A6000C00622D52046AFF300801EE0002E04DB36
:100A7000B34502DD01A8805D00E03020D4E901210A
:100A80009047206A401C2062761CAAF101005FEAB0
:100A9000000A0AD100F03EF8C0680168405CD4E961
:100AA00001219047206A401C2062281EA5F1010503
:100AB000DCDC07E0D4E9012118F8010B9047206A3B
:100AC000401C2062381EA7F10107F3DC2046AFF37B
:100AD0000080032011B041E601694A1C02610878D8
:100AE000704700B58FB0CDE901310021059105496E
:100AF0007944CDE9031011466846FFF7B5FC0FB005
:100B000000BD0000E5FFFFFF0A6802F8010B0A6064
:100B100070470000004870470003002030B5B0F176
:100B20000A024FEA900E71F100034EEA817EB0EBAB
:100B30000E0061EB91014FEA101E4EEA017E10EBB0
:100B40000E0041EB11114FEA102E4EEA016E10EB30
:100B50000E0041EB11214FEA104E4EEA014E10EB10
:100B60000E0041EB1141401841F100014FEAD00065
:100B700040EA41704FEAD10110EB80054FEA810451
:100B800044EA907444EB01046D1944EB0404521BD5
:100B9000A3414FF0000348BF0A3200D530BD401CCE
:100BA00041F1000130BD00002DE9F0411F4604462F
:100BB00003260168072A01F4006004DB08B116A5CA
:100BC00005E016A503E008B115A500E015A521F084
:100BD00010002060A069C01EA0610FB1401EA0617E
:100BE0002046AFF300804FB1D4E901213846904749
:100BF000206A401C2062C01C206206E0206AFAE7DE
:100C0000D4E9012115F8010B9047761EF8D2204651
:100C1000AFF30080BDE8F0814E414E006E616E0082
:100C2000494E4600696E66002DE9F047814616463A
:100C30008AB0354878440DC88DE80D0032487844B4
:100C4000801C03AC0DC884E80D0041F69B300844BD
:100C5000372190FBF1F290FBF1F5A5F1800501FB46
:100C600012041B3C02D56442012000E00020DFF8A2
:100C700098A080460027FA44AAF1BE0A0EE0E007D9
:100C80000AD03246684607EB470101230AEB81018F
:100C900000F046FB8DE8070064107F1C002CEED1AD
:100CA000194F7F44AE3F19E0E80715D007EB041059
:100CB0000DF1180A90E80E008AE80E00C068F042B4
:100CC00001D1981908903246012306A903A800F023
:100CD00027FB03AB83E807006D10641C002DE3D1F4
:100CE0004FF0010332466946B8F1000F03A802D065
:100CF00000F001FB01E000F013FBC9E90001C9F8B5
:100D000008200AB0BDE8F087507500000048704721
:100D1000E00200207546FFF7F9FFAE460500694680
:100D2000534620F00700854618B020B5FFF7C2FAF9
:100D3000BDE820404FF000064FF000074FF00008DC
:100D40004FF0000B21F00701AC46ACE8C009ACE85D
:100D5000C009ACE8C009ACE8C0098D46704710B5C1
:100D60000446AFF300802046BDE81040FFF78DBA7F
:100D70004FF0013C50F8042B51F8043B9A4221D12A
:100D8000A2EB0C03934313EACC1317D150F8042BB6
:100D900051F8043B9A4215D1A2EB0C03934313EA9A
:100DA000CC130BD150F8042B51F8043B9A4209D1D3
:100DB000A2EB0C03934313EACC13DBD04FF00000FB
:100DC000704700BFD01A01BAB1FA81F101F01801E1
:100DD00022FA01F0CB40C1F12001DBB2C0B2C01A4F
:100DE0002CFA01F3D11A914311EAC311E6D17047ED
:100DF00001491820ABBEFEE72600020070475FEAFB
:100E0000400C08BF91F0000F4FEA8C234FEAC1223B
:100E100043EA51514FEA1C5018BF00F5F0404FEA29
:100E2000300018BF41F000415FEA6C5C00F029809F
:100E3000BCF1FF3F08BF40F080407047130C06BF75
:100E400012044FF0100C4FF0000C130E04BF1202EE
:100E50000CF1080C130F04BF12010CF1040C930FDA
:100E600004BF92000CF1020CD30F04BF52000CF12E
:100E7000010C11464FF00002A0F11F00A0EB0C0086
:100E8000704711F0004F08BF704731F000413FF448
:100E9000D5AF0B0C06BF09044FF0100C4FF0000C3F
:100EA0000B0E04BF09020CF1080C0B0F04BF090163
:100EB0000CF1040C8B0F04BF89000CF1020CCB0F5A
:100EC00004BF49000CF1010CCCF12003A0EB0C0095
:100ED00022FA03F302FA0CF241EA030100F10100E5
:100EE000704720F07F4C80EA030023F07F47ACEB93
:100EF000070303F57C5300F0004003F1FF032DE9E5
:100F000080494FEA154B09B44FEA144325EA0B4ECA
:100F100024EA03480FF2042606EB132749083E781B
:100F20005FEA320203FB0667C7F5000707FB06F618
:100F30004FEA54374FEAD64606F1020607FB066C25
:100F4000CCF1005C4FEA1C472CEA074C07FB06F487
:100F50000CFB06F504EB15464FEA961634BF00204D
:100F60004FF000404FEAD13706FB07FC4FEA1C4C1C
:100F70000CFB0BF7D21B03FB0CF761EB07010CFB1F
:100F80000EF7B0EB074072EB17420CFB08F734BFCB
:100F9000A2EB0742B2EB074261EB17414FEA0C4468
:100FA0004FEA910706FB07FC4FEA1C4C0CFB0BF7C2
:100FB000B0EBC74072EB573203FB0CF734BFA2EB28
:100FC000C742B2EBC74261EB57310CFB0EF7B0EBF7
:100FD000C70072EB57720CFB08F734BFA2EBC702D5
:100FE000B2EBC70261EB5771039F4FEA816141EA9F
:100FF000921104EBCC044FEAD1374FEA826206FB30
:1010000007FC42EA90124FEA80604FEA1C4C0CFB4E
:101010000BF7D21B03FB0CF761EB07010CFB0EF780
:10102000B0EB074072EB17420CFB08F734BFA2EBA2
:101030000742B2EB074261EB17414FEA8C554FEA8A
:10104000910704EB9C2406FB07FC4FEA1C4C0CFBAD
:101050000BF7B0EBC74072EB573203FB0CF734BF12
:10106000A2EBC742B2EBC74261EB57310CFB0EF764
:10107000B0EBC70072EB57720CFB08F734BFA2EB62
:10108000C702B2EBC70261EB577115EB4C254FEA73
:10109000816141EA92114FEA82624FEAD13742EA16
:1010A000901206FB07FC44F100044FEA80604FEA0F
:1010B0001C4C0CFB0BF7D21B03FB0CF761EB07017D
:1010C0000CFB0EF7B0EB074072EB17420CFB08F776
:1010D00034BFA2EB0742B2EB074261EB174115EBBD
:1010E0001C154FEA813141EA92414FEA823242EACD
:1010F00090424FEA80304FEA0C7644F1000448EA0F
:1011000003434EEA0B484FF0000EB2EB080C71EBB4
:10111000030724BF624639464EEB0E0E4FF0000B1C
:101120000018524149414BEB0B0BB2EB080C71EB31
:1011300003077BF1000B24BF624639464EEB0E0ECF
:101140004FF0000B0018524149414BEB0B0BB2EB37
:10115000080C71EB03077BF1000B24BF6246394694
:101160004EEB0E0E51EA020718BF46F0010616EBD1
:101170000E7655F1000254F1000103D5BDE8890156
:10118000BDE80088BDE88901BDE80048B6195241B4
:1011900041EB0101A3F10103704780807F7E7D7CDC
:1011A0007B7A7978777676757473727171706F6EF9
:1011B0006E6D6C6C6B6A6A696868676666656464A4
:1011C000636362616160605F5F5E5E5D5D5C5C5B2E
:1011D0005B5A5A595958585757565655555554549D
:1011E000535352525251515050504F4F4F4E4E4DFB
:1011F0004D4D4C4C4C4B4B4B4A4A4A494949484847
:101200004847474747464646454545444444444386
:1012100043434342424242414141002B9C4630D429
:1012200077002BD01CB54FEA370703B44FF01000FE
:101230004FF01001BAF1000F06D0BCF1000FDCBF77
:1012400040F0080040F008014FF000000FBCBDE87E
:1012500010400BF1010BBBF1010F08BF5FEA17074C
:1012600022BF12F1010211F101014FF0004143F1DF
:10127000000300F0004043EA00007047F9D357082C
:10128000D0E746EA064613F1400F4FEA16461FDD47
:1012900013F1200FDFBF16430A46002120335B42C3
:1012A000BED0C3F1200746EA064602FA07F74FEA26
:1012B000164646EA0706C3F1200722FA03F201FAAE
:1012C00007F721FA03F14FF0000342EA0702A7E70C
:1012D00046EA020646EA06464FEA164646EA01068E
:1012E000BCBF46EA0646360C4FF000034FF0000242
:1012F0004FF0000194E72DE9804C9A46934670B474
:1013000091E8380007C831EA400C48BF34EA430C82
:1013100003D5FFF7E6FDFFF780FFF0BCBDE8008CCA
:101320002DE9804C9A46934670B491E8380007C87E
:1013300010F0804F08BF13F0804F03D100F005F884
:10134000FFF76BFFF0BCBDE8008C20F07F4780EA20
:10135000030023F07F4C07EB0C03A3F57C5300F054
:101360000040A3F1FE0392F0000F00F0B38095F06F
:10137000000F00F077802DE901494FEA11404FEA54
:10138000144621EA004800FB06FC24EA064708FB55
:1013900006F607FB08F800FB07F718EB06484CEBCE
:1013A000164C4FEA124B18EB07484FEA15464CEB28
:1013B000174022EA0B4E0BFB06FC25EA06470EFB04
:1013C00006F607FB0EFE0BFB07F71EEB064E4CEB7B
:1013D000164C4FF000061EEB074E4CEB174B18EB6C
:1013E0000B0840F1000018EB0E0B58EB000840F121
:1013F00000008F1A4FF000013CBFC943661B14BFA9
:10140000B5EB040C00213CBFC943F61B4FEA17445F
:101410004EEA8E0E27EA04454FEA1C4704FB07629A
:101420002CEA074C05FB07F70CFB05F604FB0CFC4C
:1014300016EB074642EB174216EB0C4642EB1C42FA
:101440001BEB060658EB0202414146EA9E0601D517
:10145000BDE80189B619524141EB0101A3F1010335
:10146000BDE801894FEA14454FEA114724EA0546D1
:1014700021EA074C05FB07F406FB07F70CFB06F116
:1014800005FB0CFC11EB074144EB17444FEA1247F4
:1014900011EB0C4144EB1C4422EA074C05FB07F21C
:1014A00006FB07F70CFB06F605FB0CFC16EB0746E4
:1014B00042EB174216EB0C4642EB1C456A1854F1FE
:1014C000000148BF7047B619524141EB0101A3F139
:1014D0000103704795F0000F37D04FEA11424FEAF1
:1014E000144721EA024624EA074C02FB07F106FBF7
:1014F00007F70CFB06F402FB0CFC14EB074441EB72
:1015000017414FEA154714EB0C4441EB1C4125EA07
:10151000074C02FB07F506FB07F70CFB06F602FB80
:101520000CFC16EB074645EB174516EB0C4645EB56
:101530001C42121951F1000148BF7047B6195241BF
:1015400041EB0101A3F1010370474FEA14454FEA53
:10155000114724EA054621EA074C05FB07F106FB83
:1015600007F70CFB06F24FF0000605FB0CFC12EB34
:10157000074241EB174112EB0C4251EB1C4148BFB3
:101580007047921841EB0101A3F10103704700007D
:10159000014800F025BB0000E800002010B5846A77
:1015A000E16D11F0500F06D0E16DC90625D520463A
:1015B00000F014FB10BDE06D40F40070E0652068A1
:1015C0000168090716D503F027FA78B12068C068CA
:1015D000800400280ADBE06D20F48070E065E06D97
:1015E000C00403D4E06D40F00100E065204600F047
:1015F000F3FA10BDC0688007EBE7616D496BBDE889
:101600001040084710B5806AC16D41F04001C165C6
:10161000016E41F00401016600F0E0FA10BD10B562
:10162000806A00F0DAFA10BDF8B504460020009098
:101630002068816811F0010F41D18168214A11426F
:101640002ED18168D5432940491C81601E4880689D
:1016500000F0E07000020DD51C481D490068B0FB89
:10166000F1F0401C00EB4000800000E0401E0090C4
:101670000028FBD101F072F806461BE0816811F0EA
:10168000010F03D181682940491C816001F066F88F
:10169000801B02280ED920680068C043C00709D00B
:1016A000E06D40F01000E065206E40F00100206623
:1016B0000120F8BD20680168C943C907DED10020B8
:1016C000F8BD00003F0000800003005068000020CB
:1016D000400D0300FEE70000014800F0FCBD0000E3
:1016E000540100200D4902688A4201D20C4901E0F0
:1016F0000B492031D2B21423083AB2FBF3F2436C07
:1017000002F01F0223F0030319448164044980316D
:10171000C164012191400165704700000804024046
:10172000000802400179074A02EB81024265054A3E
:101730004432491E826501F01F0201219140C165BA
:1017400070470000FC08024030B5D0E913456560E1
:10175000446D14B1D0E91645656090F8444004F03A
:101760001F050124AC40056C6C60046863608368ED
:10177000102B036803D099600068C26030BD9A6086
:101780000068C16030BD7047002240F6B83306E003
:101790000021491C89B29942FBD3521C92B2824269
:1017A000F6D3704772B6FEE77047704770477047D0
:1017B000704700002DE9F84F00270446009790F885
:1017C0005800DFF8E0930D46B846012811D00126F5
:1017D00084F85860206803F01BF960B1E06D40F0B8
:1017E0002000E0655FF0010784F858803846BDE8C6
:1017F000F88F0220FBE7D5E900210C23206803EADB
:1018000091131844036B01F01F014FF01F0C0CFAE9
:1018100001FCC2F3846223EA0C038A40134303638E
:10182000206803F0F5F88246206803F0EDF85AEAE4
:1018300000003CD1AA6829682068B2F1004F37D077
:1018400003F0F2F82068416921F00041416120680D
:101850006969C268C2F3C102520091402A69042A30
:1018600031D000EB82002B68026EDFF83CC303F03E
:10187000F84302EA0C020B431A4342F000410166AE
:1018800020682A69A96900EB8200026E22F080724A
:101890000A430266297F22682869012910D00021A5
:1018A00002EB8000026E22F000720A4302667DE0C5
:1018B000002203F0B9F82068416941F00041C5E712
:1018C0004FF00071ECE7002103F098F84003206826
:1018D0004FF0000172D003F091F890FAA0F0B0FA46
:1018E00080F1286842036ED090FAA0F0B0FA80F040
:1018F000814204D100221146206803F0A4F801219E
:10190000206803F07BF8400320684FF001015DD0B0
:1019100003F074F890FAA0F0B0FA80F1286842035E
:1019200059D090FAA0F0B0FA80F0814204D10022A0
:101930000121206803F087F80221206803F05EF897
:10194000400320684FF0020148D003F057F890FAA6
:10195000A0F0B0FA80F12868420344D090FAA0F0D9
:10196000B0FA80F0814204D100220221206803F005
:101970006AF80321206803F041F8400320684FF023
:10198000030133D003F03AF890FAA0F0B0FA80F1F6
:10199000286842032FD090FAA0F0B0FA80F081427C
:1019A00004D100220321206803F04DF820688168EB
:1019B00011F0010F22D0ACE000E004E003F01EF8CB
:1019C000C0F384618DE7C0F3846091E703F016F8FB
:1019D000C0F38461A2E7C0F38460A6E703F00EF8C9
:1019E000C0F38461B7E7C0F38460BBE703F006F897
:1019F000C0F38461CCE7C0F38460D0E72A7B296818
:101A000050F8B03FC1F3120C23EA0C0302F0180C9B
:101A1000664A22FA0CF20A4013430360E96849451A
:101A200077D1286841031CD090FAA0F1B1FA81F176
:101A3000491C01F01F0109294FEA403132D8002921
:101A400012D000BF90FAA0F1B1FA81F101F10101C9
:101A500001F01F0106FA01F609D100BFC0F384614D
:101A600009E0C0F38461E3E7C0F38461EEE790FA34
:101A7000A0F1B1FA81F101F1010101F01F0146EA83
:101A8000816102D1C0F3846003E090FAA0F0B0FA63
:101A900080F000F1010000F01F0000EB400041EA7F
:101AA000005132E000290ED090FAA0F1B1FA81F194
:101AB00001F1010101F01F0106FA01F606D100BF94
:101AC000C0F3846106E0C0F38461F1E790FAA0F10D
:101AD000B1FA81F101F1010101F01F0146EA8161D2
:101AE00002D1C0F3846003E090FAA0F0B0FA80F075
:101AF00000F1010000F01F002D4A00EB400002EB56
:101B0000005041EA000141F00071AA68206802F02B
:101B10008BFF28482A6802423FF466AE2648816857
:101B2000264B01F0E0719A4202D0254B9A421CD11B
:101B30000B021AD42268B2F1A04F7FF455AE82682E
:101B400041F4000122F0E0720A4382601D481E4900
:101B50000068B0FBF1F0401C00EB4000800000E0AA
:101B6000401E00900028FBD13EE6184D184BAA42BB
:101B700007D1CD0105D422689A42F5D041F0807199
:101B800009E0144DAA42EFD14A02EDD422689A42EC
:101B9000EAD041F48001826822F0E0720A43826058
:101BA00022E6000000007F4000F0FF03FFFF070077
:101BB000000020FE0000088000030050000021C348
:101BC0001000C09068000020400D0300000052C7C4
:101BD00000010050000084CB704770477047000040
:101BE0002DE9F05F0446006806684568DFF854B2E6
:101BF000DBF8080000F01F07B0070ED5A8070CD5CA
:101C0000E06DC00603D4E06D40F40060E06520465E
:101C1000FFF7CAFD216802200860DFF82CA27007D8
:101C20004FF0A04801D5680703D4300737D52807FF
:101C300035D5E06DC00603D4E06D40F40070E0657A
:101C4000206802F0E9FE20B32068504501D14246E9
:101C500000E00246824208D03FB1052F05D0092F8F
:101C600003D0504503D1414602E0C16801E001467E
:101C7000C96889040DD4016809070AD502F0C8FEB5
:101C800058B3E06D40F01000E065206E40F00100B8
:101C900020662046FFF7A0FF21680C200860B006F0
:101CA00001D5A80603D4700658D5680656D5E06D50
:101CB000C00603D4E06D40F40050E0652068C16CBC
:101CC00011F4C07F1AD00021894602F0A5FE024619
:101CD0002068504514D1434613E02068416821F044
:101CE0000C014160E06D20F48070E065E06DC0049F
:101CF000CFD4E06D40F00100E065CAE70121E3E7E1
:101D00000346834208D03FB1062F05D0072F03D0EA
:101D1000504503D1414602E0C16801E00146C9686F
:101D2000B9F1000F14D08B0102D58AB18A040FD407
:101D3000026852060CD589020AD402F065FEE8B3A7
:101D4000E06D40F01000E065206E40F0010020667C
:101D50002046FFF72AFD21686020086030060BD579
:101D6000280609D5E06D40F48030E065204600F09B
:101D700067F9216880200860F0050CD5E8050AD5D0
:101D8000E06D40F40030E0652046FFF710FD21686B
:101D90004FF480700860B0050CD5A8050AD5E06D39
:101DA00040F48020E0652046FFF702FD21684FF4F3
:101DB00000700860F0062ED5E80600E008E02AD59D
:101DC000E06BD0B1AFB1DBF8080000F4604013E085
:101DD0002068416821F060014160E06D20F480508E
:101DE000E065E06DC005B3D4E06D40F00100E06552
:101DF000AEE72068C068C00750B1E06D40F4806075
:101E0000E065206E40F0020020662046FFF7E6FE07
:101E1000216810200860700512D5680510D5E06DA6
:101E200040F48040E065206E40F0080020662168A4
:101E30004FF4806008602046BDE8F05FFFF7B6BC55
:101E4000BDE8F09F0003005000010050F8B54FF0CE
:101E5000000504002E46009502D0E06D10B107E0A9
:101E60000120F8BD204600F0EDF8266684F85860A1
:101E700020688168C1F3407119B18168684A1140D6
:101E8000816020688168C1F3007189B98168654A01
:101E9000114041F080518160634864490068B0FBA3
:101EA000F1F04000801C00E0401E00900028FBD1B3
:101EB00020688168C1F3007141B9E16D41F0100102
:101EC000E165216E41F001012166012502F0A0FDCE
:101ED000E16DC90600D430B1E06D40F01000E0655E
:101EE00001252846F8BDE06D20F4807040F0020026
:101EF000E0652068806810F0010F11D14FF0A0401C
:101F000080684B4900F00100896801F00101084335
:101F100006D148486168826822F47C120A438260D4
:101F2000E168E06B627F0843A16841EA42310843FF
:101F300094F8241040EA0140012904D1218D3E4A41
:101F400002EB41410843E16A29B101F47871226B47
:101F5000014342EA01002268D168384B194001432D
:101F6000D16020680169626B21F040611143016119
:101F7000206802F049FD70BB207F94F83810800380
:101F800040EA41022168C86844F2020398431043C2
:101F9000C86020690028206801690AD041F48031B6
:101FA0000161206850F8C01F22696FF30D011143D1
:101FB00007E021F480310161206850F8C01F6FF301
:101FC0000D01016094F8400001280CD020680169DF
:101FD00021F001010161606901282068016B21F095
:101FE0000F0111D013E0D4E911010843D4E9131211
:101FF0001143084321680A6940F2FC739A43104375
:1020000040F001000861E6E7226A521E11430163B5
:10201000E06D20F0020040F00100E06561E70000A3
:10202000C0FFFF5FC0FFFF7F68000020400D03007E
:1020300000010050000300500000FEFF0740F0FFC9
:102040007047000070B598B00546142111A8FEF73E
:10205000B1FA44216846FEF7ADFA2649286888425D
:1020600045D1C001009080030F90684600F074FCD9
:1020700008B1FFF797FB2049C86C40F40050C864D2
:10208000C86C00F400501690C86C40F00100C864A1
:10209000C86C002600F0010016903020119003203B
:1020A000CDE9120611A94FF0904000F029FA144C26
:1020B000124820602420C4E901068020C4E903609E
:1020C000400060618000A0612020C4E9070620462E
:1020D00000F05EF908B1FFF765FB6C650022114660
:1020E0001220A56200F0A0FB122000F08FFB18B0B8
:1020F00070BD0000000100500010024008000240C6
:10210000540100202DE9F041044634481746884622
:10211000806800F01F05206802F07AFC00285AD180
:1021200094F85800012856D0012084F85800002661
:1021300025B1052D02D0092D00D003E02046FFF780
:1021400073FA18B184F85860BDE8F081E06D40F68C
:102150000161884340F48070E0652149206888422D
:1021600002D14FF0A04100E00146814200D01DB9EC
:10217000E06D20F48010E065E06DC00404D5206EB1
:1021800020F00600206600E02666616D1548C862F2
:10219000616D15480863616D1448486321681C200F
:1021A000086084F858602068416841F0100141607F
:1021B0002068C16841F00101C16021683B46424688
:1021C0004031606D00F044F921688A68084B1A407C
:1021D000121D8A60B8E70220B6E700000003005035
:1021E000000100509D1500081F1600080516000884
:1021F000C0FFFF7F10B590F8253000210122022B8F
:1022000003D00421C163012122E003681C6824F08B
:102210000E041C60836C1C6824F480741C600368CA
:102220001C6824F001041C6090F84430046C03F036
:102230001F0302FA03F36360D0E913345C60436D5B
:1022400033B11C6824F480741C60D0E916345C60DF
:1022500080F82520002280F82420084610BD70B5A3
:1022600090F82520002401212346022A07D00422C9
:10227000C26380F8251080F82430012429E0026828
:10228000156825F00E0515600268156825F0010532
:102290001560826C156825F48075156090F84420EF
:1022A000056C02F01F0201FA02F26A60D0E9132500
:1022B0005560426D32B1156825F480751560D0E91E
:1022C0001625556080F8251080F82430816B01B107
:1022D0008847204670BDF0B4016C0C6801680D6839
:1022E00090F8442002F01F06042202FA06F323426B
:1022F00011D06B070FD50B689B0603D40B6823F036
:1023000004030B6090F8441001F01F018A40016C37
:102310004A60016B1DE0022303FA06F727424FF0E3
:10232000000C4FF0010218D0AF0716D50C68A406B8
:1023300005D40C6824F00A040C6080F8252090F87D
:10234000441001F01F018B40016C4B6080F824C0E9
:10235000C16A00291AD0F0BC08470823B3402342C1
:1023600014D02B0712D50B6823F00E030B6090F8E6
:102370004410036C01F01F0102FA01F15960C263BD
:1023800080F8252080F824C0416BE2E7F0BC70475C
:1023900070B504000CD02B4A21681420914209D258
:1023A000294A0A44B2FBF0F08000606427480AE042
:1023B000012070BD234A52420A44B2FBF0F0800073
:1023C0006064204808382064022084F825000A68E8
:1023D00047F6F0708243D4E902031843D4E9043588
:1023E0002B431843A3691843E3691843236A18432E
:1023F000104308602046FFF775F9A0680025B0F586
:10240000804F00D16560A16C20790860D4E9130188
:1024100041606068401E032808D82046FFF782F913
:10242000606D0560D4E91601416002E06565A5654F
:10243000E565E563012084F8250084F82450002038
:1024400070BD000008040240F8FFFDBF000002401C
:1024500070B5044690F82400002501280CD0012016
:1024600084F8240094F825600020012E06D084F81A
:1024700024000225284670BD022070BD022684F883
:102480002560E0632068066826F0010606602046A5
:10249000FFF75AF9206B00282068016802D041F04C
:1024A0000E0106E021F0040101602068016841F09E
:1024B0000A010160A06C0168C90303D5016841F4F9
:1024C00080710160606D18B1016841F48071016034
:1024D0002068016841F001010160CBE770B5044656
:1024E00000F03CF90546601C02D0044840680444F2
:1024F00000F034F9401BA042FAD370BD5C0000200C
:102500002DE9F04FDFF82092002301260324A9F1E2
:10251000040B85B00F2709F1040AABF1040EFAE0B1
:1025200006FA03F52A407CD091F804C00CF0030CA5
:10253000BCF1010F02D0BCF1020F26D1D0F808C0C7
:10254000CDF800C04FEA430C04FA0CF8CDF810C0E7
:10255000DDF800C02CEA080CCDF800C0D1F80C80E2
:10256000DDF810C008FA0CF8DDF800C048EA0C08E5
:10257000C0F80880D0F804C02CEA050C0D79C5F32A
:1025800000159D4045EA0C0545600D79ED43AD070A
:102590000ED0C5684FEA430804FA08FC25EA0C058A
:1025A000D1F808C00CFA08FC4CEA050CC0F80CC0C5
:1025B0000D7905F00305022D16D1DD0800EB850C21
:1025C000CDF808C0DCF820805D074FEAD56C07FA2B
:1025D0000CF528EA05080D6905FA0CF5DDF808C0C8
:1025E00045EA0805CCF8205005684FEA430CCDF8C1
:1025F00008C004FA0CFC25EA0C0591F804C00CF0A4
:102600000308DDF808C008FA0CF848EA0508C0F825
:1026100000804D6815F4403F7CD0444DD5F860C033
:1026200000E077E04CF0010CC5F860C02D6E23F09F
:10263000030C05F0010500953D4D65440295AD681C
:102640004FEA837C4FEA1C7807FA08FC25EA0C0560
:10265000B0F1904F06D0DFF8DCC0604505D14FF0F7
:10266000010C20E04FF0000C1DE0DFF8CCC060450D
:1026700002D14FF0020C16E0DFF8C0C0604502D175
:102680004FF0030C0FE0DFF8B8C0604502D14FF007
:10269000040C08E0DFF8ACC0604502D14FF0050C37
:1026A00001E04FF0060C0CFA08FC4CEA050C029D08
:1026B000C5F808C0D9F80050CC46D1F8048095433D
:1026C0005FEAC82800D51543CCF80050DAF800506E
:1026D000D446D1F8048095435FEA882800D5154395
:1026E000CCF80050DBF80050DC46D1F8048095436C
:1026F0005FEA883800D51543CCF80050DEF800506A
:10270000F446D1F8048095435FEAC83800D51543F4
:10271000CCF800505B1C0A6832FA03F57FF400AF76
:1027200005B0BDE8F08F0000080401400010024031
:10273000000001400004004800080048000C004868
:1027400000100048001400480069084000D0012033
:1027500070470AB1816170478162704701488068A3
:10276000704700005C000020024881684268114404
:10277000816070475C00002010B50024032000F049
:1027800073F80F2000F008F808B1012401E000F010
:1027900025F8204610BD000070B50E4E05460024F9
:1027A000706898B14FF47A71B1FBF0F00A4909688A
:1027B000B1FBF0F000F060FD40B9102D06D2002210
:1027C0002946501E00F030F8356000E00124204614
:1027D00070BD00005C000020680000200A4882B044
:1027E000016E41F001010166016E01F001010091ED
:1027F000816D41F080518165806D00F080500090C6
:1028000002B000F0A1B8000000100240002809DB6F
:1028100000F01F02012191404009800000F1E020FA
:10282000C0F8001170470000F0B40E4B1B680C4656
:10283000C3F30223C3F10705042D00D90425191D94
:10284000072901D2002300E0DB1E012606FA05F16C
:10285000491E214099409E40761E16403143F0BCEF
:1028600003F0DBBC0CED00E0064900F0070208684D
:102870004FF6FF03184040EA0220034A1043086065
:10288000704700000CED00E00000FA052B492C4BCE
:102890000A6832214A432B4940B1B0F5007F0868ED
:1028A00029D020F4C06040F480602CE00868C0F3B8
:1028B0004120022804D051F8800F20F4807022E0DB
:1028C000D1F8800020F48070C1F88000086820F4FE
:1028D000C06040F400700860B2FBF3F0401C00E000
:1028E000401E4A69520501D50028F9D148694005C2
:1028F0000AD503207047C0F34120022806D051F8C2
:10290000800F40F48070086000207047D1F880008C
:1029100040F48070C1F88000086820F4C06040F482
:1029200000700860B2FBF3F0401C00E0401E4A69F2
:102930005205DBD50028F9D1D8E700006800002057
:1029400040420F00007000400248816841F480411D
:1029500081607047007000402DE9F843044600682C
:1029600000269D4D00035ED5A86D0027C00008D449
:10297000A86D40F08050A865A86D012700F0805038
:102980000090DFF85892D9F8001041F48071C9F82E
:102990000010FFF7E3FE804606E000BFFFF7DEFE13
:1029A000A0EB080002282BD8D9F80000C005F5D507
:1029B000D5F8900010F4407014D0216C814211D0F1
:1029C000D5F89000D5F8901020F4407041F4803193
:1029D000C5F89010D5F8901021F48031C5F890100A
:1029E000C5F89000C00711D0FFF7B8FE804641F24D
:1029F000883907E0FFF7B2FEA0EB0801494501D98D
:102A000003260BE0D5F890008007F3D5D5F89000A9
:102A1000216C20F440700843C5F890001FB1A86DE8
:102A200020F08050A8652078C00707D0D5F888002E
:102A3000616820F003000843C5F88800207880070B
:102A400007D5D5F88800A16820F00C000843C5F828
:102A500088002078400707D5D5F88800E16820F085
:102A600030000843C5F888002078000707D5D5F85E
:102A70008800216920F0C0000843C5F8880020784C
:102A8000800607D5D5F88800616920F440600843C6
:102A9000C5F888002078400607D5D5F88800A169D8
:102AA00020F440500843C5F888002078000607D578
:102AB000D5F88800E16920F440400843C5F8880053
:102AC0002088C00507D5D5F88800216A20F4403059
:102AD0000843C5F888002088800507D5D5F8880008
:102AE000616A20F440200843C5F88800208840052A
:102AF0000FD5D5F88800A16A20F440100843C5F826
:102B00008800A06AB0F5801F03D1E86840F4801007
:102B1000E860208800050FD5D5F88800E16A20F428
:102B200040000843C5F88800E06AB0F5800F03D183
:102B3000E86840F48010E8602088C0040FD5D5F81C
:102B40008800216B20F040700843C5F88800206B96
:102B5000B0F1807F03D1E86840F48010E8602088FD
:102B60004FF0006180040ED5D5F88800626B20F02C
:102B700040601043C5F88800606B884203D1E86864
:102B800040F48010E860208840040ED5D5F8880015
:102B9000A26B20F040601043C5F88800A06B88420B
:102BA00003D1E86840F48010E860208800040FD565
:102BB000D5F88800E16B20F040500843C5F8880044
:102BC000E06BB0F1805F03D1E86840F48030E860EA
:102BD0003046BDE8F883000000100240007000405D
:102BE0002DE9F0470E4605004FF0000725D0DFF82D
:102BF000AC81D8F8000000F00F00B0420CD2D8F839
:102C0000001021F00F013143C8F80010D8F800007F
:102C100000F00F00B04210D12968614CC80741F2A2
:102C2000883A5AD06868DFF87C91032808D00228D7
:102C300020682DD0400500282CDB0120BDE8F0875E
:102C400020688001F9D5E06800F00302E068C0F375
:102C50000310401C032A19D0534A00BFB2FBF0F006
:102C6000E268C2F306225043E268C2F34162521C9A
:102C70005200B0FBF2F0484517D9A06810F0F00FF1
:102C80000CD0880711D5A86840B10EE0474AE5E7A7
:102C90008003D0E700F0B6F8484506D9A06820F0D8
:102CA000F00040F08000A0608027A068696820F0F4
:102CB00003000843A060FFF751FD814606E000BF16
:102CC000FFF74CFDA0EB090151453AD8A0686968AF
:102CD00000F00C00B0EB810FF2D12868810714D509
:102CE000400703D5A06840F4E060A06028780007A2
:102CF00005D5A06820F4605040F4E060A060A068B2
:102D0000A96820F0F000084304E0802F03D1A068F8
:102D100020F0F000A060D8F80010404601F00F014C
:102D2000B14216D9016821F00F0131430160FFF76C
:102D300015FD074607E000BFFFF710FDC11B514519
:102D400001D903207AE7D8F8000000F00F00B04264
:102D5000F2D12878400705D5A068E96820F4E06042
:102D60000843A0602878000706D5A068296920F4E8
:102D7000605040EAC100A06000F044F8A1680C4A2D
:102D8000C1F30311515C01F01F01C84009490860FB
:102D900009480068BDE8F047FFF7FEBC002002408C
:102DA0000010024000B4C4040024F40000366E0198
:102DB000F2800008680000205C00002005480649F9
:102DC00000688968054AC1F30221515C01F01F01C6
:102DD000C8407047680000200010024002810008CF
:102DE0000548064900688968054AC1F3C221515C5B
:102DF00001F01F01C8407047680000200010024029
:102E000002810008184910B58868C0F3810217488C
:102E1000012A0BD08A68164BC2F38102022A06D01F
:102E20008A68C2F38102032A03D0002010BD18462D
:102E300010BDCA6802F00304CA68C2F30312521C30
:102E4000032C02D0B0FBF2F001E0B3FBF2F0CA6851
:102E5000C968C2F306225043C1F34161491C4900CD
:102E6000B0FBF1F010BD0000001002400024F4009F
:102E700000366E012DE9F84304007AD02078F84D31
:102E8000C00747D0A868E96800F00C0001F0030112
:102E90000C2802D0082817D001E0032914D060685C
:102EA000B0F5803F17D0B0F5A02F286817D020F4D8
:102EB00080302860286820F4802028606068E0B1B5
:102EC000FFF74CFC064614E02868800322D56068B2
:102ED0000028D2D01EE0286840F48030EDE740F4AE
:102EE00080202860F7E700BFFFF738FC801B6428CC
:102EF00070D828688003F7D50CE0FFF72FFC064652
:102F000005E000BFFFF72AFC801B6428F0D8286882
:102F10008003F7D4207880074CD5A868E96800F0D2
:102F20000C0001F003010C2802D004280DD001E0B0
:102F300002290AD0E068002828682BD040F480706D
:102F40002860FFF70BFC064619E02868400502D50B
:102F5000E068002891D06868217C20F0FE4040EABB
:102F600001606860BF480068FFF716FC002800D1C8
:102F700020E072E1FFF7F2FB801B0228B8D8286836
:102F80004005F7D56868217C20F0FE4040EA0160EA
:102F900068600FE020F480702860FFF7DFFB0646D2
:102FA00005E000BFFFF7DAFB801B0228A0D82868E5
:102FB0004005F7D42078000729D560690028D5F8A6
:102FC000940013D040F00100C5F89400FFF7C6FB51
:102FD000064606E090E000BFFFF7C0FB801B02281A
:102FE00086D8D5F894008007F6D510E020F00100CF
:102FF000C5F89400FFF7B2FB064604E0FFF7AEFB0E
:10300000801B022878D8D5F894008007F6D4207861
:10301000400761D5A86D0026C00008D4A86D40F017
:103020008050A865A86D012600F0805000908E4861
:103030000168C90511D40168804641F480710160BE
:10304000FFF78CFB074604E0FFF788FBC01B022854
:1030500052D8D8F80000C005F6D5A068012815D0D0
:103060000528D5F8900016D020F00100C5F8900092
:10307000D5F8900020F00400C5F89000A06841F257
:103080008838B8B1FFF76AFB07460EE0D5F8900024
:1030900040F00100F0E740F00400C5F89000F5E7CB
:1030A000FFF75CFBC11B414526D8D5F8900080078F
:1030B000F6D50CE0FFF752FB074604E0FFF74EFBA6
:1030C000C11B414518D8D5F890008007F6D41EB131
:1030D000A86D20F08050A8652078800629D5A069C9
:1030E0000028D5F8980013D040F00100C5F89800EA
:1030F000FFF734FB064606E075E000BFFFF72EFB46
:10310000801B02286FD8D5F898008007F6D510E00C
:1031100020F00100C5F89800FFF720FB064604E008
:10312000FFF71CFB801B02285DD8D5F898008007AC
:10313000F6D4E069F0B3A968C1F3810103295DD039
:103140000228286820F08070286003D0FFF706FB73
:1031500004464BE0FFF702FB064604E0FFF7FEFAE9
:10316000801B02283FD828688001F7D4F4E90801C1
:103170006FF00F0202EB01110843218A5204490843
:1031800002EB4151A26841EA02210843217D4FF040
:103190007E42490802EB41610843217B40EAC1605D
:1031A000E968324A11400843E860286840F08070BE
:1031B000286000E05EE0E86840F08070E860FFF7BB
:1031C000CDFA044605E000BFFFF7C8FA001B02284D
:1031D00009D828688001F7D54CE000BFFFF7BEFA98
:1031E000001B022802D90320BDE8F883286880016B
:1031F000F4D4E8681E490840E8603BE00128F3D0B9
:10320000E868226A00F00301914226D1616A00F069
:10321000F0020901103991421FD1A26A00F4FE4167
:10322000B1EB022F19D194F82C2000F07841B1EBCA
:10323000C26F12D1218E00F4C00249084905A1F5E0
:103240000011914209D194F8341000F0C06049088F
:103250004906A1F1007181420CD00120C4E70000B1
:10326000001002405C000020007000400C809F01B4
:10327000FCFFEEFE0020B7E710B5401EB0F1807FE6
:1032800001D3012010BD4FF0E02460610F216017D1
:1032900002F0C3FF0020A06107202061002010BDC4
:1032A000704770477047704770477047F0B590F8A7
:1032B0003C20012A3AD0012580F83C50022280F8B7
:1032C0003D2003685A689C68194E1A4FB34201D0DA
:1032D000BB4204D122F4700C4A6842EA0C02DFF8C7
:1032E00058C002EA0C02D1F800C04CEA020CC3F844
:1032F00004C00268B2420DD0B2F1804F0AD00F4B29
:103300009A4207D00E4B9A4204D0BA4202D00D4BDB
:103310009A4204D1896824F080031943916080F8AF
:103320003D50002180F83C100846F0BD0220F0BD61
:10333000002C0140003401408FFFFFFD00040040DD
:103340000008004000400140704710B5040003D061
:1033500094F83D0010B107E0012010BD002084F872
:103360003C00204600F022F8022084F83D00211D98
:10337000206801F023FF012084F8480084F83E0013
:1033800084F83F0084F8400084F8410084F842004B
:1033900084F8430084F8440084F8450084F846002B
:1033A00084F8470084F83D00002010BD10B586B0B9
:1033B000044614216846FDF7FDF821681E48B1F166
:1033C000804F15D01D4A914210D1816D41F002010C
:1033D0008165806D002200F00200059011461D20DD
:1033E000FFF722FA5FF01D00FFF710FA06B010BDDC
:1033F000816D41F001018165816D01F0010105914F
:10340000C16C41F00101C164C06C694600F001006B
:10341000059002200090019000200290039001206E
:1034200004904FF09040FFF76BF8002211461C20EB
:10343000FFF7FAF91C20D7E7001002400004004013
:1034400090F83D10012901D001207047022180F839
:103450003D100168CA6842F00102CA600068104964
:1034600088420ED0B0F1804F0BD00E49884208D070
:103470000D49884205D00D49884202D00C49884246
:1034800007D181680B4A1140062906D0B1F5803F6B
:1034900003D0016841F00101016000207047000085
:1034A000002C0140000400400008004000340140AE
:1034B000004001400700010070B5044690F83C0050
:1034C0000025012814D0012684F83C60022084F8ED
:1034D0003D0022689068364B184020F47F40906091
:1034E000086870282ED010DC10F00F0F03D021E0F8
:1034F0004FF0020070BD4FEA2012072A1AD2DFE80F
:1035000002F0525252524A3840002A4BC21A984294
:1035100049D009DCB0F5805F0DD0B0F5005F1CD05C
:10352000B0F1101F06D13EE0102A3CD0202A3AD03C
:10353000502A38D0012584F83D60002084F83C00F2
:10354000284670BDCB68D1E90121206801F0A1FEB9
:103550002068816841F0770109E0CB68D1E9012159
:10356000206801F096FE2068816841F48041816006
:10357000E1E7CA684968206802F036F850212068FF
:1035800006E0CA684968206802F076F86021206881
:1035900001F08AFECFE7CA684968206802F024F883
:1035A00040212068F4E7226801461046F0E7000059
:1035B00088FFCEFF2000100010B504460068B0F16F
:1035C000804F17D10421204600F0B3FB0A49401C6C
:1035D0000A4A8864B2FBF0F042F2107248649042EA
:1035E00001DD4A6403E0642801DA6420486421684C
:1035F0000020486210BD00000800002040420F007B
:103600002DE9F041054690F83C0000260C460128C3
:1036100010D0012085F83C0072B1042A1CD0082A81
:103620002CD00C2A50D00126002085F83C003046D2
:10363000BDE8F0810220FBE7D4E90012E3682868C6
:1036400001F0E4FF2868816921F00C01816128689C
:103650008169A26811430FE0D4E90012E368286889
:1036600002F01CF82868816921F4406181612868B2
:103670008169A26841EA02218161D5E72868D4E91D
:10368000002C277B036A016A21F480710162C16901
:1036900023F4206321F0030141EA0C0121F0F00C36
:1036A00039074FF420674CEA116107EA02221A43F6
:1036B000C16102622868C16921F00C01C1612868FA
:1036C000C169A26811432BE02868D4E90021E768AA
:1036D000036AD0F820C02CF4805CC0F820C0D0F879
:1036E0001CC023F420432CF4407C4CEA012121F43B
:1036F000704C4FF6FF7101EA07314FF4204741EA61
:103700000C0107EA02321A43C16102622868C169EA
:1037100021F44061C1612868C169A26841EA0221BF
:10372000C16181E710B5040003D094F83D0010B1E9
:1037300007E0012010BD002084F83C00204600F086
:1037400022F8022084F83D00211D206801F036FD9A
:10375000012084F8480084F83E0084F83F0084F893
:10376000400084F8410084F8420084F8430084F863
:10377000440084F8450084F8460084F8470084F843
:103780003D00002010BD704730B50446002571B1E2
:10379000042911D0082914D00C2917D0102918D0C9
:1037A00094F8430094F84720012817D114E094F8C6
:1037B0003E0094F84420F7E794F83F0094F8452041
:1037C000F2E794F8400094F84620EDE794F84100C1
:1037D000E8E794F84200E5E7012A01D0012030BD76
:1037E000022079B1042916D008291DD00C2949D00E
:1037F00010294AD084F8430084F847000C2947D0A8
:1038000001253DE084F83E0084F844002068C26849
:1038100042F0020210E084F83F0084F8450020687E
:10382000C26842F0040207E084F8400084F84600D1
:103830002068C26842F00802C2600122206801F0DC
:103840001BFD1649206888420ED0B0F1804F0BD086
:103850001349884208D01349884205D0124988424A
:1038600002D01249884207D18168114A11400629C5
:1038700006D0B1F5803F03D0016841F0010101603D
:10388000284630BD84F84100B6E784F84200B3E72B
:103890002068C26842F01002CEE70000002C014010
:1038A0000004004000080040003401400040014096
:1038B000070001002DE9F04104460068C66805696B
:1038C0004FF00007A90713D5B10711D5F91E016103
:1038D00001202077206880698007204602D0FFF70A
:1038E0006BFE04E000F0E0F8204600F0A2F9277734
:1038F000680716D5700714D521686FF004000861B9
:10390000022020772068806910F4407F204602D092
:10391000FFF752FE04E000F0C7F8204600F089F9F6
:103920002777280715D5300713D521686FF00800D1
:103930000861042020772068C0698007204602D0F3
:10394000FFF73AFE04E000F0AFF8204600F071F90E
:103950002777E80616D5F00614D521686FF0100019
:103960000861082020772068C06910F4407F204655
:1039700002D0FFF721FE04E000F096F8204600F0A8
:1039800058F92777E80708D0F00706D021686FF0CC
:1039900001000861204600F0CBF9280601D4A804F4
:1039A00008D5300606D521686FF40250086120461C
:1039B000FFF777FCE80508D5300606D521686FF4D7
:1039C000807008612046FFF76BFC680608D570061A
:1039D00006D521686FF040000861204600F0BEF96E
:1039E000A80608D5B00606D521686FF0200008614A
:1039F0002046FFF757FCE80208D5F00206D52168FB
:103A00006FF4801008612046FFF74EFCA80208D52D
:103A1000B00206D521686FF4001008612046FFF758
:103A200042FC680208D5700206D521686FF4800058
:103A300008612046FFF739FC28020AD5300208D574
:103A400021686FF4000008612046BDE8F041FFF7EF
:103A50007BBCBDE8F081000010B586B0044614219F
:103A60006846FCF7A7FD0E492068884215D10D482D
:103A7000C16C41F00101C164C06C002100F0010083
:103A80000590802000900220CDE90101CDE90310CE
:103A900069464FF09040FEF733FD06B010BD0000C0
:103AA0000004004000100240704770B5044690F8D2
:103AB0003C0000260D4601280BD0012084F83C0074
:103AC0000C2A4AD007DC82B1042A20D0082A06D169
:103AD00031E0022070BD102A53D0142A63D0012691
:103AE000002084F83C00304670BD206801F0E6FB01
:103AF0002068816941F0080181612068816921F0B5
:103B000004018161206881692A69114311E02068FC
:103B100001F022FC2068816941F400618161206824
:103B2000816921F480618161206881692A6941EAA3
:103B300002218161D4E7206801F056FC2068C16948
:103B400041F00801C1612068C16921F00401C1612F
:103B50002068C1692A69114311E0206801F08CFCDA
:103B60002068C16941F40061C1612068C16921F424
:103B70008061C1612068C1692A6941EA0221C1618D
:103B8000AEE7206801F0C0FC2068016D41F008013B
:103B900001652068016D21F0040101652068016D57
:103BA0002A69114311E0206801F0E6FC2068016DEC
:103BB00041F4006101652068016D21F480610165B7
:103BC0002068016D2A6941EA0221016588E710B584
:103BD000040003D094F83D0010B107E0012010BDAF
:103BE000002084F83C00204600F022F8022084F8EF
:103BF0003D00211D206801F0E1FA012084F8480011
:103C000084F83E0084F83F0084F8400084F84100C6
:103C100084F8420084F8430084F8440084F84500A6
:103C200084F8460084F8470084F83D00002010BD69
:103C30007047704730B50446022269B1042912D09A
:103C4000082917D00C291CD0102921D094F8430042
:103C5000012824D0012030BD94F83E000128F9D17C
:103C600084F83E201DE094F83F000128F2D184F84A
:103C70003F2016E094F840000128EBD184F8402062
:103C80000FE094F841000128E4D184F8412008E0D5
:103C900094F842000128DDD184F8422001E084F844
:103CA00043200122206801F0E7FA194B20681949E6
:103CB000194A984209D0884207D0904205D0174D42
:103CC000A84202D0164DA84203D1456C45F40045E8
:103CD0004564206898420CD0B0F1804F09D0114B58
:103CE000984206D0104B984203D0884201D09042AF
:103CF00007D181680D4A1140062906D0B1F5803FF1
:103D000003D0016841F001010160002030BD0000D6
:103D1000002C0140003401400040014000440140BB
:103D20000048014000040040000800400700010076
:103D300070470246002041B1042909D008290AD061
:103D40000C2901D11068006C70471068406B7047F7
:103D50001068806B70471068C06B7047704790F8B0
:103D60008410012918D0012180F884102421C0F882
:103D7000881001680A680B6823F001030B6022F0C9
:103D8000005100224266036819602021C0F88810A3
:103D900080F88420104670470220704770477047B3
:103DA00070B5044690F8840001281DD0012084F8E5
:103DB00084002420C4F8880020680568026822F086
:103DC000010202602068826822F060620A43826019
:103DD000204601F07FFC206805602020C4F88800A0
:103DE000002084F8840070BD022070BD70B50446C8
:103DF00090F8840001281DD0012084F8840024203C
:103E0000C4F8880020680568026822F00102026098
:103E10002068826822F060420A438260204601F0F6
:103E200059FC206805602020C4F88800002084F830
:103E3000840070BD022070BD70477047704700005D
:103E40002DE9F04103680446D86919689A6840F67C
:103E50000F0528424FF000054FF002060AD18706F1
:103E60007ED501F0200702F0805C57EA0C0777D07E
:103E7000616F3AE1B24FDFF8CCC2174001EA0C0C97
:103E800057EA0C0C6CD05FEAC07C0CD05FEAC15CD6
:103E900009D54FF0010CC3F820C0D4F8903043F09E
:103EA0000103C4F89030830709D5D30707D02368EE
:103EB0001E62D4F8903043F00403C4F890304307F6
:103EC0000AD5D30708D0266804233362D4F890308B
:103ED00043F00203C4F8903003070CD501F020032F
:103EE0003B4308D0266808233362D4F8903043F06F
:103EF0000803C4F8903003050BD54B0109D526689B
:103F00004FF400633362D4F8903043F02003C4F8D8
:103F10009030D4F89030002B3DD0800609D501F0C8
:103F2000200002F08051084303D0616F09B12046A0
:103F30008847D4F8900021688968490602D410F0B7
:103F4000280F2AD0204601F0ABFC2068806840068C
:103F50001ED52068083050E8001F21F0400100E025
:103F600021E040E80012002AF3D1D4F8800078B1B3
:103F700075498163D4F88000FEF771F900280AD0F2
:103F8000D4F88000816B00E02046BDE8F04108478E
:103F90002046FFF753FFBDE8F0812046FFF74EFFB4
:103FA000C4F89050F7E7D4F86CC02027BCF1010F9B
:103FB0007ED15FEAC06C7BD55FEAC16C78D51020FA
:103FC000186220688068400645D5D4F880100868DB
:103FD00040680004000CDED0B4F85C208242DAD9DC
:103FE000A4F85E000868006880062CD4216851E8B7
:103FF000000F20F4807041E80002002AF6D120680A
:10400000083050E8001F21F0010140E80012002AAA
:10401000F5D12068083050E8001F21F0400140E849
:104020000012002AF5D1C4F88C70E566206850E8CB
:10403000001F21F0100140E80012002AF6D1D4F848
:104040008000FEF7D7F82667B4F85C00B4F85E107D
:10405000401A81B230E0B4F85C00B4F85E10401A47
:1040600081B2B4F85E00002895D0002993D0226870
:1040700052E8000F20F4907042E80003002BF6D1C4
:104080002F4BDB432068083050E8002F1A4040E8EF
:10409000002CBCF1000FF5D1C4F88C70E5666567A3
:1040A000226852E8000F20F0100042E8000300E010
:1040B00006E0002BF4D126672046FFF76FFE6AE783
:1040C000C60209D5560207D54FF480101862204663
:1040D000BDE8F041FFF7B1BE03060AD501F0800349
:1040E00002F40002134304D0A16F00297FF44CAF07
:1040F00051E7420611D54A060FD52046026852E81C
:10410000001F21F0400142E80013002BF6D1C0F857
:104110008870856700F0A1F93DE7020206D54A00E4
:1041200004D52046BDE8F041FFF786BEC001C6D5E4
:104130000029C4DA2046BDE8F041FFF730BE000098
:1041400001000010200100048D58000810B5040083
:1041500003D0D4F8880010B107E0012010BD002082
:1041600084F88400204600F027F82420C4F8880052
:104170002068016821F001010160A06A10B12046A9
:1041800001F0CAFA204601F01DFE0128E6D02068A1
:10419000416821F4904141602068816821F02A0142
:1041A00081602068016841F0010101602046BDE89E
:1041B000104001F015BB000010B598B00446142162
:1041C00011A8FCF7F7F944216846FCF7F3F91B49FD
:1041D0002068884230D101200024CDE900046846DF
:1041E000FEF7BAFB08B1FDF7DDFA1548016E41F4A0
:1041F00080410166016E01F480411691C16C41F06D
:104200000101C164C06C11A900F0010016904FF4C7
:10421000C06011900220CDE912040720CDE91440BE
:104220004FF09040FEF76CF9002201212520FEF7A7
:10423000FBFA2520FEF7EAFA18B010BD003801405D
:104240000010024030B4D0F88C30202B02D0022075
:1042500030BC7047A9B1A2B10023C3660A4C036801
:10426000A3420BD05B681B0208D5046854E8003FEA
:1042700043F0806344E80035002DF6D130BC01F0F6
:10428000DBBE0120E4E700000080004070B5384C40
:10429000384DE07B582810D0592811D0232821D040
:1042A000502826D0217A6854491C2172207A03288C
:1042B00056D3687841281FD050E062782EA101E0E3
:1042C000A2782FA12B483230FCF77EF829483230F3
:1042D000FCF751F9274982B2322332312A4800F0E3
:1042E00065F8E3E7002000F0DBF9E079C043E07116
:1042F000DCE72870012032E0287850282ED1A878F9
:10430000312804D0342809D0352810D026E01948A7
:104310001EA13230626CFCF757F814E0E06902F03D
:104320006FFD41EC100B1BA153EC102B07E0206A32
:1043300002F066FD41EC100B19A153EC102B0D4857
:104340003230FCF741F80B483230FCF714F90949D8
:1043500082B2322332310C4800F028F8002020725B
:10436000BDE87040024901220F310748FFF76ABFDC
:104370000800002082000020583A25640000000058
:10438000593A2564000000004C0200205041313AA7
:10439000256400005041343A252E326600000000AA
:1043A0005041353A252E3266000000002DE9F843D1
:1043B0000446D0F88800984616460D46202802D0BC
:1043C0000220BDE8F883A5B19EB10020C4F890009A
:1043D0002120C4F888001834FEF7C0F9A68781466A
:1043E000E68754F8100C2027183CB0F5805F02D007
:1043F00003E00120E5E7206910B12E46002510E01A
:1044000000260EE08021204601F09EFEC0B9DEB1FC
:1044100016F8010B21688862B4F85600401EA4F813
:104420005600B4F856004B464FF00002CDF800801D
:104430000028E7D14FF04001204601F085FE40B151
:10444000C4F888700320BCE735F8020BC0F30800FD
:10445000E0E7C4F888700020B3E77047FEE700008B
:1044600000B585B014216846FCF7A4F8C020009080
:104470000120019002900220039069460248FEF755
:104480003FF805B000BD00000004004870B50824E6
:10449000002500F00FFE13E06806050E002000F076
:1044A000F1FD142001F0E0FE142001F0DDFE0120FA
:1044B00000F0E8FD142001F0D7FE00F0EFFD054309
:1044C000641EE4B2E8D2002000F0DCFD142001F00C
:1044D000CBFE00F011FE284670BD10B5002000F0A4
:1044E000FFFD142001F0C0FE142001F0BDFE0120EC
:1044F00000F0C8FD142001F0B7FE002000F0C2FD5E
:10450000BDE81040142001F0AFBE70B50446082588
:1045100016E000F0B7FD142001F0A6FE04F08000C4
:1045200000F0DEFD142001F09FFE6006040E142052
:1045300001F09AFE012000F0A5FD142001F094FE88
:104540006D1EEDB24FF00000E3D200F09BFDBDE820
:104550007040142001F088BE10B5012000F0C0FDAD
:10456000142001F081FE142001F07EFE012000F0F5
:1045700089FD142001F078FE002000F083FDBDE8E5
:104580001040142001F070BE10B5012000F0A8FD0D
:10459000142001F069FE012000F074FD142001F0E8
:1045A00063FE002000F09CFD142001F05DFE002061
:1045B00000F068FDBDE81040142001F055BE10B5B4
:1045C000002000F05FFD142001F04EFE002000F0FE
:1045D00087FD142001F048FE012000F053FD142057
:1045E00001F042FE012000F07BFDBDE810401420E8
:1045F00001F03ABE10B5052400F05CFD142001F076
:1046000033FE012000F03EFD142001F02DFE05E0F8
:10461000641EA4B2142001F027FE64B100F03EFD38
:104620000028F5D100F02EFD00F066FD142001F009
:104630001BFE002010BD00F05FFDFFF7C0FF012052
:1046400010BD000000B585B014216846FBF7B2FF2D
:104650004FF6FF70009000200321CDE90201019088
:1046600069460248FDF74CFF05B000BD0008004850
:1046700000B585B014216846FBF79CFF4FF6FF702C
:1046800000900120019003200390002002906946D1
:104690000248FDF735FF05B000BD000000080048E6
:1046A00070B5002406462146204600F003F900F0CC
:1046B00041F94FF49635304600F010F9641CAC42D5
:1046C000F9D370BD70B586B014216846FBF772FF50
:1046D0001E48C16C41F00401C164C16C01F00401C9
:1046E0000591C16C41F00101C164C16C01F001018F
:1046F0000591C16C41F00201C164C06C032500F05A
:10470000020005904FF448700124002603958DE8BF
:10471000510069460E48FDF7F3FE200203958DE82F
:1047200051004FF0904469462046FDF7E9FEFFF73F
:104730009FFFA06940F48070A061054818300168AF
:1047400041F40871016006B070BD00000010024025
:1047500000040048203AD2B2034B02EB420203EBC2
:10476000021200F019B80000FA6E0008F0B50E460B
:104770000746002540F23F1407E021463846FFF780
:10478000E9FF103C6D1CA4B2761C3278002A01D0DF
:10479000142DF2D3F0BD00002DE9F04791468A4672
:1047A0000026044600F086F8DFF84080012700BFAD
:1047B00000F0C0F85FF0000539F8160007FA05F1BF
:1047C0000842404601D1408800E0008800F086F8A9
:1047D0006D1C102DF0D3641CE4B25146204600F04D
:1047E00069F8761C182EE3D3BDE8F087000000209E
:1047F00010B5FFF767FF002000F014F8084CA08008
:10480000A088A0F50241303906D000F039FB002025
:1048100000F008F8A08010BD00F0A9FAF7E700004A
:104820000000002070B51D490A6842F400720A6059
:104830000A6842F480720A60184C103C226842F008
:1048400020022260164A1060086840F020000860CC
:1048500000BF00BF00BF206840F02000206020683B
:1048600040F480702060FFF7EDFE4FF09041886AC1
:1048700040F48070886200BF00BF00BF0848001F7E
:10488000006885B2886940F480708861FFF7F0FEA7
:10489000206840F400702060284670BD280400485D
:1048A0001408004801B5BDF800000149488008BD62
:1048B0000000002010B50C460146202000F068F8EA
:1048C0002146BDE81040212000F062B801B5BDF8D6
:1048D00000000149088008BD00000020134A11684B
:1048E00041F400711160114910390B6843F4807371
:1048F0000B600B6843F020030B600D4B18601068D1
:1049000040F02000106000BF00BF00BF086840F00A
:1049100020000860086840F48070086000BF00BF95
:1049200000BF086840F40070086070472804004821
:10493000140800481449086840F4007008600868CA
:1049400040F48070086010481038026842F020027D
:1049500002600E4B22221A600A6842F020020A60AE
:1049600000BF00BF00BF016841F020010160016885
:1049700041F48071016000BF00BF00BF016841F4D5
:1049800000710160704700002804004814080048C6
:10499000184B10B51A6842F400721A601A6842F493
:1049A00080721A60134A103A146844F020041460AC
:1049B000114C2060186840F02000186000BF00BF54
:1049C00000BF106840F020001060106840F4807054
:1049D00010602160186840F02000186000BF00BF20
:1049E00000BF106840F020001060106840F4807034
:1049F000106010BD280400481408004800EB810036
:104A0000006E00F0F84070478068C0F3C000704747
:104A10008068C0F380007047C06810F4406F01D018
:104A20000020704701207047042303EAD15310B5DA
:104A300018444369C1F3045107248C40A3438A40BE
:104A40001343436110BD00EB8100016E21F0004172
:104A5000114301667047000030B589B020216846D7
:104A6000FBF7A8FD1F481E49002401608902C0E928
:104A70000114042585610121C460C0E90441047763
:104A800041770222026280F82440C462046380F805
:104A90003810C46380F84040FDF7D8F908B1FCF73E
:104AA00081FE1148009006200190072002907F208F
:104AB0000594CDE9030569460A48FCF77BFE08B179
:104AC000FCF770FE094800900C20019069460548EB
:104AD000FCF770FE002801D0FCF764FE09B030BD81
:104AE00000010050E80000200020903600005247EE
:104AF0000D4808B5816C41F004018164816C01F0BE
:104B000004010091816C41F001018164806C0022FC
:104B100000F00100009011460B20FDF785FEBDE876
:104B200008400B20FDF772BE0010024070B586B041
:104B300014216846FBF73EFD2148C16C41F020017D
:104B4000C164C16C01F020010591C16C41F001010B
:104B5000C164C16C01F001010591C16C41F0020119
:104B6000C164C16C01F002010591C16C41F0080102
:104B7000C164C06C134E00F00800059000220421AF
:104B80003046FDF7E6FD00240125CDE900546946D5
:104B90004FF090400294FDF7B3FC0720CDE90004EC
:104BA000694609480294FDF7ABFC04200090CDE96A
:104BB0000154694630460394FDF7A2FC06B070BD6F
:104BC00000100240000C00480004004810B58CB0F2
:104BD00000240594214804940694079408940A94A8
:104BE00009940094019402944FF080410394016071
:104BF0004F21C0E90114611EC0E9031480218161C5
:104C0000FEF7A3FB08B1FCF7CDFD4FF480500490F4
:104C100004A91248FEF750FC08B1FCF7C3FD0F4889
:104C2000FEF780FD08B1FCF7BDFD089408A90B480C
:104C30000A94FEF73BFB08B1FCF7B4FD0120CDE977
:104C4000004002940422694604480394FEF7D8FC0D
:104C5000002801D0FCF7A6FD0CB010BDB401002067
:104C600010B58EB000240794089409940A940B940C
:104C70000C941C2168460D94FBF79CFC1F481E49B0
:104C800001604F21C0E9011440F2E731C0E903148B
:104C900080218161FEF759FB08B1FCF783FD4FF4D9
:104CA0008050079007A91548FEF706FC08B1FCF7ED
:104CB00079FD1248FEF78BFF08B1FCF773FD0B94EA
:104CC0000BA90E480D94FEF7F1FA08B1FCF76AFD46
:104CD000602000904FF4FA70CDE901040422694687
:104CE00006480494FEF7E1FE08B1FCF75BFD0348BB
:104CF000FEF7B2FE0EB010BD00040040000200201E
:104D0000184810B5164901604FF416514160002152
:104D100081600C22C160C0E904128161C16101623D
:104D200041628162FFF712FA08B1FCF73BFD0021F6
:104D30000C48FFF75BF808B1FCF734FD0021094887
:104D4000FFF72EF808B1FCF72DFD0648FFF707F82E
:104D5000002803D0BDE81040FCF724BD10BD0000C2
:104D6000003801404C020020FEE7FEE7704730B5F6
:104D700001210020FFF70CFE4FF47A70FCF704FDD0
:104D800000210120FFF704FE41F290711020FFF78F
:104D9000FFFD4FF41C516020FFF7FAFD0121612057
:104DA000FFF7F6FD02214620FFF7F2FD48F2100161
:104DB0001320FFF7EDFD48F2FE011220FFF7E8FD9A
:104DC0004FF4A0610220FFF7E3FD41F23001032020
:104DD000FFF7DEFD40F2033421463020FFF7D8FD17
:104DE00021463120FFF7D4FD21463220FFF7D0FDC8
:104DF000E51E29463320FFF7CBFD03213420FFF7C2
:104E0000C7FD21463520FFF7C3FD14213620FFF7EB
:104E1000BFFD21463720FFF7BBFD21463820FFF7B5
:104E2000B7FD21463920FFF7B3FD29463A20FFF7A9
:104E3000AFFD03213B20FFF7ABFD21463C20FFF7F0
:104E4000A7FD4FF4A0513D20FFF7A2FD4FF40071E4
:104E50009220FFF79DFD21469320FFF799FD40F634
:104E60000D019020FFF794FD41F218010320FFF798
:104E70008FFDBDE8304040F273110720FFF788BD79
:104E800010B543F20801E320FFF782FD1221E7206D
:104E9000FFF77EFD41F23121EF20FFF779FD002180
:104EA0000120FFF775FD4FF4E0610220FFF770FD70
:104EB00041F230010320FFF76BFD00210420FFF7D2
:104EC00067FD40F207210820FFF762FD002109205D
:104ED000FFF75EFD00210A20FFF75AFD00210C209C
:104EE000FFF756FD00210D20FFF752FD00210F2096
:104EF000FFF74EFD00211020FFF74AFD072111208A
:104F0000FFF746FD00211220FFF742FD002113208C
:104F1000FFF73EFDC820FDF7E1FA41F29061102055
:104F2000FFF736FD40F227211120FFF731FD322037
:104F3000FDF7D4FA1D211220FFF72AFD3220FDF7DC
:104F4000CDFA4FF400611320FFF722FD1421292030
:104F5000FFF71EFD0B212B20FFF71AFD3220FDF776
:104F6000BDFA00212020FFF713FD00212120FFF7CB
:104F70000FFD07213020FFF70BFD40F207713120B4
:104F8000FFF706FD06213220FFF702FD40F2047113
:104F90003520FFF7FDFC41F604713620FFF7F8FCE1
:104FA00004213720FFF7F4FC00213820FFF7F0FC44
:104FB00040F206713920FFF7EBFC40F201713C2012
:104FC000FFF7E6FC0F213D20FFF7E2FC0021502017
:104FD000FFF7DEFCEF215120FFF7DAFC0021522021
:104FE000FFF7D6FC40F23F115320FFF7D1FC4FF4FE
:104FF0001C516020FFF7CCFC01216120FFF7C8FCA9
:1050000000216A20FFF7C4FC00218020FFF7C0FCCC
:1050100000218120FFF7BCFC00218220FFF7B8FCB3
:1050200000218320FFF7B4FC00218420FFF7B0FCAF
:1050300000218520FFF7ACFC10219020FFF7A8FC91
:1050400000219220FFF7A4FC03219320FFF7A0FC8E
:105050004FF488719520FFF79BFC00219720FFF704
:1050600097FC00219820FFF793FC41F218010320E0
:10507000FFF78EFCBDE8104040F273110720FFF7E8
:1050800087BC000008B1044801E003481030016803
:1050900041F04001016070471804004810B58021BC
:1050A0000348FDF751FB012800D0002010BD00008F
:1050B0000004004800B585B014216846FBF77AFA71
:1050C0008020009000200190012002900220039097
:1050D00069460248FDF714FA05B000BD0004004817
:1050E00008B1044801E003481030016841F0800134
:1050F000016070471804004800B585B01421684667
:10510000FBF758FA802000901120019000200290B7
:105110000220039069460248FDF7F2F905B000BD90
:10512000000400487047FDF71FBB00B593B038215D
:105130006846FBF73FFA14210EA8FBF73BFA4FF441
:105140000070FDF7A3FB0220C101039140210491EF
:105150000090079008901421CDE909010B900C9064
:105160000D906846FDF786FE08B172B6FEE70F2087
:105170000E9003200F9000201090119012900221A9
:105180000EA8FDF72DFD002801D072B6FEE713B082
:1051900000BD00000248016841F4700101607047E1
:1051A00088ED00E00148FEF785BB0000B401002057
:1051B0000148FEF77FBB0000000200202DE9F0430C
:1051C0000268264B264D274E274C4FF080499842C7
:1051D00007D0484505D0A84203D0B04201D0A04234
:1051E00003D122F070074A683A43204FDFF880C0AD
:1051F000DFF8808098420DD048450BD0A84209D0F6
:10520000B04207D0A04205D0B84203D0604501D0DB
:10521000404503D122F44075CA682A434D6922F003
:1052200080022A4302608A68C2620A6882629842E7
:1052300007D0A04205D0B84203D0604501D0404518
:1052400001D109690163012141610169C90703D0E5
:10525000016921F001010161BDE8F083002C0140EA
:1052600000040040000800400034014000400140BC
:10527000004401400048014010B501F01F03012126
:10528000046A99408C430462016A9A4011430162A6
:1052900010BD10B5846842EA032224F47F440A4317
:1052A0002243826010BD00008268034B1A400A430B
:1052B00042F00701816070478FFFCFFF2DE9F04377
:1052C000056A026A22F001020262436882691C4C8C
:1052D00025F0020522400C6822F0030214438A687C
:1052E000194E2A43174D194FDFF864C0DFF8649058
:1052F000A84207D0B04205D0B84203D0604501D0E3
:10530000484506D122F00808CA6842EA080222F09D
:105310000402A84207D0B04205D0B84203D060458D
:1053200001D0484505D14D6923F440731D438B6975
:105330002B4343608461496841630262BDE8F083A6
:105340008FFFFEFF002C014000340140004001406F
:105350000044014000480140F0B5056A026A22F0AD
:105360001002026242688369194C1B4E23400C688C
:1053700023F4407343EA042425F020038D6843EAB4
:105380000513144DA84201D0B04206D1CF6823F0D6
:10539000800343EA071323F04003A8420AD0B04237
:1053A00008D00E4DA84205D00D4DA84202D00D4D9B
:1053B000A84207D14D6922F4406242EA85028D6914
:1053C00042EA850242608461496881630362F0BDFC
:1053D000FF8FFFFE002C01400034014000400140DF
:1053E0000044014000480140F0B5056A026A22F419
:1053F000807202624368C269194C1B4E22400C68DD
:1054000022F00302144325F400728D6842EA05225B
:10541000144DA84201D0B04206D1CF6822F40062F8
:1054200042EA072222F48062A8420AD0B04208D0A1
:105430000E4DA84205D00E4DA84202D00D4DA842F7
:1054400007D14D6923F4405343EA05138D6943EABC
:1054500005134360C4614968C1630262F0BD000086
:105460008FFFFEFF002C014000340140004001404E
:105470000044014000480140F0B5056A026A22F488
:10548000805202624268C369194C1B4E23400C686B
:1054900023F4407343EA042425F400538D6843EA5F
:1054A0000533144DA84201D0B04206D1CF6823F491
:1054B000004343EA073323F48043A8420AD0B042B2
:1054C00008D00E4DA84205D00D4DA84202D00D4D7A
:1054D000A84207D14D6922F4404242EA85128D6903
:1054E00042EA85124260C461496801640362F0BD0A
:1054F000FF8FFFFE002C01400034014000400140BE
:10550000004401400048014030B5056A026A22F4B7
:10551000803202624268036D114C23400C681C43C8
:1055200025F400330D8943EA05430E4DA8420BD004
:105530000D4DA84208D00D4DA84205D00C4DA842F3
:1055400002D00C4DA84204D14D6922F4803242EAC7
:1055500005224260046549688164036230BD000031
:105560008FFFFEFF002C014000340140004001404D
:10557000004401400048014030B5046A026A22F448
:10558000801202624268036D114D24F400142B4016
:105590000D6843EA05230D8944EA05540D4DA842E0
:1055A0000BD00D4DA84208D00C4DA84205D00C4D93
:1055B000A84202D00B4DA84204D14D6922F48022AA
:1055C00042EA8522426003654968C164046230BDD5
:1055D000FF8FFFFE002C01400034014000400140DD
:1055E000004401400048014010B5036A046A24F0F9
:1055F00001040462846924F0F00444EA021423F0F4
:105600000A020A438461026210BD000070B5056A97
:10561000046A24F0010404628469124EB0420ED080
:10562000B0F1804F0BD0104EB04208D00F4EB042B8
:1056300005D00F4EB04202D00E4EB04203D124F03E
:105640000304144301E044F001041A0724F0F004B9
:1056500044EA126225F00A0301F00A01194382614B
:10566000016270BD002C01400004004000080040B1
:10567000003401400040014010B5036A046A24F080
:1056800010040462846923F0A00324F4704444EA03
:10569000023243EA01118261016210BD30B5046A31
:1056A000056A25F010050562856925F4407545EA0F
:1056B000022222F470454FF6FF7202EA033224F010
:1056C000A0032A43A02404EA011119438261016264
:1056D00030BD000030B5416EB9B102689168926882
:1056E000C1F342610B4B520F9C5CE50003F10804CF
:1056F000A25CB5FBF2F2A0F86A205A5C615CD200B1
:10570000B2FBF1F1A0F8681030BD0121A0F86A10D9
:10571000F8E70000E280000890F82810090706D595
:1057200001684A68836B22F400421A434A6090F889
:105730002810C90706D001684A68C36A22F40032FB
:105740001A434A6090F82810890706D501684A680C
:10575000036B22F480321A434A6090F828104907FC
:1057600006D501684A68436B22F480221A434A60D6
:1057700090F82810C90606D501688A68C36B22F420
:1057800080521A438A6090F82810890606D501686D
:105790008A68036C22F400521A438A6090F8281039
:1057A000490611D501684A68436C22F480121A43F5
:1057B0004A60416CB1F5801F06D101684A68836C6C
:1057C00022F4C0021A434A6090F82810090606D550
:1057D00001684A68C06C22F4002202434A607047A4
:1057E0002DE9F84300260446C0F89060FCF7B6FFA8
:1057F0008046206800684FF0200500076FF07E4764
:1058000013D54346002229042046009700F09CFC53
:1058100058B1216851E8000F20F0800041E80002F3
:10582000002AF6D1C4F8885021E0206800684007BB
:1058300022D5434600224FF480012046009700F015
:1058400083FCC8B1216851E8000F20F4907041E852
:105850000002002AF6D12068083050E8001F21F02D
:10586000010140E80012002AF5D1C4F88C5084F8F8
:1058700084600320BDE8F883C4F88850C4F88C50D5
:1058800044F86C6F666026760020F3E710B5806AF6
:105890000021A0F85E10A0F85610FEF7CFFA10BD58
:1058A00010B5026852E8001F21F4907142E800131D
:1058B000002BF6D10E4B0268083252E8001F194047
:1058C00042E80014002CF6D1C16E012908D101680C
:1058D00051E8002F22F0100241E80023002BF6D1FE
:1058E0002021C0F88C100021C166416710BD000066
:1058F000FEFFFFEF10B5B0F86020D0F88C300168E3
:10590000222B04D0886940F00800886110BD496AE4
:10591000836D11401980816D891C8165B0F85E101E
:10592000491EA0F85E10B0F85E100029EED10268A2
:1059300052E8001F21F4907142E80013002BF6D1C9
:105940000168083151E8002F22F0010241E80023EC
:10595000002BF5D12021C0F88C1000214167016790
:10596000154B02689A420BD05268120208D50368A0
:1059700053E8002F22F0806243E80024002CF6D187
:10598000C26E012A02D0FEF781FC10BDC16602681A
:1059900052E8001F21F0100142E80013002BF6D15D
:1059A0000168CA69D243D20601D410220A62B0F853
:1059B0005C10FEF7F3F910BD008000402DE9F047C0
:1059C0000446B0F860600068C569D0F800A0D0F85F
:1059D0000880D4F88C10222905D0816941F0080193
:1059E0008161BDE8F087B4F868704FF0000975E098
:1059F0002068406AA16D30400880A06D801CA065C1
:105A0000B4F85E00401EA4F85E002068C56969070E
:105A100030D0E9070AD05FEACA5107D501210162F7
:105A2000D4F8900040F00100C4F89000A8070BD50E
:105A30005FEAC87008D0216802200862D4F890009C
:105A400040F00400C4F8900068070BD55FEAC87006
:105A500008D0216804200862D4F8900040F00200C9
:105A6000C4F89000D4F8900020B12046FEF7E6F983
:105A7000C4F89090B4F85E0080BB216851E8000F34
:105A800020F4807041E80002002AF6D1304A2068F4
:105A9000083050E8001F114040E80013002BF6D1F9
:105AA0002020C4F88C00C4F874904946C4F8709063
:105AB000284A206890420BD04068000208D522682E
:105AC00052E8000F20F0806342E800300028F6D151
:105AD000E06E012825D02046FEF7D8FB0FB1A806BE
