:020000040800F2
:10000000A007002081020008832B000803240008B9
:10001000812B00087D060008D13A0008000000008E
:100020000000000000000000000000003D2F00085C
:100030007F06000800000000852B00083F2F000805
:100040009B0200089B0200089B0200089B0200081C
:100050009B0200089B0200089B0200089B0200080C
:100060009B0200089B0200089B0200089B020008FC
:100070009B0200089B0200089B0200089B020008EC
:100080009B02000800000000710600089B020008A7
:100090009B0200089B0200089B0200089B020008CC
:1000A0009B0200089B0200089B0200089B020008BC
:1000B0009B0200089B0200089B0200089B020008AC
:1000C0009B0200089B0200089B0200089B0200089C
:1000D0009B020008C53A00089B0200089B0200082A
:1000E0009B0200089B0200089B0200089B0200087C
:1000F0009B0200089B0200089B0200080000000011
:10010000000000009B020008000000009B020008A5
:100110009B020008000000009B0200089B020008F0
:100120009B0200089B0200089B0200089B0200083B
:100130009B02000800000000000000009B02000875
:100140009B0200089B020008000000000000000065
:10015000000000000000000000000000000000009F
:100160000000000000000000000000009B020008EA
:100170009B020008000000000000000000000000DA
:10018000000000009B0200080000000000000000CA
:10019000000000000000000000000000000000005F
:1001A00000000000000000009B0200089B02000805
:1001B0009B0200089B0200089B0200080000000050
:1001C000000000009B02000800000000000000008A
:1001D0009B0200089B02000800F002F800F041F8C2
:1001E0000AA090E8000C82448344AAF10107DA4592
:1001F00001D100F036F8AFF2090EBAE80F0013F0A3
:10020000010F18BFFB1A43F001031847784D000097
:10021000984D0000103A24BF78C878C1FAD8520728
:1002200024BF30C830C144BF04680C607047000070
:100230000023002400250026103A28BF78C1FBD8EF
:10024000520728BF30C148BF0B607047642900F0D7
:10025000F780002070471FB503F086FD1FBD10B565
:1002600010BD00F0CAF91146FFF7F5FF03F04CFD91
:1002700000F0E8F903B4FFF7F2FF03BC00F0F0F977
:100280000948804709480047FEE7FEE7FEE7FEE72A
:10029000FEE7FEE7FEE7FEE7FEE7FEE70448054966
:1002A000054A064B70470000AD2F0008D901000831
:1002B000A0010020A0070020A0030020A003002030
:1002C00053EA020C00F069802DE9F04B4FF0000674
:1002D000002B1FBFB3FA83F503FA05F424FA05F6E1
:1002E0005E4012BF1643B2FA82F502FA05F4C5F178
:1002F00020051EBF22FA05FC44EA0C04203556EA0C
:10030000044C4FEA144418BF641C4FF000084FF02F
:100310000009904271EB030C39D3002919BFB1FADF
:1003200081F701FA07F6B0FA80F700FA07F6C7F18D
:1003300020071EBF20FA07FC46EA0C062037B6FB52
:10034000F4FCA7EB0507103F07F01F0BCBF12006CD
:100350000CFA0BFB2CFA06F644BFB3460026202FFE
:10036000A4BF5E464FF0000B5BEA060C08BF4FF0DF
:10037000010B19EB0B09ABFB027C48EB0608C01B19
:1003800006FB02CC0BFB03CC71EB0C01C1E70B4667
:10039000024641464846BDE8F08B13B54FF00000D9
:1003A0004FF00001AFF30080BDE81C407047000033
:1003B0000FB41CB5074B06AA7B446946009005980C
:1003C00000F003F90020694600F012F91CBC5DF84A
:1003D00014FB0000350200002DE9F0410E460446F2
:1003E000002020622046E168884730B3252805D0E8
:1003F000D4E901219047206A401CF2E7E1682046D9
:1004000000278847050018D0A5F14100192802D817
:1004100020354FF400673246294620462760FFF713
:1004200015FF40B1012804D0F61D26F00706083656
:10043000D8E7361DD6E72846DAE7206ABDE8F0811E
:100440002DE9F0410646002410687529314616A5AD
:1004500010D0AFF30080002802DA404213A507E075
:1004600031688A0701D512A502E0490704D511A514
:10047000012401E0AFF3008000210A2206F12407E5
:1004800009E0B0FBF2FCB0FBF2F302FB1C003030E1
:1004900078541846491C0028F3D123462A46304692
:1004A000BDE8F04100F032B8000000002D0000006F
:1004B0002B000000200000004FF0000200B51346A2
:1004C00094469646203922BFA0E80C50A0E80C5074
:1004D000B1F12001BFF4F7AF090728BFA0E80C5025
:1004E00048BF0CC05DF804EB890028BF40F8042B1E
:1004F00008BF704748BF20F8022B11F0804F18BF8B
:1005000000F8012B70477047704770472DE9F0479E
:100510000D4699469246044600F124080168880673
:1005200004D5E06921F01001216000E00120A8421B
:1005300001DD471B00E00027A1697A1902EB0900E1
:10054000081AA0612078C00602D42046AFF30080CC
:10055000002608E0D4E901211AF806009047206A35
:10056000401C761C20624E45F4DB2078C0060AD57C
:100570002046AFF3008006E0D4E901213020904707
:10058000206A401C2062381EA7F10107F4DC07E056
:10059000D4E9012118F805009047206A401C206228
:1005A000281EA5F10105F3DC2046AFF3008020787A
:1005B000000602D50220BDE8F0870120FBE700001D
:1005C00001694A1C02610878704700B58FB0CDE917
:1005D00001310021059105497944CDE90310114607
:1005E0006846FFF7F9FE0FB000BD0000E5FFFFFF12
:1005F0000A6802F8010B0A607047754600F02CF893
:10060000AE4605006946534620F00700854618B0FF
:1006100020B5FFF743FEBDE820404FF000064FF045
:1006200000074FF000084FF0000B21F00701AC4627
:10063000ACE8C009ACE8C009ACE8C009ACE8C00946
:100640008D46704710B50446AFF300802046BDE8E4
:100650001040FFF70FBE0000004870474001002027
:1006600001491820ABBEFEE72600020070470000DB
:10067000014800F02FBA000040000020FEE770475C
:10068000002240F6B83306E00021491C89B29942A5
:10069000FBD3521C92B28242F6D3704772B6FEE789
:1006A0007047704770477047704700002DE9F84F5A
:1006B00000270446009790F85800DFF8E0930D46B5
:1006C000B846012811D0012684F85860206802F04D
:1006D00071F960B1E06D40F02000E0655FF0010766
:1006E00084F858803846BDE8F88F0220FBE7D5E94A
:1006F00000210C23206803EA91131844036B01F0D6
:100700001F014FF01F0C0CFA01FCC2F3846223EAB4
:100710000C038A4013430363206802F04BF98246BE
:10072000206802F043F95AEA00003CD1AA6829681F
:100730002068B2F1004F37D002F048F920684169D3
:1007400021F00041416120686969C268C2F3C102B9
:10075000520091402A69042A31D000EB82002B68B4
:10076000026EDFF83CC303F0F84302EA0C020B43CD
:100770001A4342F00041016620682A69A96900EB2A
:100780008200026E22F080720A430266297F22688C
:100790002869012910D0002102EB8000026E22F0AE
:1007A00000720A4302667DE0002202F00FF9206821
:1007B000416941F00041C5E74FF00071ECE70021CD
:1007C00002F0EEF8400320684FF0000172D002F012
:1007D000E7F890FAA0F0B0FA80F1286842036ED0F2
:1007E00090FAA0F0B0FA80F0814204D100221146C4
:1007F000206802F0FAF80121206802F0D1F84003E5
:1008000020684FF001015DD002F0CAF890FAA0F024
:10081000B0FA80F12868420359D090FAA0F0B0FAFB
:1008200080F0814204D100220121206802F0DDF82D
:100830000221206802F0B4F8400320684FF0020162
:1008400048D002F0ADF890FAA0F0B0FA80F1286834
:10085000420344D090FAA0F0B0FA80F0814204D173
:1008600000220221206802F0C0F80321206802F073
:1008700097F8400320684FF0030133D002F090F85E
:1008800090FAA0F0B0FA80F1286842032FD090FAD5
:10089000A0F0B0FA80F0814204D100220321206848
:1008A00002F0A3F82068816811F0010F22D0ACE0BB
:1008B00000E004E002F074F8C0F384618DE7C0F357
:1008C000846091E702F06CF8C0F38461A2E7C0F3A2
:1008D0008460A6E702F064F8C0F38461B7E7C0F370
:1008E0008460BBE702F05CF8C0F38461CCE7C0F33E
:1008F0008460D0E72A7B296850F8B03FC1F3120C1E
:1009000023EA0C0302F0180C664A22FA0CF20A40A1
:1009100013430360E968494577D1286841031CD037
:1009200090FAA0F1B1FA81F1491C01F01F010929E7
:100930004FEA403132D8002912D000BF90FAA0F11E
:10094000B1FA81F101F1010101F01F0106FA01F68E
:1009500009D100BFC0F3846109E0C0F38461E3E71B
:10096000C0F38461EEE790FAA0F1B1FA81F101F1F0
:10097000010101F01F0146EA816102D1C0F38460E8
:1009800003E090FAA0F0B0FA80F000F1010000F06E
:100990001F0000EB400041EA005132E000290ED078
:1009A00090FAA0F1B1FA81F101F1010101F01F010A
:1009B00006FA01F606D100BFC0F3846106E0C0F379
:1009C0008461F1E790FAA0F1B1FA81F101F101013E
:1009D00001F01F0146EA816102D1C0F3846003E0A7
:1009E00090FAA0F0B0FA80F000F1010000F01F00D2
:1009F0002D4A00EB400002EB005041EA000141F0BB
:100A00000071AA68206801F0E1FF28482A680242C4
:100A10003FF466AE26488168264B01F0E0719A42A9
:100A200002D0254B9A421CD10B021AD42268B2F193
:100A3000A04F7FF455AE826841F4000122F0E072CD
:100A40000A4382601D481E490068B0FBF1F0401C5B
:100A500000EB4000800000E0401E00900028FBD129
:100A60003EE6184D184BAA4207D1CD0105D42268A5
:100A70009A42F5D041F0807109E0144DAA42EFD1BD
:100A80004A02EDD422689A42EAD041F48001826899
:100A900022F0E0720A43826022E6000000007F40FC
:100AA00000F0FF03FFFF0700000020FE00000880A9
:100AB00000030050000021C31000C0901C00002063
:100AC000400D0300000052C700010050000084CB1D
:100AD000704770472DE9F05F044600680668456876
:100AE000DFF854B2DBF8080000F01F07B0070ED59E
:100AF000A8070CD5E06DC00603D4E06D40F400609B
:100B0000E0652046FFF7CCFD216802200860DFF891
:100B10002CA270074FF0A04801D5680703D4300716
:100B200037D5280735D5E06DC00603D4E06D40F415
:100B30000070E065206801F041FF20B32068504557
:100B400001D1424600E00246824208D03FB1052F63
:100B500005D0092F03D0504503D1414602E0C168BA
:100B600001E00146C96889040DD4016809070AD566
:100B700001F020FF58B3E06D40F01000E065206EFA
:100B800040F0010020662046FFF7A2FF21680C20FC
:100B90000860B00601D5A80603D4700658D56806CB
:100BA00056D5E06DC00603D4E06D40F40050E0651A
:100BB0002068C16C11F4C07F1AD00021894601F071
:100BC000FDFE02462068504514D1434613E02068DC
:100BD000416821F00C014160E06D20F48070E06517
:100BE000E06DC004CFD4E06D40F00100E065CAE7DD
:100BF0000121E3E70346834208D03FB1062F05D029
:100C0000072F03D0504503D1414602E0C16801E0FF
:100C10000146C968B9F1000F14D08B0102D58AB121
:100C20008A040FD4026852060CD589020AD401F056
:100C3000BDFEE8B3E06D40F01000E065206E40F0CE
:100C4000010020662046FFF72CFD21686020086027
:100C500030060BD5280609D5E06D40F48030E065FC
:100C6000204600F067F9216880200860F0050CD567
:100C7000E8050AD5E06D40F40030E0652046FFF756
:100C800012FD21684FF480700860B0050CD5A805EE
:100C90000AD5E06D40F48020E0652046FFF704FDB2
:100CA00021684FF400700860F0062ED5E80600E0D9
:100CB00008E02AD5E06BD0B1AFB1DBF8080000F452
:100CC000604013E02068416821F060014160E06D00
:100CD00020F48050E065E06DC005B3D4E06D40F0D5
:100CE0000100E065AEE72068C068C00750B1E06D64
:100CF00040F48060E065206E40F0020020662046EF
:100D0000FFF7E7FE216810200860700512D568051E
:100D100010D5E06D40F48040E065206E40F00800A2
:100D2000206621684FF4806008602046BDE8F05FCF
:100D3000FFF7B8BCBDE8F09F000300500001005071
:100D4000F8B54FF0000504002E46009502D0E06D86
:100D500010B107E00120F8BD204600F0EDF826664E
:100D600084F8586020688168C1F3407119B18168C6
:100D7000684A1140816020688168C1F3007189B9B7
:100D80008168654A114041F080518160634864493F
:100D90000068B0FBF1F04000801C00E0401E0090B5
:100DA0000028FBD120688168C1F3007141B9E16D71
:100DB00041F01001E165216E41F00101216601253C
:100DC00001F0F8FDE16DC90600D430B1E06D40F0EE
:100DD0001000E06501252846F8BDE06D20F4807024
:100DE00040F00200E0652068806810F0010F11D12A
:100DF0004FF0A04080684B4900F00100896801F085
:100E00000101084306D148486168826822F47C12D7
:100E10000A438260E168E06B627F0843A16841EAAF
:100E20004231084394F8241040EA0140012904D1DA
:100E3000218D3E4A02EB41410843E16A29B101F4A8
:100E40007871226B014342EA01002268D168384B75
:100E500019400143D16020680169626B21F0406153
:100E600011430161206801F0A1FD70BB207F94F85F
:100E70003810800340EA41022168C86844F2020346
:100E800098431043C86020690028206801690AD08F
:100E900041F480310161206850F8C01F22696FF36E
:100EA0000D01114307E021F480310161206850F801
:100EB000C01F6FF30D01016094F8400001280CD0B1
:100EC0002068016921F00101016160690128206841
:100ED000016B21F00F0111D013E0D4E91101084397
:100EE000D4E913121143084321680A6940F2FC73E4
:100EF0009A43104340F001000861E6E7226A521E5F
:100F000011430163E06D20F0020040F00100E06554
:100F100061E70000C0FFFF5FC0FFFF7F1C000020F3
:100F2000400D030000010050000300500000FEFFD0
:100F30000740F0FF7047000010B598B00446142138
:100F400011A8FFF7B9FA44216846FFF7B5FA194925
:100F5000206888422BD1C401400500940F90684658
:100F600000F0DEFA08B1FFF799FB1348C16C41F4B9
:100F70000051C164C16C01F400511691C16C41F083
:100F80000201C164C06C11A900F002001690032098
:100F9000CDE9114000201390084800F095F8002298
:100FA0001146122000F024FA122000F013FA18B0B3
:100FB00010BD000000010050001002400004004875
:100FC00010B590F8253000210122022B03D0042116
:100FD000C163012122E003681C6824F00E041C6038
:100FE000836C1C6824F480741C6003681C6824F003
:100FF00001041C6090F84430046C03F01F0302FAF3
:1010000003F36360D0E913345C60436D33B11C6853
:1010100024F480741C60D0E916345C6080F82520CC
:10102000002280F82420084610BD70B590F82520D5
:10103000002401212346022A07D00422C26380F83B
:10104000251080F82430012429E00268156825F075
:101050000E0515600268156825F001051560826CA3
:10106000156825F48075156090F84420056C02F031
:101070001F0201FA02F26A60D0E913255560426D41
:1010800032B1156825F480751560D0E916255560D4
:1010900080F8251080F82430816B01B18847204604
:1010A00070BD000070B5044600F03CF90546601CB8
:1010B00002D004484068044400F034F9401BA042C8
:1010C000FAD370BD100000202DE9F04FDFF8209218
:1010D000002301260324A9F1040B85B00F2709F191
:1010E000040AABF1040EFAE006FA03F52A407CD0BC
:1010F00091F804C00CF0030CBCF1010F02D0BCF15C
:10110000020F26D1D0F808C0CDF800C04FEA430C3A
:1011100004FA0CF8CDF810C0DDF800C02CEA080C79
:10112000CDF800C0D1F80C80DDF810C008FA0CF83A
:10113000DDF800C048EA0C08C0F80880D0F804C008
:101140002CEA050C0D79C5F300159D4045EA0C0508
:1011500045600D79ED43AD070ED0C5684FEA4308F1
:1011600004FA08FC25EA0C05D1F808C00CFA08FCC2
:101170004CEA050CC0F80CC00D7905F00305022DF2
:1011800016D1DD0800EB850CCDF808C0DCF8208016
:101190005D074FEAD56C07FA0CF528EA05080D69DA
:1011A00005FA0CF5DDF808C045EA0805CCF8205032
:1011B00005684FEA430CCDF808C004FA0CFC25EA98
:1011C0000C0591F804C00CF00308DDF808C008FA1B
:1011D0000CF848EA0508C0F800804D6815F4403F57
:1011E0007CD0444DD5F860C000E077E04CF0010CB5
:1011F000C5F860C02D6E23F0030C05F001050095C5
:101200003D4D65440295AD684FEA837C4FEA1C78FA
:1012100007FA08FC25EA0C05B0F1904F06D0DFF87C
:10122000DCC0604505D14FF0010C20E04FF0000C10
:101230001DE0DFF8CCC0604502D14FF0020C16E093
:10124000DFF8C0C0604502D14FF0030C0FE0DFF8BB
:10125000B8C0604502D14FF0040C08E0DFF8ACC024
:10126000604502D14FF0050C01E04FF0060C0CFA7E
:1012700008FC4CEA050C029DC5F808C0D9F80050DE
:10128000CC46D1F8048095435FEAC82800D51543C1
:10129000CCF80050DAF80050D446D1F804809543D9
:1012A0005FEA882800D51543CCF80050DBF80050E1
:1012B000DC46D1F8048095435FEA883800D51543B1
:1012C000CCF80050DEF80050F446D1F80480954385
:1012D0005FEAC83800D51543CCF800505B1C0A689B
:1012E00032FA03F57FF400AF05B0BDE8F08F0000DF
:1012F00008040140001002400000014000040048C2
:1013000000080048000C0048001000480014004885
:101310000069084000D0012070470AB18161704720
:10132000816270470148806870470000100000200B
:1013300002488168426811448160704710000020B3
:1013400010B50024032000F073F80F2000F008F817
:1013500008B1012401E000F025F8204610BD00008E
:1013600070B50E4E05460024706898B14FF47A713E
:10137000B1FBF0F00A490968B1FBF0F000F060FD44
:1013800040B9102D06D200222946501E00F030F838
:10139000356000E00124204670BD000010000020F0
:1013A0001C0000200A4882B0016E41F00101016674
:1013B000016E01F001010091816D41F08051816564
:1013C000806D00F08050009002B000F0A1B80000E5
:1013D00000100240002809DB00F01F0201219140AB
:1013E0004009800000F1E020C0F8001170470000C3
:1013F000F0B40E4B1B680C46C3F30223C3F1070580
:10140000042D00D90425191D072901D2002300E06D
:10141000DB1E012606FA05F1491E214099409E4037
:10142000761E16403143F0BC02F053BB0CED00E0D9
:10143000064900F0070208684FF6FF03184040EA2B
:101440000220034A10430860704700000CED00E0E2
:101450000000FA052B492C4B0A6832214A432B49DC
:1014600040B1B0F5007F086829D020F4C06040F496
:1014700080602CE00868C0F34120022804D051F8B5
:10148000800F20F4807022E0D1F8800020F480707A
:10149000C1F88000086820F4C06040F40070086063
:1014A000B2FBF3F0401C00E0401E4A69520501D532
:1014B0000028F9D1486940050AD503207047C0F3D8
:1014C0004120022806D051F8800F40F48070086057
:1014D00000207047D1F8800040F48070C1F880008F
:1014E000086820F4C06040F400700860B2FBF3F0BC
:1014F000401C00E0401E4A695205DBD50028F9D1A6
:10150000D8E700001C00002040420F00007000409F
:101510000248816841F4804181607047007000405A
:101520002DE9F8430446006800269D4D00035ED572
:10153000A86D0027C00008D4A86D40F08050A865B1
:10154000A86D012700F080500090DFF85892D9F87C
:10155000001041F48071C9F80010FFF7E3FE8046E7
:1015600006E000BFFFF7DEFEA0EB080002282BD844
:10157000D9F80000C005F5D5D5F8900010F44070FA
:1015800014D0216C814211D0D5F89000D5F890107C
:1015900020F4407041F48031C5F89010D5F89010D7
:1015A00021F48031C5F89010C5F89000C00711D023
:1015B000FFF7B8FE804641F2883907E0FFF7B2FE38
:1015C000A0EB0801494501D903260BE0D5F89000AE
:1015D0008007F3D5D5F89000216C20F440700843C3
:1015E000C5F890001FB1A86D20F08050A865207844
:1015F000C00707D0D5F88800616820F003000843D1
:10160000C5F888002078800707D5D5F88800A1683C
:1016100020F00C000843C5F888002078400707D563
:10162000D5F88800E16820F030000843C5F888004C
:101630002078000707D5D5F88800216920F0C00080
:101640000843C5F888002078800607D5D5F88800BB
:10165000616920F440600843C5F88800207840069E
:1016600007D5D5F88800A16920F440500843C5F893
:1016700088002078000607D5D5F88800E16920F4B5
:1016800040400843C5F888002088C00507D5D5F834
:101690008800216A20F440300843C5F8880020887B
:1016A000800507D5D5F88800616A20F440200843FA
:1016B000C5F88800208840050FD5D5F88800A16AB4
:1016C00020F440100843C5F88800A06AB0F5801FD8
:1016D00003D1E86840F48010E860208800050FD549
:1016E000D5F88800E16A20F440000843C5F8880076
:1016F000E06AB0F5800F03D1E86840F48010E8603C
:101700002088C0040FD5D5F88800216B20F04070E8
:101710000843C5F88800206BB0F1807F03D1E868EA
:1017200040F48010E86020884FF0006180040ED5FE
:10173000D5F88800626B20F040601043C5F888003F
:10174000606B884203D1E86840F48010E86020882C
:1017500040040ED5D5F88800A26B20F040601043FD
:10176000C5F88800A06B884203D1E86840F4801077
:10177000E860208800040FD5D5F88800E16B20F0E0
:1017800040500843C5F88800E06BB0F1805F03D19A
:10179000E86840F48030E8603046BDE8F883000037
:1017A00000100240007000402DE9F0470E46050091
:1017B0004FF0000725D0DFF8AC81D8F8000000F02A
:1017C0000F00B0420CD2D8F8001021F00F013143C5
:1017D000C8F80010D8F8000000F00F00B04210D197
:1017E0002968614CC80741F2883A5AD06868DFF826
:1017F0007C91032808D0022820682DD040050028BD
:101800002CDB0120BDE8F08720688001F9D5E06875
:1018100000F00302E068C0F30310401C032A19D053
:10182000534A00BFB2FBF0F0E268C2F30622504315
:10183000E268C2F34162521C5200B0FBF2F048452C
:1018400017D9A06810F0F00F0CD0880711D5A86840
:1018500040B10EE0474AE5E78003D0E700F0B6F874
:10186000484506D9A06820F0F00040F08000A06054
:101870008027A068696820F003000843A060FFF794
:1018800051FD814606E000BFFFF74CFDA0EB0901CA
:1018900051453AD8A068696800F00C00B0EB810FA0
:1018A000F2D12868810714D5400703D5A06840F419
:1018B000E060A0602878000705D5A06820F460509B
:1018C00040F4E060A060A068A96820F0F000084340
:1018D00004E0802F03D1A06820F0F000A060D8F8C9
:1018E0000010404601F00F01B14216D9016821F005
:1018F0000F0131430160FFF715FD074607E000BF08
:10190000FFF710FDC11B514501D903207AE7D8F834
:10191000000000F00F00B042F2D12878400705D552
:10192000A068E96820F4E0600843A0602878000718
:1019300006D5A068296920F4605040EAC100A06083
:1019400000F044F8A1680C4AC1F30311515C01F0A6
:101950001F01C8400949086009480068BDE8F04710
:10196000FFF7FEBC002002400010024000B4C40497
:101970000024F40000366E019A3D00081C0000208F
:10198000100000200548064900688968054AC1F32F
:101990000221515C01F01F01C84070471C0000206B
:1019A00000100240AA3D0008054806490068896801
:1019B000054AC1F3C221515C01F01F01C8407047C4
:1019C0001C00002000100240AA3D0008184910B574
:1019D0008868C0F381021748012A0BD08A68164B29
:1019E000C2F38102022A06D08A68C2F38102032A66
:1019F00003D0002010BD184610BDCA6802F00304D1
:101A0000CA68C2F30312521C032C02D0B0FBF2F0DE
:101A100001E0B3FBF2F0CA68C968C2F30622504382
:101A2000C1F34161491C4900B0FBF1F010BD000059
:101A3000001002400024F40000366E012DE9F84346
:101A400004007AD02078F84DC00747D0A868E9682C
:101A500000F00C0001F003010C2802D0082817D078
:101A600001E0032914D06068B0F5803F17D0B0F5CD
:101A7000A02F286817D020F480302860286820F430
:101A8000802028606068E0B1FFF74CFC064614E057
:101A90002868800322D560680028D2D01EE028681C
:101AA00040F48030EDE740F480202860F7E700BF85
:101AB000FFF738FC801B642870D828688003F7D5AE
:101AC0000CE0FFF72FFC064605E000BFFFF72AFCFD
:101AD000801B6428F0D828688003F7D4207880071A
:101AE0004CD5A868E96800F00C0001F003010C284F
:101AF00002D004280DD001E002290AD0E0680028B5
:101B000028682BD040F480702860FFF70BFC064655
:101B100019E02868400502D5E068002891D068687F
:101B2000217C20F0FE4040EA01606860BF48006808
:101B3000FFF716FC002800D120E072E1FFF7F2FB6E
:101B4000801B0228B8D828684005F7D56868217C32
:101B500020F0FE4040EA016068600FE020F48070F1
:101B60002860FFF7DFFB064605E000BFFFF7DAFB62
:101B7000801B0228A0D828684005F7D420780007E9
:101B800029D560690028D5F8940013D040F00100F1
:101B9000C5F89400FFF7C6FB064606E090E000BFDC
:101BA000FFF7C0FB801B022886D8D5F89400800779
:101BB000F6D510E020F00100C5F89400FFF7B2FB65
:101BC000064604E0FFF7AEFB801B022878D8D5F864
:101BD00094008007F6D42078400761D5A86D0026D0
:101BE000C00008D4A86D40F08050A865A86D0126FB
:101BF00000F0805000908E480168C90511D401683A
:101C0000804641F480710160FFF78CFB074604E0D9
:101C1000FFF788FBC01B022852D8D8F80000C00587
:101C2000F6D5A068012815D00528D5F8900016D063
:101C300020F00100C5F89000D5F8900020F00400D5
:101C4000C5F89000A06841F28838B8B1FFF76AFB88
:101C500007460EE0D5F8900040F00100F0E740F0B4
:101C60000400C5F89000F5E7FFF75CFBC11B414598
:101C700026D8D5F890008007F6D50CE0FFF752FB88
:101C8000074604E0FFF74EFBC11B414518D8D5F8C5
:101C900090008007F6D41EB1A86D20F08050A86592
:101CA0002078800629D5A0690028D5F8980013D09F
:101CB00040F00100C5F89800FFF734FB064606E047
:101CC00075E000BFFFF72EFB801B02286FD8D5F808
:101CD00098008007F6D510E020F00100C5F89800C4
:101CE000FFF720FB064604E0FFF71CFB801B0228E1
:101CF0005DD8D5F898008007F6D4E069F0B3A968FC
:101D0000C1F3810103295DD00228286820F080708A
:101D1000286003D0FFF706FB04464BE0FFF702FB09
:101D2000064604E0FFF7FEFA801B02283FD8286829
:101D30008001F7D4F4E908016FF00F0202EB011102
:101D40000843218A5204490802EB4151A26841EA42
:101D500002210843217D4FF07E42490802EB416198
:101D60000843217B40EAC160E968324A11400843D8
:101D7000E860286840F08070286000E05EE0E86875
:101D800040F08070E860FFF7CDFA044605E000BF40
:101D9000FFF7C8FA001B022809D828688001F7D588
:101DA0004CE000BFFFF7BEFA001B022802D9032057
:101DB000BDE8F88328688001F4D4E8681E4908402B
:101DC000E8603BE00128F3D0E868226A00F00301F4
:101DD000914226D1616A00F0F00209011039914266
:101DE0001FD1A26A00F4FE41B1EB022F19D194F881
:101DF0002C2000F07841B1EBC26F12D1218E00F49B
:101E0000C00249084905A1F50011914209D194F891
:101E1000341000F0C06049084906A1F10071814208
:101E20000CD00120C4E70000001002401000002088
:101E3000007000400C809F01FCFFEEFE0020B7E721
:101E400010B5401EB0F1807F01D3012010BD4FF0CE
:101E5000E02460610F21601701F03BFE0020A061CB
:101E600007202061002010BD90F88410012918D0AF
:101E7000012180F884102421C0F8881001680A68C4
:101E80000B6823F001030B6022F000510022426630
:101E9000036819602021C0F8881080F8842010465B
:101EA0007047022070477047704770B5044690F83D
:101EB000840001281DD0012084F884002420C4F867
:101EC000880020680568026822F00102026020682C
:101ED000826822F060620A438260204601F06EF858
:101EE000206805602020C4F88800002084F8840061
:101EF00070BD022070BD70B5044690F884000128C2
:101F00001DD0012084F884002420C4F888002068B3
:101F10000568026822F0010202602068826822F0EF
:101F200060420A438260204601F048F8206805605C
:101F30002020C4F88800002084F8840070BD0220AE
:101F400070BD7047704770472DE9F0410368044643
:101F5000D86919689A6840F60F0528424FF00005C5
:101F60004FF002060AD187067ED501F0200702F065
:101F7000805C57EA0C0777D0616F3AE1B24FDFF827
:101F8000CCC2174001EA0C0C57EA0C0C6CD05FEA8B
:101F9000C07C0CD05FEAC15C09D54FF0010CC3F8DE
:101FA00020C0D4F8903043F00103C4F89030830788
:101FB00009D5D30707D023681E62D4F8903043F0C8
:101FC0000403C4F8903043070AD5D30708D0266825
:101FD00004233362D4F8903043F00203C4F8903005
:101FE00003070CD501F020033B4308D026680823E3
:101FF0003362D4F8903043F00803C4F890300305FE
:102000000BD54B0109D526684FF400633362D4F831
:10201000903043F02003C4F89030D4F89030002B77
:102020003DD0800609D501F0200002F08051084320
:1020300003D0616F09B120468847D4F89000216829
:102040008968490602D410F0280F2AD0204601F0F2
:102050009BF82068806840061ED52068083050E84C
:10206000001F21F0400100E021E040E80012002ABA
:10207000F3D1D4F8800078B175498163D4F8800039
:10208000FEF7D3FF00280AD0D4F88000816B00E06F
:102090002046BDE8F04108472046FFF754FFBDE861
:1020A000F0812046FFF74FFFC4F89050F7E7D4F8CF
:1020B0006CC02027BCF1010F7ED15FEAC06C7BD5DC
:1020C0005FEAC16C78D510201862206880684006ED
:1020D00045D5D4F88010086840680004000CDED0B4
:1020E000B4F85C208242DAD9A4F85E00086800687F
:1020F00080062CD4216851E8000F20F4807041E85C
:102100000002002AF6D12068083050E8001F21F0B4
:10211000010140E80012002AF5D12068083050E89B
:10212000001F21F0400140E80012002AF5D1C4F858
:102130008C70E566206850E8001F21F0100140E82F
:102140000012002AF6D1D4F88000FEF739FF266786
:10215000B4F85C00B4F85E10401A81B230E0B4F814
:102160005C00B4F85E10401A81B2B4F85E0000283A
:1021700095D0002993D0226852E8000F20F4907087
:1021800042E80003002BF6D12F4BDB4320680830D8
:1021900050E8002F1A4040E8002CBCF1000FF5D1A8
:1021A000C4F88C70E5666567226852E8000F20F07D
:1021B000100042E8000300E006E0002BF4D126679F
:1021C0002046FFF770FE6AE7C60209D5560207D51A
:1021D0004FF4801018622046BDE8F041FFF7B2BE10
:1021E00003060AD501F0800302F40002134304D071
:1021F000A16F00297FF44CAF51E7420611D54A0682
:102200000FD52046026852E8001F21F0400142E845
:102210000013002BF6D1C0F88870856700F0F0F845
:102220003DE7020206D54A0004D52046BDE8F0414C
:10223000FFF787BEC001C6D50029C4DA2046BDE835
:10224000F041FFF731BE0000010000102001000442
:102250007531000810B5040003D0D4F8880010B11F
:1022600007E0012010BD002084F88400204600F023
:1022700027F82420C4F888002068016821F00101B3
:102280000160A06A10B1204600F0BAFE204601F0BD
:102290000DFA0128E6D02068416821F490414160A0
:1022A0002068816821F02A0181602068016841F07E
:1022B000010101602046BDE8104000F005BF0000AC
:1022C00010B598B00446142111A8FEF7F5F8442182
:1022D0006846FEF7F1F81B492068884230D101209A
:1022E0000024CDE900046846FFF71AF908B1FEF7AB
:1022F000D5F91548016E41F480410166016E01F483
:1023000080411691C16C41F00101C164C06C11A9FA
:1023100000F0010016904FF4C06011900220CDE94A
:1023200012040720CDE914404FF09040FEF7CCFE98
:10233000002211462520FFF75BF82520FFF74AF819
:1023400018B010BD003801400010024030B4D0F881
:102350008C30202B02D0022030BC7047A9B1A2B132
:102360000023C3660A4C0368A3420BD05B681B02C0
:1023700008D5046854E8003F43F0806344E8003522
:10238000002DF6D130BC01F0CBBA0120E4E700000B
:10239000008000400B4810B5407958280FD00AA1A2
:1023A0000F48FEF705F80E49602000F0B1F9054925
:1023B0000122BDE81040491D0A48FFF7C7BF0AA126
:1023C000EEE70000000000202020202020202045F3
:1023D00052524F5220202020202020202000000098
:1023E00028000020AC000020202020202020554183
:1023F0005254205445535420202020202000000017
:102400007047FEE700B585B014216846FEF754F822
:10241000C0200090012001900290022003906946A4
:102420000248FEF751FE05B000BD00000004004860
:1024300070B50824002500F049FD13E06806050E7C
:10244000002000F02BFD142001F053FB142001F0BC
:1024500050FB012000F022FD142001F04AFB00F0A7
:1024600029FD0543641EE4B2E8D2002000F016FD09
:10247000142001F03EFB00F04BFD284670BD10B566
:10248000002000F039FD142001F033FB142001F08E
:1024900030FB012000F002FD142001F02AFB002097
:1024A00000F0FCFCBDE81040142001F022BB70B528
:1024B0000446082516E000F0F1FC142001F019FB99
:1024C00004F0800000F018FD142001F012FB6006FB
:1024D000040E142001F00DFB012000F0DFFC14209D
:1024E00001F007FB6D1EEDB24FF00000E3D200F0EB
:1024F000D5FCBDE87040142001F0FBBA10B50120F6
:1025000000F0FAFC142001F0F4FA142001F0F1FAC2
:10251000012000F0C3FC142001F0EBFA002000F0D1
:10252000BDFCBDE81040142001F0E3BA10B5012055
:1025300000F0E2FC142001F0DCFA012000F0AEFC17
:10254000142001F0D6FA002000F0D6FC142001F08F
:10255000D0FA002000F0A2FCBDE81040142001F0E9
:10256000C8BA10B5002000F099FC142001F0C1FA9F
:10257000002000F0C1FC142001F0BBFA012000F0A3
:102580008DFC142001F0B5FA012000F0B5FCBDE887
:102590001040142001F0ADBA10B5052400F096FCEF
:1025A000142001F0A6FA012000F078FC142001F0BC
:1025B000A0FA05E0641EA4B2142001F09AFA64B1F6
:1025C00000F078FC0028F5D100F068FC142001F040
:1025D00090FA00F09DFC002010BD00F099FCFFF780
:1025E000C0FF012010BD000000B585B01421684671
:1025F000FDF762FF4FF6FF70009000200321CDE948
:102600000201019069460248FEF75EFD05B000BD7B
:102610000008004800B585B014216846FDF74CFF5E
:102620004FF6FF70009001200190032003900020DE
:10263000029069460248FEF747FD05B000BD000064
:102640000008004870B5002406462146204600F0E8
:1026500003F900F041F94FF49635304600F010F9D7
:10266000641CAC42F9D370BD30B587B01421684604
:10267000FDF722FF1E48C16C41F00401C164C16C2A
:1026800001F004010591C16C41F00101C164C16C0C
:1026900001F001010591C16C41F00201C164C06CFF
:1026A000012500F0020005904FF44870CDE90005C7
:1026B00000240394694602940E48FEF705FD2802A3
:1026C00003940090CDE901544FF0904469462046B0
:1026D000FEF7FAFCFFF79EFFA06940F48070A0614E
:1026E00004481830016841F40871016007B030BD3A
:1026F0000010024000040048203AD2B2034B02EB23
:10270000420203EB021200F019B80000B23D0008CB
:10271000F0B50E460746002540F23F1407E021467B
:102720003846FFF7E9FF103C6D1CA4B2761C3278E6
:10273000002A01D0142DF2D3F0BD00002DE9F0479E
:1027400091468A460026044600F086F8DFF840806D
:10275000012700BF00F0C0F85FF0000539F816004F
:1027600007FA05F10842404601D1408800E00088A0
:1027700000F086F86D1C102DF0D3641CE4B25146B5
:10278000204600F069F8761C182EE3D3BDE8F087E8
:102790002000002010B5FFF767FF002000F014F8BC
:1027A000084CA080A088A0F50241303906D000F086
:1027B00073FA002000F008F8A08010BD00F0E3F9E3
:1027C000F7E700002000002070B51D490A6842F4B8
:1027D00000720A600A6842F480720A60184C103C69
:1027E000226842F020022260164A1060086840F019
:1027F0002000086000BF00BF00BF206840F020003C
:102800002060206840F480702060FFF7EDFE4FF0FC
:102810009041886A40F48070886200BF00BF00BFAA
:102820000848001F006885B2886940F4807088619C
:10283000FFF7F0FE206840F400702060284670BD6D
:10284000280400481408004801B5BDF800000149FB
:10285000488008BD2000002010B50C46014620200D
:1028600000F068F82146BDE81040212000F062B871
:1028700001B5BDF800000149088008BD2000002016
:10288000134A116841F400711160114910390B6845
:1028900043F480730B600B6843F020030B600D4B17
:1028A0001860106840F02000106000BF00BF00BF3B
:1028B000086840F020000860086840F480700860F4
:1028C00000BF00BF00BF086840F400700860704798
:1028D00028040048140800481449086840F40070AF
:1028E0000860086840F4807008601048103802687A
:1028F00042F0200202600E4B22221A600A6842F067
:1029000020020A6000BF00BF00BF016841F0200143
:102910000160016841F48071016000BF00BF00BF29
:10292000016841F40071016070470000280400480C
:1029300014080048184B10B51A6842F400721A6067
:102940001A6842F480721A60134A103A146844F00C
:1029500020041460114C2060186840F020001860BA
:1029600000BF00BF00BF106840F02000106010687A
:1029700040F4807010602160186840F020001860FA
:1029800000BF00BF00BF106840F02000106010685A
:1029900040F48070106010BD2804004814080048FE
:1029A00000EB8100006E00F0F84070478068C0F3D3
:1029B000C00070478068C0F380007047C06810F4A2
:1029C000406F01D00020704701207047042303EAC4
:1029D000D15310B518444369C1F3045107248C4006
:1029E000A3438A401343436110BD00EB8100016E95
:1029F00021F00041114301667047000030B589B0F5
:102A000020216846FDF758FD194818490024016047
:102A10008902C0E90114C46004250461C0E90545C8
:102A2000047744770121016280F82440C462046382
:102A300080F83840C46380F84040FEF781F908B15F
:102A4000FDF72CFE0B480090062001900720029015
:102A50007F200594CDE9030569460548FDF726FE6C
:102A6000002801D0FDF71AFE09B030BD000100506A
:102A7000400000200080F03E70B586B0142168460A
:102A8000FDF71AFD2148C16C41F02001C164C16C01
:102A900001F020010591C16C41F00101C164C16CDC
:102AA00001F001010591C16C41F00201C164C16CEA
:102AB00001F002010591C16C41F00801C164C06CD4
:102AC000134E00F008000590002204213046FEF766
:102AD00024FC00240125CDE9005469464FF09040C4
:102AE0000294FEF7F1FA0720CDE90004694609488F
:102AF0000294FEF7E9FA04200090CDE901546946FA
:102B000030460394FEF7E0FA06B070BD00100240B4
:102B1000000C004800040048184810B51649016030
:102B20004FF416514160002181600C22C160C0E960
:102B300004128161C161016241628162FFF78AFB17
:102B400008B1FDF7ABFD00210C48FFF7D4F908B13F
:102B5000FDF7A4FD00210948FFF7A7F908B1FDF72B
:102B60009DFD0648FFF780F9002803D0BDE810401E
:102B7000FDF794BD10BD000000380140AC000020FE
:102B8000FEE7FEE7704730B501210020FFF7D2FED7
:102B90004FF47A70FDF774FD00210120FFF7CAFEA3
:102BA00041F290711020FFF7C5FE4FF41C516020D8
:102BB000FFF7C0FE01216120FFF7BCFE0221462085
:102BC000FFF7B8FE48F210011320FFF7B3FE48F2FA
:102BD000FE011220FFF7AEFE4FF4A0610220FFF7C6
:102BE000A9FE41F230010320FFF7A4FE40F20334B6
:102BF00021463020FFF79EFE21463120FFF79AFE46
:102C000021463220FFF796FEE51E29463320FFF7C6
:102C100091FE03213420FFF78DFE21463520FFF77A
:102C200089FE14213620FFF785FE21463720FFF765
:102C300081FE21463820FFF77DFE21463920FFF72F
:102C400079FE29463A20FFF775FE03213B20FFF766
:102C500071FE21463C20FFF76DFE4FF4A0513D2050
:102C6000FFF768FE4FF400719220FFF763FE2146E4
:102C70009320FFF75FFE40F60D019020FFF75AFE0C
:102C800041F218010320FFF755FEBDE8304040F245
:102C900073110720FFF74EBE10B543F20801E32081
:102CA000FFF748FE1221E720FFF744FE41F23121F1
:102CB000EF20FFF73FFE00210120FFF73BFE4FF41E
:102CC000E0610220FFF736FE41F230010320FFF7FA
:102CD00031FE00210420FFF72DFE40F207210820DD
:102CE000FFF728FE00210920FFF724FE00210A201B
:102CF000FFF720FE00210C20FFF71CFE00210D2015
:102D0000FFF718FE00210F20FFF714FE002110200E
:102D1000FFF710FE07211120FFF70CFE0021122003
:102D2000FFF708FE00211320FFF704FEC820FEF77E
:102D3000B9F941F290611020FFF7FCFD40F2272124
:102D40001120FFF7F7FD3220FEF7ACF91D2112200C
:102D5000FFF7F0FD3220FEF7A5F94FF400611320D4
:102D6000FFF7E8FD14212920FFF7E4FD0B212B20BC
:102D7000FFF7E0FD3220FEF795F900212020FFF754
:102D8000D9FD00212120FFF7D5FD07213020FFF7D5
:102D9000D1FD40F207713120FFF7CCFD0621322032
:102DA000FFF7C8FD40F204713520FFF7C3FD41F67F
:102DB00004713620FFF7BEFD04213720FFF7BAFD6E
:102DC00000213820FFF7B6FD40F206713920FFF7E9
:102DD000B1FD40F201713C20FFF7ACFD0F213D2019
:102DE000FFF7A8FD00215020FFF7A4FDEF2151209F
:102DF000FFF7A0FD00215220FFF79CFD40F23F119C
:102E00005320FFF797FD4FF41C516020FFF792FD10
:102E100001216120FFF78EFD00216A20FFF78AFD66
:102E200000218020FFF786FD00218120FFF782FD31
:102E300000218220FFF77EFD00218320FFF77AFD2D
:102E400000218420FFF776FD00218520FFF772FD29
:102E500010219020FFF76EFD00219220FFF76AFD00
:102E600003219320FFF766FD4FF488719520FFF74B
:102E700061FD00219720FFF75DFD00219820FFF7FD
:102E800059FD41F218010320FFF754FDBDE8104041
:102E900040F273110720FFF74DBD000008B1044850
:102EA00001E003481030016841F0400101607047C3
:102EB0001804004810B580210348FEF729FA0128BC
:102EC00000D0002010BD00000004004800B585B00F
:102ED00014216846FDF7F0FA802000900020019050
:102EE000012002900220039069460248FEF7ECF8A8
:102EF00005B000BD0004004808B1044801E00348E3
:102F00001030016841F080010160704718040048EA
:102F100000B585B014216846FDF7CEFA80200090F8
:102F2000112001900020029002200390694602487F
:102F3000FEF7CAF805B000BD000400487047FEF770
:102F4000F7B900B593B038216846FDF7B5FA1421FA
:102F50000EA8FDF7B1FA4FF40070FEF77BFA0220DD
:102F6000C101039140210491009007900890142121
:102F7000CDE909010B900C900D906846FEF75EFDBF
:102F800008B172B6FEE70F200E9003200F900020CC
:102F900010901190129002210EA8FEF705FC002857
:102FA00001D072B6FEE713B000BD00000248016810
:102FB00041F470010160704788ED00E030B5416E6A
:102FC000B9B1026891689268C1F342610B4B520F2C
:102FD0009C5CE50003F10804A25CB5FBF2F2A0F8EA
:102FE0006A205A5C615CD200B2FBF1F1A0F8681073
:102FF00030BD0121A0F86A10F8E700008A3D000802
:1030000090F82810090706D501684A68836B22F4F6
:1030100000421A434A6090F82810C90706D0016898
:103020004A68C36A22F400321A434A6090F82810B2
:10303000890706D501684A68036B22F480321A4377
:103040004A6090F82810490706D501684A68436B22
:1030500022F480221A434A6090F82810C90606D547
:1030600001688A68C36B22F480521A438A6090F820
:103070002810890606D501688A68036C22F400527C
:103080001A438A6090F82810490611D501684A68E9
:10309000436C22F480121A434A60416CB1F5801FE0
:1030A00006D101684A68836C22F4C0021A434A6060
:1030B00090F82810090606D501684A68C06C22F409
:1030C000002202434A6070472DE9F8430026044677
:1030D000C0F89060FEF726F98046206800684FF03F
:1030E000200500076FF07E4713D5434600222904D0
:1030F0002046009700F09CFC58B1216851E8000F71
:1031000020F0800041E80002002AF6D1C4F888507F
:1031100021E020680068400722D5434600224FF492
:1031200080012046009700F083FCC8B1216851E877
:10313000000F20F4907041E80002002AF6D12068C8
:10314000083050E8001F21F0010140E80012002A79
:10315000F5D1C4F88C5084F884600320BDE8F8836E
:10316000C4F88850C4F88C5044F86C6F66602676BA
:103170000020F3E710B5806A0021A0F85E10A0F8E7
:103180005610FEF7E0FE10BD10B5026852E8001FB1
:1031900021F4907142E80013002BF6D10E4B026827
:1031A000083252E8001F194042E80014002CF6D102
:1031B000C16E012908D1016851E8002F22F01002E8
:1031C00041E80023002BF6D12021C0F88C1000210B
:1031D000C166416710BD0000FEFFFFEF10B5B0F8FB
:1031E0006020D0F88C300168222B04D0886940F030
:1031F0000800886110BD496A836D11401980816D96
:10320000891C8165B0F85E10491EA0F85E10B0F808
:103210005E100029EED1026852E8001F21F490717F
:1032200042E80013002BF6D10168083151E8002F65
:1032300022F0010241E80023002BF5D12021C0F843
:103240008C10002141670167154B02689A420BD030
:103250005268120208D5036853E8002F22F08062FA
:1032600043E80024002CF6D1C26E012A02D0FFF7F9
:1032700091F810BDC166026852E8001F21F01001EC
:1032800042E80013002BF6D10168CA69D243D20686
:1032900001D410220A62B0F85C10FEF704FE10BDE3
:1032A000008000402DE9F0470446B0F860600068F7
:1032B000C569D0F800A0D0F80880D4F88C10222975
:1032C00005D0816941F008018161BDE8F087B4F85B
:1032D00068704FF0000975E02068406AA16D3040C9
:1032E0000880A06D801CA065B4F85E00401EA4F8A4
:1032F0005E002068C569690730D0E9070AD05FEA37
:10330000CA5107D501210162D4F8900040F00100B4
:10331000C4F89000A8070BD55FEAC87008D02168F0
:1033200002200862D4F8900040F00400C4F8900035
:1033300068070BD55FEAC87008D0216804200862CE
:10334000D4F8900040F00200C4F89000D4F8900047
:1033500020B12046FEF7F7FDC4F89090B4F85E0067
:1033600080BB216851E8000F20F4807041E8000222
:10337000002AF6D1304A2068083050E8001F11407A
:1033800040E80013002BF6D12020C4F88C00C4F8CC
:1033900074904946C4F87090284A206890420BD037
:1033A0004068000208D5226852E8000F20F08063D0
:1033B00042E800300028F6D1E06E012825D02046F2
:1033C000FEF7E8FF0FB1A80686D4B4F85E00002827
:1033D0003FF47BAFB4F8681081427FF676AF206887
:1033E000083050E8001F21F0805140E80012002A08
:1033F000F5D113486067216851E8000F40F02000C4
:1034000041E80002002AF6D15FE7E166216851E851
:10341000000F20F0100041E80002002AF6D12068D9
:10342000C169C943C90601D410210162B4F85C1016
:103430002046FEF738FDC5E7FEFFFFEF00800040A5
:10344000DD31000810B5B0F86020D0F88C3001688C
:10345000222B04D0886940F00800886110BD496AB9
:103460001140826D1170816D491C8165B0F85E104C
:10347000491EA0F85E10B0F85E100029EED1016878
:1034800051E8002F22F4907241E80023002BF6D17E
:103490000168083151E8002F22F0010241E80023C1
:1034A000002BF5D12021C0F88C1000214167016765
:1034B000154B02689A420BD05268120208D5036875
:1034C00053E8002F22F0806243E80024002CF6D15C
:1034D000C26E012A02D0FEF75DFF10BDC166026810
:1034E00052E8001F21F0100142E80013002BF6D132
:1034F0000168CA69D243D20601D410220A62B0F828
:103500005C10FEF7D0FC10BD008000402DE9F047B4
:103510000446B0F860600068C569D0F800A0D0F833
:103520000880D4F88C10222905D0816941F0080167
:103530008161BDE8F087B4F868704FF0000975E06C
:103540002068406AA16D30400870A06D401CA065E5
:10355000B4F85E00401EA4F85E002068C5696907E3
:1035600030D0E9070AD05FEACA5107D501210162CC
:10357000D4F8900040F00100C4F89000A8070BD5E3
:103580005FEAC87008D0216802200862D4F8900071
:1035900040F00400C4F8900068070BD55FEAC870DB
:1035A00008D0216804200862D4F8900040F002009E
:1035B000C4F89000D4F8900020B12046FEF7C3FC78
:1035C000C4F89090B4F85E0080BB216851E8000F09
:1035D00020F4807041E80002002AF6D1304A2068C9
:1035E000083050E8001F114040E80013002BF6D1CE
:1035F0002020C4F88C00C4F874904A46C4F8709037
:103600002849206888420BD04068000208D521680C
:1036100051E8000F20F0806041E80003002BF6D154
:10362000E06E012825D02046FEF7B4FE0FB1A806B3
:1036300086D4B4F85E0000283FF47BAFB4F868107D
:1036400081427FF676AF2068083050E8001F21F0F5
:10365000805140E80012002AF5D1134860672068C5
:1036600050E8001F41F0200140E80012002AF6D186
:103670005FE7E266216851E8000F20F0100041E8A2
:103680000002002AF6D12068C169C943C90601D4E5
:1036900010210162B4F85C102046FEF704FCC5E777
:1036A000FEFFFFEF00800040453400082DE9F041A7
:1036B0000446016880682269E36910436269002555
:1036C0001A431043DFF82CC20A688B4B1A4002439E
:1036D0000A6020684168E26821F44051114341606A
:1036E0002168A069614501D0226A10438A68834B32
:1036F0001A4002438A602068C16A626A21F00F01A1
:103700001143C1627E4923687E488B420DD1D0F8B7
:10371000880010F0030006D0012855D0022842D0BE
:1037200003283FD152E001203DE077498B420BD185
:10373000D0F8880010F00C0035D0042833D00828C9
:1037400040D00C282ED141E070498B420BD1D0F8EB
:10375000880010F0300026D0102835D0202831D035
:1037600030281FD132E06A498B420BD1D0F8880053
:1037700010F0C00017D0402826D0802822D0C028C2
:1037800010D123E063450DD1D0F8880010F44060DB
:1037900009D0B0F5806F17D0B0F5006F12D0B0F53A
:1037A000406F13D010205B495B4F00264FF400425E
:1037B00063453BD160B1022813D004280BD0082800
:1037C00072D10DE00220EEE70420ECE70820EAE7E2
:1037D000FEF7D8F801E0FEF7F9F8010001D17CE02E
:1037E0001146606A37F810206768B1FBF2F007EB0A
:1037F0004703834270D8B0EB073F6DD800230846DB
:103800001946FCF75DFD090241EA106102027808E1
:10381000101871413A460023FCF752FD3F4AA0F5CB
:103820004071914258D82168C86056E0E3694FF66C
:10383000EF7893422CD109284ED2DFE800F005083A
:10384000114D0D4D4D4D1000FEF79CF801E0FEF7B7
:10385000ABF8010004D140E0FEF7B8F8F9E71146F3
:10386000606A37F81000B1FBF0F04100606801EBCE
:103870005001B1FBF0F0A0F1100141452CD84FF6FA
:10388000F0710140C0F3420001432068C16024E0B0
:10389000092821D2DFE800F0050912200E2020209F
:1038A0001100FEF76FF802E016E0FEF77DF8010068
:1038B00004D112E0FEF78AF8F9E71146606A37F89A
:1038C0001000B1FBF0F1606801EB5001B1FBF0F0CA
:1038D000A0F1100141450AD901250120A4F86A0090
:1038E00024F8680F2846E6602661BDE8F08180B2C2
:1038F00099E7000000800040F369FFCFFFF4FF115B
:1039000000380140001002400044004000480040E0
:10391000004C00400024F400723D0008FFFC0F0042
:1039200070B58165A0F85C20A0F85E200023436795
:1039300081684FF48056FF24B14204D10169F9B97E
:1039400040F2FF1122E07F25C1B1B1F1805F1AD0B2
:10395000A0F86030C0F890302221C0F88C100168C7
:10396000083151E8003F43F0010341E80034002CE6
:10397000F5D1416EB1F1005F0ED031E0016941B97E
:10398000A0F86040E6E7016919B13F21A0F8601096
:10399000E0E7A0F86050DDE7B0F8681091421FD86A
:1039A0008168B14201D10169B9B11D49416701691D
:1039B00041B1026852E8001F41F4807142E80013EF
:1039C000002BF6D10168083151E8002F42F08052F7
:1039D00041E80023002BF5D120E012494167F1E7CF
:1039E0008168B14201D1016969B10F49416701693B
:1039F00059B1026852E8001F41F4907142E8001387
:103A0000002BF6D10AE009494167026852E8001F1D
:103A100041F0200142E80013002BF6D1002070BDD8
:103A20000D350008A532000845340008DD310008D6
:103A30002DE9F047994617460D4604464FF0000819
:103A4000089E33E0701C31D0FDF76CFCA0EB090040
:103A5000B04218D8BEB120680168490726D5802D2C
:103A600024D0402D22D0C169C94309070DD40825AF
:103A700005622046FFF788FBC4F8905084F88480E4
:103A80000120BDE8F0870320FBE7C069C0430005C3
:103A90000CD421684FF4006008622046FFF774FBE5
:103AA0002020C4F8900084F88480ECE72068C06986
:103AB00035EA000004D00020B842C3D00020E0E77F
:103AC0000120F9E70148FEF73FBA0000AC000020F2
:103AD000FEE70907090E002804DB00F1E02080F86A
:103AE0000014704700F00F0000F1E02080F8141D72
:103AF0007047002100E0491C8142FCD3704770B53B
:103B000015460E460446FEF711FDA020FEF7CFFC39
:103B1000FEF742FD3046FEF7CAFCFEF73DFDFEF71C
:103B200005FDA120FEF7C3FCFEF736FD09E0FEF718
:103B30007FFC04F8010B15B1FEF7A1FC01E0FEF7D4
:103B4000DDFC6D1EEDB2F2D2BDE87040FEF709BD9E
:103B500070B515460E460446FEF7E8FCA020FEF7B9
:103B6000A6FCFEF719FD304602E000BF14F8010B79
:103B7000FEF79DFCFEF710FD6D1EEDB2F6D2FEF7CE
:103B8000F0FCBDE870404FF4FA70FFF7B2BF0000E0
:103B9000184810B50168184CE268891A322928D3F0
:103BA0000068E06000F02AF86070227920EA0201E3
:103BB00042408243E170A2702071012916D002298F
:103BC00017D12078401E2070FEF71CFC0122002136
:103BD0000948FFF7BDFF0120FDF764FA06480122FE
:103BE0000021BDE81040801DFFF789BF2078401CF0
:103BF000E9E710BD180000200000002070B50E4D50
:103C0000002401212846FDF783FB00B9012402218D
:103C10002846FDF77DFB00B9022404212846FDF764
:103C200077FB00B9032401214FF09040FDF770FBB2
:103C300000B90424204670BD0004004810B50F48A8
:103C400001680F4CA268891AB1F5FA7F14D3006895
:103C5000A0600CA11148FCF7ABFB10494820FEF70F
:103C600057FD22780EA10D48FCF7A2FBBDE81040DD
:103C70000A496020FEF74CBD10BD0000180000206E
:103C800000000020202020202020202044415441FA
:103C900020202020202020200000000028000020DC
:103CA0002020202020204E756D6265723A25642008
:103CB0002020200070B5124D044601224FF6FF71FE
:103CC0002846FDF72AFB0F4E012204213046FDF75E
:103CD00024FB002204213046FDF71FFB21020022B5
:103CE0002846FDF71AFB012204213046FDF715FB9B
:103CF0003046BDE8704000220421FDF70EBB0000F5
:103D000000080048000C0048FDF71AFBFFF719F9FE
:103D1000FEF7B2FEFEF772FEFEF7FEFEFEF73AFD7C
:103D20000020FEF78FFC0020FEF78EFD4FF6FF709F
:103D3000FEF79EFD0020FFF7BDFF0122084909485C
:103D4000FEF704FBFEF75EFB054801220021401C44
:103D5000FFF7D5FEFFF772FFFFF71AFFFAE7000043
:103D600005000020AC0000204FF04070E1EE100A8A
:103D70007047010002000400060008000A000C0061
:103D80001000200040008000000101010103070134
:103D90000000080402040801010100000000000006
:103DA00000000102030406070809000000000102E8
:103DB00003040000000000000000000000000000FC
:103DC00000000000000000000000000000000000F3
:103DD00000000000000000000000000000000000E3
:103DE00000000000800180018001800180018001CD
:103DF000800180018001800180018001800100003C
:103E000000008001800100000000000000000000B0
:103E1000000000000000CC00CC00CC00CC00CC00A6
:103E2000CC000000000000000000000000000000C6
:103E30000000000000000000000000000000000082
:103E40000000000000000000000000000000600C06
:103E5000600C600C30063006FE1FFE1F300638076F
:103E60001803FE1FFE1F180318038C018C018C0120
:103E7000000000008000E003F80F9C0E8C1C8C18E2
:103E80008C009800F801E007800E801C8C188C18BC
:103E90009C18B80CF00FE0038000800000000000C8
:103EA00000000000000000000E181B0C110C110691
:103EB0001106110311039B018E01C038C06C6044D0
:103EC0006044304430441844186C0C380000000042
:103ED00000000000E001F003380718061806300360
:103EE000F001F000F8009C310E33061E061C061C83
:103EF000063FFC73F02100000000000000000000FD
:103F00000000000000000C000C000C000C000C0075
:103F10000C00000000000000000000000000000095
:103F20000000000000000000000000000000000091
:103F300000000000000200038001C000C00060001B
:103F400060003000300030003000300030003000C1
:103F5000300060006000C000C0008001000300026B
:103F60000000000020006000C0008001800100030C
:103F70000003000600060006000600060006000614
:103F800000060003000380018001C00060002000E3
:103F90000000000000000000000000000000C00061
:103FA000C000D806F807E001300338070000000021
:103FB0000000000000000000000000000000000001
:103FC0000000000000000000000000000000800170
:103FD0008001800180018001FC3FFC3F8001800165
:103FE000800180018001000000000000000000004E
:103FF00000000000000000000000000000000000C1
:1040000000000000000000000000000000000000B0
:10401000000000008001800100010001800000001C
:104020000000000000000000000000000000000090
:1040300000000000000000000000E007E0070000B2
:104040000000000000000000000000000000000070
:104050000000000000000000000000000000000060
:104060000000000000000000000000000000000050
:1040700000000000C000C0000000000000000000C0
:1040800000000000000C000C000600060006000303
:10409000000300038003800180018001C000C00094
:1040A000C000600060000000000000000000000090
:1040B00000000000E003F007380E180C0C180C1874
:1040C0000C180C180C180C180C180C180C18180CD0
:1040D000380EF007E00300000000000000000000C0
:1040E0000000000000018001C001F001980188017A
:1040F00080018001800180018001800180018001B8
:10410000800180018001000000000000000000002C
:1041100000000000E003F80F180C0C180C18001831
:104120000018000C000600038001C0006000300091
:104130001800FC1FFC1F0000000000000000000031
:1041400000000000E001F807180E0C0C0C0C000C2D
:104150000006C003C007000C001800180C180C184B
:10416000180CF807E0030000000000000000000049
:1041700000000000000C000E000F000F800DC00CAE
:10418000600C600C300C180C0C0CFC3FFC3F000C5D
:10419000000C000C000C00000000000000000000FB
:1041A00000000000F80FF80F180018000C00EC03D6
:1041B000FC071C0E001C0018001800180C181C0C22
:1041C000180EF807E00300000000000000000000E7
:1041D00000000000C007F00F381C181818000C0071
:1041E000CC03EC0F3C0E1C1C0C180C180C18181CE3
:1041F000380EF007E003000000000000000000009F
:1042000000000000FC1FFC1F000C0006000600035D
:1042100080038001C001C000E00060006000700009
:1042200030003000300000000000000000000000FE
:1042300000000000E003F007380E180C180C180CF2
:104240003806F007F007180C0C180C180C180C188E
:10425000380CF80FE0030000000000000000000030
:1042600000000000E003F007380E1C0C0C180C18BE
:104270000C181C1C381EF81BE0190018000C000C50
:104280001C0EF807F0010000000000000000000014
:10429000000000000000000000000000000080019D
:1042A000800100000000000000000000000000008D
:1042B00000008001800100000000000000000000FC
:1042C000000000000000000000000000000080016D
:1042D000800100000000000000000000000000005D
:1042E000000080018001000100018000000000004A
:1042F00000000000000000000000000000000000BE
:1043000000000010001C800FE003F8001800F80007
:10431000E003800F001C00100000000000000000FF
:10432000000000000000000000000000000000008D
:104330000000F81F000000000000F81F000000004F
:10434000000000000000000000000000000000006D
:10435000000000000000000000000000000000005D
:10436000000008003800F001C007001F0018001FFF
:10437000C007F00138000800000000000000000045
:1043800000000000E003F80F180C0C180C180018BF
:10439000000C000600038001C000C000C000000047
:1043A0000000C000C000000000000000000000008D
:1043B000000000000000E00718180420C229224A6B
:1043C000114409440944094409221113E20C024032
:1043D00004201818E00700000000000000000000A2
:1043E0000000000080038003C006C006C006600C09
:1043F000600C301830183018F83FF83F1C700C6013
:104400000C6006C006C000000000000000000000B4
:1044100000000000FC03FC0F0C0C0C180C180C180E
:104420000C0CFC07FC0F0C180C300C300C300C3052
:104430000C18FC1FFC07000000000000000000003A
:1044400000000000C007F01F38381C300C700660F8
:1044500006000600060006000600060006600C7056
:104460001C30F01FE007000000000000000000000A
:1044700000000000FE03FE0F060E061806180630A8
:1044800006300630063006300630063006180618AC
:10449000060EFE0FFE0300000000000000000000FA
:1044A00000000000FC3FFC3F0C000C000C000C0066
:1044B0000C00FC1FFC1F0C000C000C000C000C007E
:1044C0000C00FC3FFC3F000000000000000000006A
:1044D00000000000F83FF83F18001800180018000E
:1044E0001800F81FF81F180018001800180018000E
:1044F0001800180018000000000000000000000074
:1045000000000000E00FF83F3C780E6006E007C0B6
:104510000300030003FE03FE03C007C006C00EC075
:104520003CF0F83FE00F0000000000000000000039
:10453000000000000C300C300C300C300C300C3013
:104540000C30FC3FFC3F0C300C300C300C300C308D
:104550000C300C300C3000000000000000000000A7
:104560000000000080018001800180018001800145
:104570008001800180018001800180018001800133
:1045800080018001800100000000000000000000A8
:1045900000000000000600060006000600060006F7
:1045A00000060006000600060006000618061806AB
:1045B0003807F003E00100000000000000000000E8
:1045C0000000000006300618060C060606038601E9
:1045D000C60066007600DE008E0106030606060CA5
:1045E0000618063006600000000000000000000011
:1045F000000000001800180018001800180018002B
:1046000018001800180018001800180018001800EA
:104610001800F81FF81F0000000000000000000054
:10462000000000000EE01EF01EF01EF036D836D856
:1046300036D836D866CC66CC66CCC6C6C6C6C6C624
:10464000C6C686C386C3000000000000000000004C
:10465000000000000C301C303C303C306C306C30C2
:10466000CC30CC308C310C330C330C360C360C3C4B
:104670000C3C0C380C300000000000000000000072
:1046800000000000E007F81F1C380E70066003C031
:1046900003C003C003C003C003C003C006600E70A4
:1046A0001C38F81FE00700000000000000000000B8
:1046B00000000000FC0FFC1F0C380C300C300C30DC
:1046C0000C300C18FC1FFC070C000C000C000C003C
:1046D0000C000C000C0000000000000000000000B6
:1046E00000000000E007F81F1C380E70066003E0B1
:1046F00003C003C003C003C003C007E006630E3F4E
:104700001C3CF83FE0F700C0000000000000000083
:1047100000000000FE0FFE1F06380630063006308F
:104720000638FE1FFE0706030606060C06180618C6
:1047300006300630066000000000000000000000A7
:1047400000000000E003F80F1C0C0C180C180C0003
:104750001C00F803E00F001E0038063006300E3053
:104760001C1CF80FE0070000000000000000000023
:1047700000000000FE7FFE7F80018001800180013B
:104780008001800180018001800180018001800121
:104790008001800180010000000000000000000096
:1047A000000000000C300C300C300C300C300C30A1
:1047B0000C300C300C300C300C300C300C300C3019
:1047C0001818F81FE00700000000000000000000BB
:1047D0000000000003600630063006300C180C188C
:1047E0000C18180C180C380E3006300670076003D1
:1047F0006003C001C00100000000000000000000D4
:10480000000000000360C361C361C36166336633A7
:1048100066336633663366336C1B6C1B6C1B2C1A59
:104820003C1E380E380E00000000000000000000A2
:10483000000000000FE00C7018303018700C600E93
:10484000C00780038003C003E006700C301C1818FA
:104850000C300E6007E000000000000000000000C7
:104860000000000003C006600C301C383818300C03
:104870006006E007C00380018001800180018001A3
:1048800080018001800100000000000000000000A5
:1048900000000000FC7FFC7F006000300018000C6E
:1048A000000600038001C0006000300018000C000A
:1048B0000600FE7FFE7F00000000000000000000F8
:1048C00000000000E003E0036000600060006000A2
:1048D00060006000600060006000600060006000D8
:1048E000600060006000600060006000E003E003C2
:1048F0000000000030003000600060006000C00078
:10490000C000C000C00180018001800100030003DD
:104910000003000600060000000000000000000088
:1049200000000000E003E0030003000300030003B5
:10493000000300030003000300030003000300035F
:10494000000300030003000300030003E003E0038F
:10495000000000000000C001C001600360036003AC
:1049600030063006180C180C000000000000000093
:104970000000000000000000000000000000000037
:104980000000000000000000000000000000000027
:104990000000000000000000000000000000000017
:1049A00000000000FFFFFFFF00000000000000000B
:1049B000000000000C000C000C000C000C000C00AF
:1049C00000000000000000000000000000000000E7
:1049D00000000000000000000000000000000000D7
:1049E0000000000000000000000000000000F003D4
:1049F000F8071C0C0C0C000FF00FF80C0C0C0C0C36
:104A00001C0FF80FF018000000000000000000006C
:104A10000000000018001800180018001800D80343
:104A2000F80F380C1818181818181818181818181B
:104A3000380CF80FD8030000000000000000000050
:104A40000000000000000000000000000000C003A3
:104A5000F007300E180C1800180018001800180C79
:104A6000300EF007C003000000000000000000004E
:104A70000000000000180018001800180018C01BE3
:104A8000F01F301C181818181818181818181818AB
:104A9000301CF01FC01B00000000000000000000E0
:104AA0000000000000000000000000000000C00343
:104AB000F00F300C1818F81FF81F180018003818DD
:104AC000301CF00FC00700000000000000000000D4
:104AD00000000000800FC00FC000C000C000F00741
:104AE000F007C000C000C000C000C000C000C0008F
:104AF000C000C000C0000000000000000000000076
:104B00000000000000000000000000000000E00DB8
:104B1000F80F180E0C0C0C0C0C0C0C0C0C0C0C0CD8
:104B2000180EF80FE00D000C0C0C1C06F807F00135
:104B30000000000018001800180018001800D8071E
:104B4000F80F381C181818181818181818181818EA
:104B500018181818181800000000000000000000C5
:104B600000000000C000C000000000000000C00005
:104B7000C000C000C000C000C000C000C000C00035
:104B8000C000C000C00000000000000000000000E5
:104B900000000000C000C000000000000000C000D5
:104BA000C000C000C000C000C000C000C000C00005
:104BB000C000C000C000C000C000C000F800780005
:104BC000000000000C000C000C000C000C000C0C91
:104BD0000C060C038C01CC006C00FC009C018C03C7
:104BE0000C030C060C0C000000000000000000008C
:104BF00000000000C000C000C000C000C000C00035
:104C0000C000C000C000C000C000C000C000C000A4
:104C1000C000C000C0000000000000000000000054
:104C200000000000000000000000000000007C3CCC
:104C3000FF7EC7E383C183C183C183C183C183C1B5
:104C400083C183C183C10000000000000000000098
:104C500000000000000000000000000000009807B5
:104C6000F80F381C181818181818181818181818C9
:104C700018181818181800000000000000000000A4
:104C80000000000000000000000000000000C00361
:104C9000F00F300C181818181818181818181818B9
:104CA000300CF00FC0030000000000000000000006
:104CB0000000000000000000000000000000D80319
:104CC000F80F380C18181818181818181818181879
:104CD000380CF80FD8031800180018001800180036
:104CE0000000000000000000000000000000C01BE9
:104CF000F01F301C18181818181818181818181839
:104D0000301CF01FC01B00180018001800180018F5
:104D10000000000000000000000000000000B007DC
:104D2000F003700030003000300030003000300000
:104D300030003000300000000000000000000000E3
:104D40000000000000000000000000000000E00380
:104D5000F003380E180C3800F003C007000C180CD4
:104D6000380EF007E0030000000000000000000023
:104D70000000000000008000C000C000C000F0077C
:104D8000F007C000C000C000C000C000C000C000EC
:104D9000C000C00780070000000000000000000005
:104DA00000000000000000000000000000001818D3
:104DB0001818181818181818181818181818181873
:104DC000381CF01FE0190000000000000000000087
:104DD00000000000000000000000000000000C18AF
:104DE000180C180C180C30063006300660036003EF
:104DF0006003C001C00100000000000000000000CE
:104E00000000000000000000000000000000C141A0
:104E1000C141C361636363636363363636363636D6
:104E20001C1C1C1C1C1C00000000000000000000DA
:104E300000000000000000000000000000001C381E
:104E4000381C300C6006600360036003600360067A
:104E5000300C381C1C38000000000000000000006E
:104E600000000000000000000000000000001830FA
:104E7000301830187018600C600CE00CC006C006CA
:104E800080038003800380018001C001F000700076
:104E90000000000000000000000000000000FC1FF7
:104EA000FC1F000C000600038001C0006000300001
:104EB0001800FC1FFC1F00000000000000000000A4
:104EC0000000000000038001C000C000C000C0005E
:104ED000C000C00060006000300060004000C00002
:104EE000C000C000C000C000C0008001000300007E
:104EF00000000000800180018001800180018001AC
:104F00008001800180018001800180018001800199
:104F10008001800180018001800180018001800189
:104F2000000000006000C000C0018001800180011D
:104F300080018001000300030006000300018001DE
:104F400080018001800180018001C00060000000BC
:104F50000000000000000000000000000000000051
:104F60000000F010F81F080F000000000000000013
:104F70000000000000000000000000000000000031
:104F800000000000A44F00080000002028000000DE
:104F900014020008CC4F0008280000207807000009
:104FA00030020008080000000000000000000000BF
:104FB00000000000100000000100000000000000E0
:0C4FC0000024F4000000FFFF00000000CF
:04000005080001D915
:00000001FF
