:020000040800F2
:100000007809002081020008FB3E0008B134000896
:10001000F93E0008C906000841540008000000002D
:10002000000000000000000000000000794300080C
:10003000CB06000800000000FD3E00087B430008DE
:100040009B0200089B0200089B0200089B0200081C
:100050009B0200089B0200089B0200089B0200080C
:100060009B0200089B0200089B0200089B020008FC
:100070009B0200089B0200089B0200089B020008EC
:100080009B02000800000000AD0600089B0200086B
:100090009B0200089B0200089B0200089B020008CC
:1000A0009B0200089B0200089B0200089B020008BC
:1000B0009B020008FD4300089B0200089B02000809
:1000C0009B0200089B0200089B0200089B0200089C
:1000D0009B020008355400089B0200089B020008A0
:1000E0009B0200089B0200089B0200089B0200087C
:1000F0009B0200089B0200089B0200080000000011
:10010000000000009B020008000000009B020008A5
:100110009B02000800000000094400089B02000840
:100120009B0200089B0200089B0200089B0200083B
:100130009B02000800000000000000009B02000875
:100140009B0200089B020008000000000000000065
:10015000000000000000000000000000000000009F
:100160000000000000000000000000009B020008EA
:100170009B020008000000000000000000000000DA
:10018000000000009B0200080000000000000000CA
:10019000000000000000000000000000000000005F
:1001A00000000000000000009B0200089B02000805
:1001B0009B0200089B0200089B0200080000000050
:1001C000000000009B02000800000000000000008A
:1001D0009B0200089B02000800F002F800F041F8C2
:1001E0000AA090E8000C82448344AAF10107DA4592
:1001F00001D100F036F8AFF2090EBAE80F0013F0A3
:10020000010F18BFFB1A43F001031847AC67000049
:10021000CC670000103A24BF78C878C1FAD85207DA
:1002200024BF30C830C144BF04680C607047000070
:100230000023002400250026103A28BF78C1FBD8EF
:10024000520728BF30C148BF0B607047642900F0D7
:10025000F780002070471FB505F0A1FA1FBD10B54B
:1002600010BD00F0E8F91146FFF7F5FF05F0FAF9C7
:1002700000F006FA03B4FFF7F2FF03BC00F00EFA39
:100280000948804709480047FEE7FEE7FEE7FEE72A
:10029000FEE7FEE7FEE7FEE7FEE7FEE70448054966
:1002A000054A064B70470000ED430008D9010008DD
:1002B00078030020780900207805002078050020C8
:1002C00053EA020C00F069802DE9F04B4FF0000674
:1002D000002B1FBFB3FA83F503FA05F424FA05F6E1
:1002E0005E4012BF1643B2FA82F502FA05F4C5F178
:1002F00020051EBF22FA05FC44EA0C04203556EA0C
:10030000044C4FEA144418BF641C4FF000084FF02F
:100310000009904271EB030C39D3002919BFB1FADF
:1003200081F701FA07F6B0FA80F700FA07F6C7F18D
:1003300020071EBF20FA07FC46EA0C062037B6FB52
:10034000F4FCA7EB0507103F07F01F0BCBF12006CD
:100350000CFA0BFB2CFA06F644BFB3460026202FFE
:10036000A4BF5E464FF0000B5BEA060C08BF4FF0DF
:10037000010B19EB0B09ABFB027C48EB0608C01B19
:1003800006FB02CC0BFB03CC71EB0C01C1E70B4667
:10039000024641464846BDE8F08B13B54FF00000D9
:1003A0004FF00001AFF30080BDE81C407047000033
:1003B0000FB41CB5074B06AA7B446946009005980C
:1003C00000F021F90020694600F030F91CBC5DF80E
:1003D00014FB0000710200002DE9F0410E460446B6
:1003E000002020622046E168884730B3252805D0E8
:1003F000D4E901219047206A401CF2E7E1682046D9
:1004000000278847050018D0A5F14100192802D817
:1004100020354FF400673246294620462760FFF713
:1004200015FF40B1012804D0F61D26F00706083656
:10043000D8E7361DD6E72846DAE7206ABDE8F0811E
:100440002DE9F0410646002410687529314616A5AD
:1004500010D0AFF30080002802DA404213A507E075
:1004600031688A0701D512A502E0490704D511A514
:10047000012401E0AFF3008000210A2206F12407E5
:1004800009E0B0FBF2FCB0FBF2F302FB1C003030E1
:1004900078541846491C0028F3D123462A46304692
:1004A000BDE8F04100F051B8000000002D00000050
:1004B0002B0000002000000010B5431C02E010F8E3
:1004C000011B71B18107FAD14FF0013202C88C1AB9
:1004D0008C4314EAC211F9D0C01A0A0603D0C01E18
:1004E00010BDC01A10BD0A0401D0801E10BD090243
:1004F000FCD0401E10BD4FF0000200B513469446DC
:100500009646203922BFA0E80C50A0E80C50B1F16B
:100510002001BFF4F7AF090728BFA0E80C5048BF7F
:100520000CC05DF804EB890028BF40F8042B08BF1D
:10053000704748BF20F8022B11F0804F18BF00F819
:10054000012B70477047704770472DE9F0470D4603
:1005500099469246044600F124080168880604D5AD
:10056000E06921F01001216000E00120A84201DDD6
:10057000471B00E00027A1697A1902EB0900081A5D
:10058000A0612078C00602D42046AFF30080002688
:1005900008E0D4E901211AF806009047206A401CBF
:1005A000761C20624E45F4DB2078C0060AD5204632
:1005B000AFF3008006E0D4E9012130209047206AA3
:1005C000401C2062381EA7F10107F4DC07E0D4E9E3
:1005D000012118F805009047206A401C2062281E5F
:1005E000A5F10105F3DC2046AFF30080207800067A
:1005F00002D50220BDE8F0870120FBE701694A1C13
:1006000002610878704700B58FB0CDE90131002153
:10061000059105497944CDE9031011466846FFF775
:10062000DBFE0FB000BD0000E5FFFFFF0A6802F827
:10063000010B0A607047754600F02CF8AE460500C5
:100640006946534620F00700854618B020B5FFF7ED
:1006500025FEBDE820404FF000064FF000074FF0A8
:1006600000084FF0000B21F00701AC46ACE8C009D0
:10067000ACE8C009ACE8C009ACE8C0098D467047D9
:1006800010B50446AFF300802046BDE81040FFF7E8
:10069000F1BD0000004870471803002001491820F0
:1006A000ABBEFEE7260002007047000010B504480C
:1006B00000F0A2FABDE81040024800F09DBA000028
:1006C000A00000200C010020FEE77047002240F649
:1006D000B83306E00021491C89B29942FBD3521C71
:1006E00092B28242F6D3704772B6FEE77047704707
:1006F00070477047704700002DE9F047044690F8B6
:1007000058009CB00E464FF00009012815D001207A
:1007100084F8580000251795189520684FF0A048D8
:1007200040450ED1284F0097384603F09FF9824686
:10073000206803F09BF960B10EE002201CB0BDE818
:10074000F087E06D40F02000E06584F8585001200B
:10075000F4E7BAF1000F09D0E06D40F02000E06549
:100760004FF0010984F858504846E7E717483268C7
:1007700040F61F71002A826822F4604216D094F875
:10078000383042EA433273681A438260D8F808204E
:10079000BB6802F0010203F001031A43E2D1B3681F
:1007A00032681A4383688B431A430BE08260D8F89F
:1007B0000820BB6802F0010203F001031A43D1D103
:1007C00082688A438260CDE7000100500003005038
:1007D0002DE9F84F00270446009790F85800DFF8FD
:1007E000E0930D46B846012811D0012684F85860E0
:1007F000206803F037F960B1E06D40F02000E0655B
:100800005FF0010784F858803846BDE8F88F022071
:10081000FBE7D5E900210C23206803EA9113184473
:10082000036B01F01F014FF01F0C0CFA01FCC2F327
:10083000846223EA0C038A4013430363206803F0B5
:1008400011F98246206803F009F95AEA00003CD108
:10085000AA6829682068B2F1004F37D003F012F976
:100860002068416921F00041416120686969C268DE
:10087000C2F3C102520091402A69042A31D000EB30
:1008800082002B68026EDFF83CC303F0F84302EAF3
:100890000C020B431A4342F00041016620682A69AA
:1008A000A96900EB8200026E22F080720A430266A0
:1008B000297F22682869012910D0002102EB8000DD
:1008C000026E22F000720A4302667DE0002203F00D
:1008D000D9F82068416941F00041C5E74FF0007147
:1008E000ECE7002103F0B4F8400320684FF000016A
:1008F00072D003F0ADF890FAA0F0B0FA80F1286859
:1009000042036ED090FAA0F0B0FA80F0814204D198
:1009100000221146206803F0C4F80121206803F08A
:1009200097F8400320684FF001015DD003F090F884
:1009300090FAA0F0B0FA80F12868420359D090FAFA
:10094000A0F0B0FA80F0814204D100220121206899
:1009500003F0A7F80221206803F07AF8400320682A
:100960004FF0020148D003F073F890FAA0F0B0FA0B
:1009700080F12868420344D090FAA0F0B0FA80F0E9
:10098000814204D100220221206803F08AF8032169
:10099000206803F05DF8400320684FF0030133D076
:1009A00003F056F890FAA0F0B0FA80F128684203FC
:1009B0002FD090FAA0F0B0FA80F0814204D100224A
:1009C0000321206803F06DF82068816811F0010FA1
:1009D00022D0ACE000E004E003F03AF8C0F3846118
:1009E0008DE7C0F3846091E703F032F8C0F38461CF
:1009F000A2E7C0F38460A6E703F02AF8C0F384619D
:100A0000B7E7C0F38460BBE703F022F8C0F384616A
:100A1000CCE7C0F38460D0E72A7B296850F8B03F68
:100A2000C1F3120C23EA0C0302F0180C664A22FAF6
:100A30000CF20A4013430360E968494577D12868FE
:100A400041031CD090FAA0F1B1FA81F1491C01F0E8
:100A50001F0109294FEA403132D8002912D000BFC6
:100A600090FAA0F1B1FA81F101F1010101F01F0149
:100A700006FA01F609D100BFC0F3846109E0C0F3B2
:100A80008461E3E7C0F38461EEE790FAA0F1B1FA84
:100A900081F101F1010101F01F0146EA816102D1FA
:100AA000C0F3846003E090FAA0F0B0FA80F000F1A7
:100AB000010000F01F0000EB400041EA005132E06D
:100AC00000290ED090FAA0F1B1FA81F101F10101F3
:100AD00001F01F0106FA01F606D100BFC0F38461E0
:100AE00006E0C0F38461F1E790FAA0F1B1FA81F178
:100AF00001F1010101F01F0146EA816102D1C0F359
:100B0000846003E090FAA0F0B0FA80F000F10100F8
:100B100000F01F002D4A00EB400002EB005041EABC
:100B2000000141F00071AA68206802F0ABFF28487C
:100B30002A6802423FF466AE26488168264B01F0DF
:100B4000E0719A4202D0254B9A421CD10B021AD472
:100B50002268B2F1A04F7FF455AE826841F40001E3
:100B600022F0E0720A4382601D481E490068B0FB13
:100B7000F1F0401C00EB4000800000E0401E0090BF
:100B80000028FBD13EE6184D184BAA4207D1CD01F3
:100B900005D422689A42F5D041F0807109E0144DE5
:100BA000AA42EFD14A02EDD422689A42EAD041F437
:100BB0008001826822F0E0720A43826022E600002F
:100BC00000007F4000F0FF03FFFF0700000020FE51
:100BD0000000088000030050000021C31000C090F6
:100BE00038000020400D0300000052C700010050F3
:100BF000000084CB704770472DE9F05F0446006821
:100C000006684568DFF854B2DBF8080000F01F07FB
:100C1000B0070ED5A8070CD5E06DC00603D4E06D73
:100C200040F40060E0652046FFF760FD2168022087
:100C30000860DFF82CA270074FF0A04801D56807C4
:100C400003D4300737D5280735D5E06DC00603D467
:100C5000E06D40F40070E065206802F00BFF20B307
:100C60002068504501D1424600E00246824208D049
:100C70003FB1052F05D0092F03D0504503D1414680
:100C800002E0C16801E00146C96889040DD4016829
:100C900009070AD502F0E6FE58B3E06D40F01000F7
:100CA000E065206E40F0010020662046FFF7A2FFBD
:100CB00021680C200860B00601D5A80603D4700690
:100CC00058D5680656D5E06DC00603D4E06D40F4F3
:100CD0000050E0652068C16C11F4C07F1AD000217B
:100CE000894602F0C7FE02462068504514D14346AB
:100CF00013E02068416821F00C014160E06D20F4B0
:100D00008070E065E06DC004CFD4E06D40F001007C
:100D1000E065CAE70121E3E70346834208D03FB11B
:100D2000062F05D0072F03D0504503D1414602E0DE
:100D3000C16801E00146C968B9F1000F14D08B0108
:100D400002D58AB18A040FD4026852060CD58902F2
:100D50000AD402F083FEE8B3E06D40F01000E065D5
:100D6000206E40F0010020662046FFF7C0FC21689D
:100D70006020086030060BD5280609D5E06D40F4E8
:100D80008030E065204600F067F921688020086027
:100D9000F0050CD5E8050AD5E06D40F40030E065BB
:100DA0002046FFF7A6FC21684FF480700860B0056C
:100DB0000CD5A8050AD5E06D40F48020E0652046FA
:100DC000FFF798FC21684FF400700860F0062ED5FC
:100DD000E80600E008E02AD5E06BD0B1AFB1DBF85F
:100DE000080000F4604013E02068416821F06001D1
:100DF0004160E06D20F48050E065E06DC005B3D443
:100E0000E06D40F00100E065AEE72068C068C00713
:100E100050B1E06D40F48060E065206E40F002006B
:100E200020662046FFF7E7FE216810200860700565
:100E300012D5680510D5E06D40F48040E065206E65
:100E400040F00800206621684FF48060086020466A
:100E5000BDE8F05FFFF74CBCBDE8F09F0003005019
:100E600000010050F8B54FF0000504002E46009533
:100E700002D0E06D10B107E00120F8BD204600F07F
:100E8000EDF8266684F8586020688168C1F34071E7
:100E900019B18168684A1140816020688168C1F396
:100EA000007189B98168654A114041F080518160C3
:100EB000634864490068B0FBF1F04000801C00E02A
:100EC000401E00900028FBD120688168C1F30071AA
:100ED00041B9E16D41F01001E165216E41F0010180
:100EE0002166012502F0BEFDE16DC90600D430B1D6
:100EF000E06D40F01000E06501252846F8BDE06D8A
:100F000020F4807040F00200E0652068806810F0F6
:100F1000010F11D14FF0A04080684B4900F0010053
:100F2000896801F00101084306D148486168826878
:100F300022F47C120A438260E168E06B627F08431E
:100F4000A16841EA4231084394F8241040EA014084
:100F5000012904D1218D3E4A02EB41410843E16A57
:100F600029B101F47871226B014342EA0100226841
:100F7000D168384B19400143D16020680169626B28
:100F800021F0406111430161206802F067FD70BBF0
:100F9000207F94F83810800340EA41022168C86835
:100FA00044F2020398431043C86020690028206877
:100FB00001690AD041F480310161206850F8C01FF6
:100FC00022696FF30D01114307E021F480310161C3
:100FD000206850F8C01F6FF30D01016094F84000C5
:100FE00001280CD02068016921F0010101616069CC
:100FF00001282068016B21F00F0111D013E0D4E922
:1010000011010843D4E913121143084321680A6906
:1010100040F2FC739A43104340F001000861E6E798
:10102000226A521E11430163E06D20F0020040F07D
:101030000100E06561E70000C0FFFF5FC0FFFF7FC8
:1010400038000020400D0300000100500003005054
:101050000000FEFF0740F0FF704700002DE9F0435D
:1010600097B00446142111A8FFF745FA44216846B9
:10107000FFF741FA4FF000502168314D0327DFF8A8
:10108000C4908613304C4FF00008B1F1A04F10D03F
:101090002E4A914250D100960F90684600F008FB0E
:1010A00008B1FFF721FB2868401C2860012824D0E4
:1010B0002BE000960F90684600F0FAFA08B1FFF7AF
:1010C00013FB2868401C2860012807D1E06C40F41D
:1010D0000050E064E06C00F400501690E06C40F0CA
:1010E0000200E064E06C11A900F0020016904FF4D9
:1010F000805081E88101484614E0E06C40F40050E3
:10110000E064E06C00F400501690E06C40F00200E7
:10111000E064E06C11AA00F00200169082E8C001C1
:1011200011A9484600F098F800221146122000F05C
:1011300027FA122000F016FA17B0BDE8F08300007D
:101140002800002000040048001002400001005068
:1011500010B590F8253000210122022B03D0042184
:10116000C163012122E003681C6824F00E041C60A6
:10117000836C1C6824F480741C6003681C6824F071
:1011800001041C6090F84430046C03F01F0302FA61
:1011900003F36360D0E913345C60436D33B11C68C2
:1011A00024F480741C60D0E916345C6080F825203B
:1011B000002280F82420084610BD70B590F8252044
:1011C000002401212346022A07D00422C26380F8AA
:1011D000251080F82430012429E00268156825F0E4
:1011E0000E0515600268156825F001051560826C12
:1011F000156825F48075156090F84420056C02F0A0
:101200001F0201FA02F26A60D0E913255560426DAF
:1012100032B1156825F480751560D0E91625556042
:1012200080F8251080F82430816B01B18847204672
:1012300070BD000070B5044600F03CF90546601C26
:1012400002D004484068044400F034F9401BA04236
:10125000FAD370BD2C0000202DE9F04FDFF820926A
:10126000002301260324A9F1040B85B00F2709F1FF
:10127000040AABF1040EFAE006FA03F52A407CD02A
:1012800091F804C00CF0030CBCF1010F02D0BCF1CA
:10129000020F26D1D0F808C0CDF800C04FEA430CA9
:1012A00004FA0CF8CDF810C0DDF800C02CEA080CE8
:1012B000CDF800C0D1F80C80DDF810C008FA0CF8A9
:1012C000DDF800C048EA0C08C0F80880D0F804C077
:1012D0002CEA050C0D79C5F300159D4045EA0C0577
:1012E00045600D79ED43AD070ED0C5684FEA430860
:1012F00004FA08FC25EA0C05D1F808C00CFA08FC31
:101300004CEA050CC0F80CC00D7905F00305022D60
:1013100016D1DD0800EB850CCDF808C0DCF8208084
:101320005D074FEAD56C07FA0CF528EA05080D6948
:1013300005FA0CF5DDF808C045EA0805CCF82050A0
:1013400005684FEA430CCDF808C004FA0CFC25EA06
:101350000C0591F804C00CF00308DDF808C008FA89
:101360000CF848EA0508C0F800804D6815F4403FC5
:101370007CD0444DD5F860C000E077E04CF0010C23
:10138000C5F860C02D6E23F0030C05F00105009533
:101390003D4D65440295AD684FEA837C4FEA1C7869
:1013A00007FA08FC25EA0C05B0F1904F06D0DFF8EB
:1013B000DCC0604505D14FF0010C20E04FF0000C7F
:1013C0001DE0DFF8CCC0604502D14FF0020C16E002
:1013D000DFF8C0C0604502D14FF0030C0FE0DFF82A
:1013E000B8C0604502D14FF0040C08E0DFF8ACC093
:1013F000604502D14FF0050C01E04FF0060C0CFAED
:1014000008FC4CEA050C029DC5F808C0D9F800504C
:10141000CC46D1F8048095435FEAC82800D515432F
:10142000CCF80050DAF80050D446D1F80480954347
:101430005FEA882800D51543CCF80050DBF800504F
:10144000DC46D1F8048095435FEA883800D515431F
:10145000CCF80050DEF80050F446D1F804809543F3
:101460005FEAC83800D51543CCF800505B1C0A6809
:1014700032FA03F57FF400AF05B0BDE8F08F00004D
:101480000804014000100240000001400004004830
:1014900000080048000C00480010004800140048F4
:1014A0000069084000D0012070470AB1816170478F
:1014B0008162704701488068704700002C0000205E
:1014C0000248816842681144816070472C00002006
:1014D00010B50024032000F073F80F2000F008F886
:1014E00008B1012401E000F025F8204610BD0000FD
:1014F00070B50E4E05460024706898B14FF47A71AD
:10150000B1FBF0F00A490968B1FBF0F000F0F8FE19
:1015100040B9102D06D200222946501E00F030F8A6
:10152000356000E00124204670BD00002C00002042
:10153000380000200A4882B0016E41F001010166C6
:10154000016E01F001010091816D41F080518165D2
:10155000806D00F08050009002B000F0A1B8000053
:1015600000100240002809DB00F01F020121914019
:101570004009800000F1E020C0F800117047000031
:10158000F0B40E4B1B680C46C3F30223C3F10705EE
:10159000042D00D90425191D072901D2002300E0DC
:1015A000DB1E012606FA05F1491E214099409E40A6
:1015B000761E16403143F0BC03F043BF0CED00E053
:1015C000064900F0070208684FF6FF03184040EA9A
:1015D0000220034A10430860704700000CED00E051
:1015E0000000FA052B492C4B0A6832214A432B494B
:1015F00040B1B0F5007F086829D020F4C06040F405
:1016000080602CE00868C0F34120022804D051F823
:10161000800F20F4807022E0D1F8800020F48070E8
:10162000C1F88000086820F4C06040F400700860D1
:10163000B2FBF3F0401C00E0401E4A69520501D5A0
:101640000028F9D1486940050AD503207047C0F346
:101650004120022806D051F8800F40F480700860C5
:1016600000207047D1F8800040F48070C1F88000FD
:10167000086820F4C06040F400700860B2FBF3F02A
:10168000401C00E0401E4A695205DBD50028F9D114
:10169000D8E700003800002040420F0000700040F2
:1016A0000248816841F480418160704700700040C9
:1016B0002DE9F8430446006800269D4D00035ED5E1
:1016C000A86D0027C00008D4A86D40F08050A86520
:1016D000A86D012700F080500090DFF85892D9F8EB
:1016E000001041F48071C9F80010FFF7E3FE804656
:1016F00006E000BFFFF7DEFEA0EB080002282BD8B3
:10170000D9F80000C005F5D5D5F8900010F4407068
:1017100014D0216C814211D0D5F89000D5F89010EA
:1017200020F4407041F48031C5F89010D5F8901045
:1017300021F48031C5F89010C5F89000C00711D091
:10174000FFF7B8FE804641F2883907E0FFF7B2FEA6
:10175000A0EB0801494501D903260BE0D5F890001C
:101760008007F3D5D5F89000216C20F44070084331
:10177000C5F890001FB1A86D20F08050A8652078B2
:10178000C00707D0D5F88800616820F0030008433F
:10179000C5F888002078800707D5D5F88800A168AB
:1017A00020F00C000843C5F888002078400707D5D2
:1017B000D5F88800E16820F030000843C5F88800BB
:1017C0002078000707D5D5F88800216920F0C000EF
:1017D0000843C5F888002078800607D5D5F888002A
:1017E000616920F440600843C5F88800207840060D
:1017F00007D5D5F88800A16920F440500843C5F802
:1018000088002078000607D5D5F88800E16920F423
:1018100040400843C5F888002088C00507D5D5F8A2
:101820008800216A20F440300843C5F888002088E9
:10183000800507D5D5F88800616A20F44020084368
:10184000C5F88800208840050FD5D5F88800A16A22
:1018500020F440100843C5F88800A06AB0F5801F46
:1018600003D1E86840F48010E860208800050FD5B7
:10187000D5F88800E16A20F440000843C5F88800E4
:10188000E06AB0F5800F03D1E86840F48010E860AA
:101890002088C0040FD5D5F88800216B20F0407057
:1018A0000843C5F88800206BB0F1807F03D1E86859
:1018B00040F48010E86020884FF0006180040ED56D
:1018C000D5F88800626B20F040601043C5F88800AE
:1018D000606B884203D1E86840F48010E86020889B
:1018E00040040ED5D5F88800A26B20F0406010436C
:1018F000C5F88800A06B884203D1E86840F48010E6
:10190000E860208800040FD5D5F88800E16B20F04E
:1019100040500843C5F88800E06BB0F1805F03D108
:10192000E86840F48030E8603046BDE8F8830000A5
:1019300000100240007000402DE9F0470E460500FF
:101940004FF0000725D0DFF8AC81D8F8000000F098
:101950000F00B0420CD2D8F8001021F00F01314333
:10196000C8F80010D8F8000000F00F00B04210D105
:101970002968614CC80741F2883A5AD06868DFF894
:101980007C91032808D0022820682DD0400500282B
:101990002CDB0120BDE8F08720688001F9D5E068E4
:1019A00000F00302E068C0F30310401C032A19D0C2
:1019B000534A00BFB2FBF0F0E268C2F30622504384
:1019C000E268C2F34162521C5200B0FBF2F048459B
:1019D00017D9A06810F0F00F0CD0880711D5A868AF
:1019E00040B10EE0474AE5E78003D0E700F0B6F8E3
:1019F000484506D9A06820F0F00040F08000A060C3
:101A00008027A068696820F003000843A060FFF702
:101A100051FD814606E000BFFFF74CFDA0EB090138
:101A200051453AD8A068696800F00C00B0EB810F0E
:101A3000F2D12868810714D5400703D5A06840F487
:101A4000E060A0602878000705D5A06820F4605009
:101A500040F4E060A060A068A96820F0F0000843AE
:101A600004E0802F03D1A06820F0F000A060D8F837
:101A70000010404601F00F01B14216D9016821F073
:101A80000F0131430160FFF715FD074607E000BF76
:101A9000FFF710FDC11B514501D903207AE7D8F8A3
:101AA000000000F00F00B042F2D12878400705D5C1
:101AB000A068E96820F4E0600843A0602878000787
:101AC00006D5A068296920F4605040EAC100A060F2
:101AD00000F044F8A1680C4AC1F30311515C01F015
:101AE0001F01C8400949086009480068BDE8F0477F
:101AF000FFF7FEBC002002400010024000B4C40406
:101B00000024F40000366E01D05700083800002091
:101B10002C0000200548064900688968054AC1F381
:101B20000221515C01F01F01C840704738000020BD
:101B300000100240E057000805480649006889681F
:101B4000054AC1F3C221515C01F01F01C840704732
:101B50003800002000100240E0570008184910B576
:101B60008868C0F381021748012A0BD08A68164B97
:101B7000C2F38102022A06D08A68C2F38102032AD4
:101B800003D0002010BD184610BDCA6802F003043F
:101B9000CA68C2F30312521C032C02D0B0FBF2F04D
:101BA00001E0B3FBF2F0CA68C968C2F306225043F1
:101BB000C1F34161491C4900B0FBF1F010BD0000C8
:101BC000001002400024F40000366E012DE9F843B5
:101BD00004007AD02078F84DC00747D0A868E9689B
:101BE00000F00C0001F003010C2802D0082817D0E7
:101BF00001E0032914D06068B0F5803F17D0B0F53C
:101C0000A02F286817D020F480302860286820F49E
:101C1000802028606068E0B1FFF74CFC064614E0C5
:101C20002868800322D560680028D2D01EE028688A
:101C300040F48030EDE740F480202860F7E700BFF3
:101C4000FFF738FC801B642870D828688003F7D51C
:101C50000CE0FFF72FFC064605E000BFFFF72AFC6B
:101C6000801B6428F0D828688003F7D42078800788
:101C70004CD5A868E96800F00C0001F003010C28BD
:101C800002D004280DD001E002290AD0E068002823
:101C900028682BD040F480702860FFF70BFC0646C4
:101CA00019E02868400502D5E068002891D06868EE
:101CB000217C20F0FE4040EA01606860BF48006877
:101CC000FFF716FC002800D120E072E1FFF7F2FBDD
:101CD000801B0228B8D828684005F7D56868217CA1
:101CE00020F0FE4040EA016068600FE020F4807060
:101CF0002860FFF7DFFB064605E000BFFFF7DAFBD1
:101D0000801B0228A0D828684005F7D42078000757
:101D100029D560690028D5F8940013D040F001005F
:101D2000C5F89400FFF7C6FB064606E090E000BF4A
:101D3000FFF7C0FB801B022886D8D5F894008007E7
:101D4000F6D510E020F00100C5F89400FFF7B2FBD3
:101D5000064604E0FFF7AEFB801B022878D8D5F8D2
:101D600094008007F6D42078400761D5A86D00263E
:101D7000C00008D4A86D40F08050A865A86D012669
:101D800000F0805000908E480168C90511D40168A8
:101D9000804641F480710160FFF78CFB074604E048
:101DA000FFF788FBC01B022852D8D8F80000C005F6
:101DB000F6D5A068012815D00528D5F8900016D0D2
:101DC00020F00100C5F89000D5F8900020F0040044
:101DD000C5F89000A06841F28838B8B1FFF76AFBF7
:101DE00007460EE0D5F8900040F00100F0E740F023
:101DF0000400C5F89000F5E7FFF75CFBC11B414507
:101E000026D8D5F890008007F6D50CE0FFF752FBF6
:101E1000074604E0FFF74EFBC11B414518D8D5F833
:101E200090008007F6D41EB1A86D20F08050A86500
:101E30002078800629D5A0690028D5F8980013D00D
:101E400040F00100C5F89800FFF734FB064606E0B5
:101E500075E000BFFFF72EFB801B02286FD8D5F876
:101E600098008007F6D510E020F00100C5F8980032
:101E7000FFF720FB064604E0FFF71CFB801B02284F
:101E80005DD8D5F898008007F6D4E069F0B3A9686A
:101E9000C1F3810103295DD00228286820F08070F9
:101EA000286003D0FFF706FB04464BE0FFF702FB78
:101EB000064604E0FFF7FEFA801B02283FD8286898
:101EC0008001F7D4F4E908016FF00F0202EB011171
:101ED0000843218A5204490802EB4151A26841EAB1
:101EE00002210843217D4FF07E42490802EB416107
:101EF0000843217B40EAC160E968324A1140084347
:101F0000E860286840F08070286000E05EE0E868E3
:101F100040F08070E860FFF7CDFA044605E000BFAE
:101F2000FFF7C8FA001B022809D828688001F7D5F6
:101F30004CE000BFFFF7BEFA001B022802D90320C5
:101F4000BDE8F88328688001F4D4E8681E49084099
:101F5000E8603BE00128F3D0E868226A00F0030162
:101F6000914226D1616A00F0F002090110399142D4
:101F70001FD1A26A00F4FE41B1EB022F19D194F8EF
:101F80002C2000F07841B1EBC26F12D1218E00F409
:101F9000C00249084905A1F50011914209D194F800
:101FA000341000F0C06049084906A1F10071814277
:101FB0000CD00120C4E70000001002402C000020DB
:101FC000007000400C809F01FCFFEEFE0020B7E790
:101FD00010B500680B4641680D480140080CD870E8
:101FE000C1F304245C7001F03F049C70C1F34231E2
:101FF000197052B902F00DF9D870587802F009F949
:102000005870987802F005F99870002010BD000013
:102010003FFFFF0010B50B460168896859600168F1
:102020000969C1F30E019960006801680D4801401B
:10203000C1F305401870C1F306245C7001F07F0401
:102040009C70890DD97052B902F0E3F81870587875
:1020500002F0DFF85870987802F0DBF898700020F2
:1020600010BD00007F7F7F0070B504004FF00100BD
:1020700040D094F8250028B9002084F82400204698
:1020800000F040F8022084F825002068C168C943A8
:10209000C90630D5CA2141622168532048622046D2
:1020A00002F0CCF810BB20688169154A11408161AB
:1020B000216888696268A369104322691A43104342
:1020C00088612189E06840EA014021680861204672
:1020D00002F0D9F850B9D4E90721114322686369A5
:1020E000956925F060452B43194391612268FF21D2
:1020F000516208B170BD0020012184F8251070BD27
:10210000BFFF8FFB10B592B0044644216846FEF72E
:10211000F2F91049206888421AD14FF4002000904B
:102120004FF4407010906846FFF7C2FA08B1FEF70E
:10213000DBFA094850F8901F41F4004140F8381983
:10214000016841F480610160006800F480601190D2
:1021500012B010BD002800400010024070B50446C7
:1021600090F824000B4601281BD0012684F8246037
:10217000022084F82500B2B19878D97840EA014568
:1021800058781978000240EA413005432168CA2096
:102190004862216853204862204602F04FF8D0B1CF
:1021A00020E0022070BD5878C10603D500F0EF0092
:1021B0000A305870D87802F035F80504587802F0E3
:1021C00031F845EA0025987802F02CF80543187894
:1021D00045EA4035DAE70848054020684560204672
:1021E00002F051F82268FF21516208B984F8256095
:1021F000002184F8241070BD3FFFFF002DE9F0415D
:10220000044690F8240090460D46012811D001277D
:1022100084F82470022084F825002168CA204862CE
:10222000216853204862204602F008F8002618B1C1
:1022300029E00220BDE8F0812068B8F1000F806934
:102240004FEA406024D0002800DBEE70A87829789F
:10225000EA7840EA01406978090241EA825108437C
:1022600018490840216808602068816921F48021AC
:102270008161D5E90301084321688A6910438861B7
:10228000204602F000F82268FF215162A0B115E05B
:10229000002800DBEE70287801F0C4FF03046878A2
:1022A00001F0C0FF43EA0023A87801F0BBFF03431D
:1022B000E87843EA8050D3E784F8257084F82460F6
:1022C000B8E700007F7F7F0070B504460B482168A7
:1022D000C860FFF7EFF805464FF47A7607E000BFD5
:1022E000FFF7E8F8401BB04201D9032070BD206819
:1022F000C0688006F4D5002070BD00005F000100BA
:1023000010B5401EB0F1807F01D3012010BD4FF009
:10231000E02460610F21601703F093F80020A061B2
:1023200007202061002010BD70477047704770473C
:1023300070477047F0B590F83C20012A3AD001254B
:1023400080F83C50022280F83D2003685A689C685F
:10235000194E1A4FB34201D0BB4204D122F4700C83
:102360004A6842EA0C02DFF858C002EA0C02D1F8CF
:1023700000C04CEA020CC3F804C00268B2420DD09F
:10238000B2F1804F0AD00F4B9A4207D00E4B9A42BF
:1023900004D0BA4202D00D4B9A4204D1896824F08D
:1023A00080031943916080F83D50002180F83C1073
:1023B0000846F0BD0220F0BD002C01400034014071
:1023C0008FFFFFFD00040040000800400040014076
:1023D000704710B5040003D094F83D0010B107E039
:1023E000012010BD002084F83C00204600F022F8B7
:1023F000022084F83D00211D206802F00BF8012026
:1024000084F8480084F83E0084F83F0084F84000D7
:1024100084F8410084F8420084F8430084F84400C2
:1024200084F8450084F8460084F8470084F83D00AD
:10243000002010BD30B587B0044614216846FEF771
:102440005AF821682D48B1F1804F38D02C4A91427A
:102450003FD1816D41F002018165816D01F0020182
:102460000591C16C41F00101C164C16C01F0010131
:102470000591C16C41F00201C164C06C022500F0FD
:1024800002000590802000900024CDE901546946A7
:102490004FF09040CDE90345FEF7DEFE102000909E
:1024A000CDE9015469461748CDE90345FEF7D4FE4E
:1024B000002211461D20FFF763F81D201AE0816DF0
:1024C00041F001018165806D00F00100059007B0C9
:1024D00030BD0D4A9142FAD1816D41F01001816504
:1024E000806D002200F01000059011463620FFF7A5
:1024F00047F83620FFF736F8E9E700000010024001
:1025000000040040000400480010004090F83D1016
:10251000012901D001207047022180F83D10016897
:10252000CA6842F00102CA600068104988420ED0B1
:10253000B0F1804F0BD00E49884208D00D49884237
:1025400005D00D49884202D00C49884207D18168E4
:102550000B4A1140062906D0B1F5803F03D001682F
:1025600041F001010160002070470000002C014093
:1025700000040040000800400034014000400140D9
:102580000700010070B5044690F83C0000250128C2
:1025900014D0012684F83C60022084F83D002268B3
:1025A0009068364B184020F47F409060086870288F
:1025B0002ED010DC10F00F0F03D021E04FF00200FE
:1025C00070BD4FEA2012072A1AD2DFE802F05252F9
:1025D00052524A3840002A4BC21A984249D009DC6C
:1025E000B0F5805F0DD0B0F5005F1CD0B0F1101FCA
:1025F00006D13EE0102A3CD0202A3AD0502A38D0CA
:10260000012584F83D60002084F83C00284670BD18
:10261000CB68D1E90121206801F067FF206881685B
:1026200041F0770109E0CB68D1E90121206801F090
:102630005CFF2068816841F480418160E1E7CA68FD
:102640004968206802F0FCF85021206806E0CA685A
:102650004968206802F03CF96021206801F050FFD1
:10266000CFE7CA684968206802F0EAF8402120688C
:10267000F4E7226801461046F0E7000088FFCEFF2D
:102680002000100010B5164A016891420BD1007F5E
:10269000144C012808D0022805D10421124800F06A
:1026A000CDFB401C206210BD00210F4800F0C6FB8E
:1026B000401CE06194ED080A0B49F8EEC00A00EEF8
:1026C000100A0020B8EEC00A80EE801A84ED091AC4
:1026D000096848620146BDE81040034800F0CAB8E6
:1026E0000004004000000020EC0100202DE9F04132
:1026F000054690F83C0000260C46012810D0012029
:1027000085F83C0072B1042A1CD0082A2CD00C2A6F
:1027100050D00126002085F83C003046BDE8F0810D
:102720000220FBE7D4E90012E368286802F09AF877
:102730002868816921F00C01816128688169A2689B
:1027400011430FE0D4E90012E368286802F0D2F8E0
:102750002868816921F44061816128688169A268E3
:1027600041EA02218161D5E72868D4E9002C277B62
:10277000036A016A21F480710162C16923F4206354
:1027800021F0030141EA0C0121F0F00C39074FF46C
:1027900020674CEA116107EA02221A43C161026212
:1027A0002868C16921F00C01C1612868C169A2686B
:1027B00011432BE02868D4E90021E768036AD0F8C8
:1027C00020C02CF4805CC0F820C0D0F81CC023F4DA
:1027D00020432CF4407C4CEA012121F4704C4FF64C
:1027E000FF7101EA07314FF4204741EA0C0107EA83
:1027F00002321A43C16102622868C16921F4406152
:10280000C1612868C169A26841EA0221C16181E70A
:1028100010B5040003D094F83D0010B107E001208A
:1028200010BD002084F83C00204600F022F8022071
:1028300084F83D00211D206801F0ECFD012084F8A2
:10284000480084F83E0084F83F0084F8400084F893
:10285000410084F8420084F8430084F8440084F87E
:10286000450084F8460084F8470084F83D000020C5
:1028700010BD704730B50446002571B1042911D050
:10288000082914D00C2917D0102918D094F8430027
:1028900094F84720012817D114E094F83E0094F8EA
:1028A0004420F7E794F83F0094F84520F2E794F8C5
:1028B000400094F84620EDE794F84100E8E794F8EA
:1028C0004200E5E7012A01D0012030BD022079B1A4
:1028D000042916D008291DD00C2949D010294AD026
:1028E00084F8430084F847000C2947D001253DE0D7
:1028F00084F83E0084F844002068C26842F0020276
:1029000010E084F83F0084F845002068C26842F077
:10291000040207E084F8400084F846002068C2689A
:1029200042F00802C2600122206801F0D1FD164980
:10293000206888420ED0B0F1804F0BD013498842F6
:1029400008D01349884205D01249884202D0124962
:10295000884207D18168114A1140062906D0B1F595
:10296000803F03D0016841F001010160284630BD7D
:1029700084F84100B6E784F84200B3E72068C268F3
:1029800042F01002CEE70000002C0140000400409D
:1029900000080040003401400040014007000100F1
:1029A0002DE9F04104460068C66805694FF000074C
:1029B000A90713D5B10711D5F91E016101202077B0
:1029C000206880698007204602D0FFF75BFE04E0A4
:1029D00000F0DEF8204600F0A0F92777680716D54A
:1029E000700714D521686FF0040008610220207779
:1029F0002068806910F4407F204602D0FFF742FE35
:102A000004E000F0C5F8204600F087F92777280792
:102A100015D5300713D521686FF008000861042030
:102A200020772068C0698007204602D0FFF72AFE81
:102A300004E000F0ADF8204600F06FF92777E806D3
:102A400016D5F00614D521686FF010000861082033
:102A500020772068C06910F4407F204602D0FFF73D
:102A600011FE04E000F094F8204600F056F92777B4
:102A7000E80708D0F00706D021686FF00100086170
:102A8000204600F0C9F9280601D4A80408D530066C
:102A900006D521686FF4025008612046FFF745FC17
:102AA000E80508D5300606D521686FF48070086106
:102AB0002046FFF739FC680608D5700606D5216860
:102AC0006FF040000861204600F0CDF9A80608D557
:102AD000B00606D521686FF0200008612046FFF798
:102AE00025FCE80208D5F00206D521686FF48010B5
:102AF00008612046FFF71CFCA80208D5B00206D5E5
:102B000021686FF4001008612046FFF710FC68028E
:102B100008D5700206D521686FF480000861204650
:102B2000FFF707FC28020AD5300208D521686FF4A8
:102B3000000008612046BDE8F041FFF749BCBDE850
:102B4000F081000010B586B0044614216846FDF7F8
:102B5000D2FC2068B0F1804F15D10C48C16C41F017
:102B60000101C164C06C694600F0010005900220BB
:102B700000900190002002900390012004904FF0FB
:102B80009040FEF769FB06B010BD00000010024047
:102B9000704770B5044690F83C0000260D460128A9
:102BA0000BD0012084F83C000C2A4AD007DC82B10B
:102BB000042A20D0082A06D131E0022070BD102A54
:102BC00053D0142A63D00126002084F83C003046FC
:102BD00070BD206801F09EFC2068816941F0080109
:102BE00081612068816921F0040181612068816927
:102BF0002A69114311E0206801F0DAFC206881693C
:102C000041F4006181612068816921F48061816102
:102C1000206881692A6941EA02218161D4E720683C
:102C200001F00EFD2068C16941F00801C161206812
:102C3000C16921F00401C1612068C1692A69114399
:102C400011E0206801F044FD2068C16941F4006191
:102C5000C1612068C16921F48061C1612068C169D6
:102C60002A6941EA0221C161AEE7206801F078FDDE
:102C70002068016D41F0080101652068016D21F0B7
:102C8000040101652068016D2A69114311E0206883
:102C900001F09EFD2068016D41F40061016520682E
:102CA000016D21F4806101652068016D2A6941EAA6
:102CB0000221016588E710B5040003D094F83D00B7
:102CC00010B107E0012010BD002084F83C00204630
:102CD00000F022F8022084F83D00211D206801F058
:102CE00099FB012084F8480084F83E0084F83F00F6
:102CF00084F8400084F8410084F8420084F84300DE
:102D000084F8440084F8450084F8460084F84700BD
:102D100084F83D00002010BD7047704730B5044670
:102D2000022269B1042912D0082917D00C291CD01D
:102D3000102921D094F84300012824D0012030BD6F
:102D400094F83E000128F9D184F83E201DE094F863
:102D50003F000128F2D184F83F2016E094F84000AB
:102D60000128EBD184F840200FE094F841000128BD
:102D7000E4D184F8412008E094F842000128DDD134
:102D800084F8422001E084F843200122206801F009
:102D90009FFB194B20681949194A984209D088426B
:102DA00007D0904205D0174DA84202D0164DA84238
:102DB00003D1456C45F400454564206898420CD029
:102DC000B0F1804F09D0114B984206D0104B984279
:102DD00003D0884201D0904207D181680D4A11404A
:102DE000062906D0B1F5803F03D0016841F001010A
:102DF0000160002030BD0000002C01400034014083
:102E000000400140004401400048014000040040EF
:102E1000000800400700010000680549884206D10B
:102E20000448C168491CC1600348FFF76FBB704785
:102E30000010004000000020380200200246002060
:102E400041B1042909D008290AD00C2901D1106800
:102E5000006C70471068406B70471068806B70475B
:102E60001068C06B7047704790F88410012918D023
:102E7000012180F884102421C0F8881001680A68B4
:102E80000B6823F001030B6022F000510022426620
:102E9000036819602021C0F8881080F8842010464B
:102EA0007047022070477047704770B5044690F82D
:102EB000840001281DD0012084F884002420C4F857
:102EC000880020680568026822F00102026020681C
:102ED000826822F060620A438260204601F026FD8B
:102EE000206805602020C4F88800002084F8840051
:102EF00070BD022070BD70B5044690F884000128B2
:102F00001DD0012084F884002420C4F888002068A3
:102F10000568026822F0010202602068826822F0DF
:102F200060420A438260204601F000FD206805608F
:102F30002020C4F88800002084F8840070BD02209E
:102F400070BD7047704770472DE9F0410368044633
:102F5000D86919689A6840F60F0528424FF00005B5
:102F60004FF002060AD187067ED501F0200702F055
:102F7000805C57EA0C0777D0616F3AE1B24FDFF817
:102F8000CCC2174001EA0C0C57EA0C0C6CD05FEA7B
:102F9000C07C0CD05FEAC15C09D54FF0010CC3F8CE
:102FA00020C0D4F8903043F00103C4F89030830778
:102FB00009D5D30707D023681E62D4F8903043F0B8
:102FC0000403C4F8903043070AD5D30708D0266815
:102FD00004233362D4F8903043F00203C4F89030F5
:102FE00003070CD501F020033B4308D026680823D3
:102FF0003362D4F8903043F00803C4F890300305EE
:103000000BD54B0109D526684FF400633362D4F821
:10301000903043F02003C4F89030D4F89030002B67
:103020003DD0800609D501F0200002F08051084310
:1030300003D0616F09B120468847D4F89000216819
:103040008968490602D410F0280F2AD0204601F0E2
:1030500053FD2068806840061ED52068083050E87F
:10306000001F21F0400100E021E040E80012002AAA
:10307000F3D1D4F8800078B175498163D4F8800029
:10308000FEF79BF800280AD0D4F88000816B00E09E
:103090002046BDE8F04108472046FFF754FFBDE851
:1030A000F0812046FFF74FFFC4F89050F7E7D4F8BF
:1030B0006CC02027BCF1010F7ED15FEAC06C7BD5CC
:1030C0005FEAC16C78D510201862206880684006DD
:1030D00045D5D4F88010086840680004000CDED0A4
:1030E000B4F85C208242DAD9A4F85E00086800686F
:1030F00080062CD4216851E8000F20F4807041E84C
:103100000002002AF6D12068083050E8001F21F0A4
:10311000010140E80012002AF5D12068083050E88B
:10312000001F21F0400140E80012002AF5D1C4F848
:103130008C70E566206850E8001F21F0100140E81F
:103140000012002AF6D1D4F88000FEF701F82667B5
:10315000B4F85C00B4F85E10401A81B230E0B4F804
:103160005C00B4F85E10401A81B2B4F85E0000282A
:1031700095D0002993D0226852E8000F20F4907077
:1031800042E80003002BF6D12F4BDB4320680830C8
:1031900050E8002F1A4040E8002CBCF1000FF5D198
:1031A000C4F88C70E5666567226852E8000F20F06D
:1031B000100042E8000300E006E0002BF4D126678F
:1031C0002046FFF770FE6AE7C60209D5560207D50A
:1031D0004FF4801018622046BDE8F041FFF7B2BE00
:1031E00003060AD501F0800302F40002134304D061
:1031F000A16F00297FF44CAF51E7420611D54A0672
:103200000FD52046026852E8001F21F0400142E835
:103210000013002BF6D1C0F88870856700F047F9DD
:103220003DE7020206D54A0004D52046BDE8F0413C
:10323000FFF787BEC001C6D50029C4DA2046BDE825
:10324000F041FFF731BE0000010000102001000432
:10325000E54A000810B5040003D0D4F8880010B186
:1032600007E0012010BD002084F88400204600F013
:1032700027F82420C4F888002068016821F00101A3
:103280000160A06A10B1204601F072FB204601F0F7
:10329000C5FE0128E6D02068416821F490414160D4
:1032A0002068816821F02A0181602068016841F06E
:1032B000010101602046BDE8104001F0BDBB0000E7
:1032C00010B598B00446142111A8FDF714F9442153
:1032D0006846FDF710F91B492068884230D101206B
:1032E0000024CDE900046846FEF7E2F908B1FDF7D5
:1032F000FBF91548016E41F480410166016E01F44D
:1033000080411691C16C41F00101C164C06C11A9EA
:1033100000F0010016904FF4C06011900220CDE93A
:1033200012040720CDE914404FF09040FDF794FFC0
:10333000002211462520FEF723F92520FEF712F979
:1033400018B010BD003801400010024030B4D0F871
:103350008C30202B02D0022030BC7047A9B1A2B122
:103360000023C3660A4C0368A3420BD05B681B02B0
:1033700008D5046854E8003F43F0806344E8003512
:10338000002DF6D130BC01F083BF0120E4E700003E
:10339000008000400D4810B50079612814D00CA1C0
:1033A0001048FDF705F80F48FDF786F882B2322382
:1033B0000C490D4800F024F804490122BDE81040F2
:1033C000091D0948FFF7C2BF08A1E9E70000002076
:1033D0006572726F72207265636569766520610D32
:1033E0000A0000005A000020840200207375636305
:1033F000657373207265636569766520610D0A00E7
:103400002DE9F8430446D0F88800984616460D4644
:10341000202802D00220BDE8F883A5B19EB100208B
:10342000C4F890002120C4F888001834FEF742F850
:10343000A6878146E68754F8100C2027183CB0F583
:10344000805F02D003E00120E5E7206910B12E463D
:10345000002510E000260EE08021204601F0A0FFAC
:10346000C0B9DEB116F8010B21688862B4F85600C5
:10347000401EA4F85600B4F856004B464FF0000228
:10348000CDF800800028E7D14FF04001204601F040
:1034900087FF40B1C4F888700320BCE735F8020B01
:1034A000C0F30800E0E7C4F888700020B3E7704775
:1034B000FEE7000000B585B014216846FDF71BF853
:1034C000C0200090012001900290022003906946E4
:1034D0000248FDF7C1FE05B000BD00000004004831
:1034E00070B50824002500F00FFF13E06806050EF4
:1034F000002000F0F1FE142001F0B3FF142001F0D1
:10350000B0FF012000F0E8FE142001F0AAFF00F057
:10351000EFFE0543641EE4B2E8D2002000F0DCFEBA
:10352000142001F09EFF00F011FF284670BD10B579
:10353000002000F0FFFE142001F093FF142001F0A2
:1035400090FF012000F0C8FE142001F08AFF002047
:1035500000F0C2FEBDE81040142001F082BF70B53B
:103560000446082516E000F0B7FE142001F079FFAC
:1035700004F0800000F0DEFE142001F072FF60060F
:10358000040E142001F06DFF012000F0A5FE1420B0
:1035900001F067FF6D1EEDB24FF00000E3D200F0C6
:1035A0009BFEBDE87040142001F05BBF10B5012008
:1035B00000F0C0FE142001F054FF142001F051FF70
:1035C000012000F089FE142001F04BFF002000F0E4
:1035D00083FEBDE81040142001F043BF10B5012068
:1035E00000F0A8FE142001F03CFF012000F074FE62
:1035F000142001F036FF002000F09CFE142001F0A2
:1036000030FF002000F068FEBDE81040142001F0FB
:1036100028BF10B5002000F05FFE142001F021FF4C
:10362000002000F087FE142001F01BFF012000F0B5
:1036300053FE142001F015FF012000F07BFEBDE8D1
:103640001040142001F00DBF10B5052400F05CFE01
:10365000142001F006FF012000F03EFE142001F0CE
:1036600000FF05E0641EA4B2142001F0FAFE64B16C
:1036700000F03EFE0028F5D100F02EFE142001F0EF
:10368000F0FE00F063FE002010BD00F05FFEFFF7CB
:10369000C0FF012010BD000000B585B014216846B0
:1036A000FCF729FF4FF6FF70009000200321CDE9C1
:1036B0000201019069460248FDF7CEFD05B000BD4C
:1036C0000008004800B585B014216846FCF713FFD8
:1036D0004FF6FF700090012001900320039000201E
:1036E000029069460248FDF7B7FD05B000BD000035
:1036F0000008004870B5002406462146204600F028
:1037000003F900F041F94FF49635304600F010F916
:10371000641CAC42F9D370BD30B587B01421684643
:10372000FCF7E9FE1E48C16C41F00401C164C16CA4
:1037300001F004010591C16C41F00101C164C16C4B
:1037400001F001010591C16C41F00201C164C06C3E
:10375000012500F0020005904FF44870CDE9000506
:1037600000240394694602940E48FDF775FD280273
:1037700003940090CDE901544FF0904469462046EF
:10378000FDF76AFDFFF79EFFA06940F48070A0611D
:1037900004481830016841F40871016007B030BD79
:1037A0000010024000040048203AD2B2034B02EB62
:1037B000420203EB021200F019B80000E8570008BB
:1037C000F0B50E460746002540F23F1407E02146BB
:1037D0003846FFF7E9FF103C6D1CA4B2761C327826
:1037E000002A01D0142DF2D3F0BD00002DE9F047DE
:1037F00091468A460026044600F086F8DFF84080AD
:10380000012700BF00F0C0F85FF0000539F816008E
:1038100007FA05F10842404601D1408800E00088DF
:1038200000F086F86D1C102DF0D3641CE4B25146F4
:10383000204600F069F8761C182EE3D3BDE8F08727
:103840003C00002010B5FFF767FF002000F014F8DF
:10385000084CA080A088A0F50241303906D000F0C5
:10386000D7FB002000F008F8A08010BD00F047FB57
:10387000F7E700003C00002070B51D490A6842F4DB
:1038800000720A600A6842F480720A60184C103CA8
:10389000226842F020022260164A1060086840F058
:1038A0002000086000BF00BF00BF206840F020007B
:1038B0002060206840F480702060FFF7EDFE4FF03C
:1038C0009041886A40F48070886200BF00BF00BFEA
:1038D0000848001F006885B2886940F480708861DC
:1038E000FFF7F0FE206840F400702060284670BDAD
:1038F000280400481408004801B5BDF8000001493B
:10390000488008BD3C00002010B50C460146202030
:1039100000F068F82146BDE81040212000F062B8B0
:1039200001B5BDF800000149088008BD3C00002039
:10393000134A116841F400711160114910390B6884
:1039400043F480730B600B6843F020030B600D4B56
:103950001860106840F02000106000BF00BF00BF7A
:10396000086840F020000860086840F48070086033
:1039700000BF00BF00BF086840F4007008607047D7
:1039800028040048140800481449086840F40070EE
:103990000860086840F480700860104810380268B9
:1039A00042F0200202600E4B22221A600A6842F0A6
:1039B00020020A6000BF00BF00BF016841F0200183
:1039C0000160016841F48071016000BF00BF00BF69
:1039D000016841F40071016070470000280400484C
:1039E00014080048184B10B51A6842F400721A60A7
:1039F0001A6842F480721A60134A103A146844F04C
:103A000020041460114C2060186840F020001860F9
:103A100000BF00BF00BF106840F0200010601068B9
:103A200040F4807010602160186840F02000186039
:103A300000BF00BF00BF106840F020001060106899
:103A400040F48070106010BD28040048140800483D
:103A500000EB8100006E00F0F84070478068C0F312
:103A6000C00070478068C0F3800070478068C0F372
:103A700080007047C06810F4406F01D0002070478C
:103A800001207047042303EAD15310B51844436959
:103A9000C1F3045107248C40A3438A40134343617C
:103AA00010BD00EB8100016E21F000411143016661
:103AB0007047000030B58BB0002408940994202191
:103AC00068460A94FCF717FD1D484FF0A0410425F5
:103AD00001604FF48021C0E90114C4600461C0E9B1
:103AE0000545047744770121016280F82440C462CF
:103AF000046380F83840C46380F84040FDF7B2F9B1
:103B000008B1FCF7F1FD08A90D480894FCF7F4FD95
:103B100008B1FCF7E9FD0B48009006200190072052
:103B200002907F200594CDE9030569460448FCF71F
:103B30004FFE002801D0FCF7D7FD0BB030BD0000D0
:103B4000A00000200008302E30B589B02021684642
:103B5000FCF7D1FC19481849002401608902C0E92A
:103B60000114C46004250461C0E905450477447765
:103B70000121016280F82440C462046380F8384067
:103B8000C46380F84040FDF76DF908B1FCF7ACFD67
:103B90000B48009006200190072002907F2005949A
:103BA000CDE9030569460548FCF712FE002801D05F
:103BB000FCF79AFD09B030BD000100500C01002057
:103BC0000080F03E70B586B014216846FCF793FC87
:103BD0002148C16C41F02001C164C16C01F0200199
:103BE0000591C16C41F00101C164C16C01F001019A
:103BF0000591C16C41F00201C164C16C01F0020188
:103C00000591C16C41F00801C164C06C134E00F015
:103C100008000590002204213046FDF746FC0024F0
:103C20000125CDE9005469464FF090400294FDF71C
:103C300013FB0720CDE90004694609480294FDF70B
:103C40000BFB04200090CDE90154694630460394F3
:103C5000FDF702FB06B070BD00100240000C0048EA
:103C60000004004830B587B014216846FCF743FCD7
:103C7000214800241F490594C0E900147D2181607A
:103C800041F27071C0E903144FF080414461C0E912
:103C900006410462FEF7E8F908B1FCF725FD18209B
:103CA0008DF8000047208DF8010004258DF80250A2
:103CB00001940394012269460F480494FEF79EFA8A
:103CC00008B1FCF711FD05208DF814008DF8155092
:103CD00012208DF8160024208DF81700012205A966
:103CE0000548FEF73BFA002801D0FCF7FDFC07B0C1
:103CF00030BD0000002800407801002010B58EB0D3
:103D000000240794089409940A940B940C941C21A1
:103D100068460D94FCF7EFFB1E484FF080410160B0
:103D20004F21C0E9011440F2F311C0E903148021CE
:103D30008161FEF74EFB08B1FCF7D6FC4FF48050D2
:103D4000079007A91348FEF71DFC08B1FCF7CCFC4F
:103D50001048FEF7B0FF08B1FCF7C6FC0B940BA9A6
:103D60000C480D94FEF7E6FA08B1FCF7BDFC6020A4
:103D700000906420CDE901040422694605480494BA
:103D8000FEF707FF08B1FCF7AFFC0248FEF7DAFECA
:103D90000EB010BDA001002010B58CB00024059419
:103DA000284804940694079408940A94099400946B
:103DB000019402942249039401604F21C0E9011447
:103DC0004FF6FF71C0E9031480218161FEF701FB0A
:103DD00008B1FCF789FC4FF48050049004A91948FD
:103DE000FEF7D0FB08B1FCF77FFC1648FEF710FD8C
:103DF00008B1FCF779FC089408A912480A94FEF768
:103E000099FA08B1FCF770FC0120CDE9004002945A
:103E1000002269460B480394FEF768FC08B1FCF7E2
:103E200063FC022000900190042269460548FEF7D9
:103E30005DFC002801D0FCF757FC0CB010BD000061
:103E400000040040EC0100203EB500240F4800941F
:103E500001940D490294016041F63F71C0E90114DB
:103E600042F20F718461C160FEF7B3FA08B1FCF74A
:103E70003BFC0094694605480294FEF75BFA002873
:103E800001D0FCF731FC3EBD00100040380200209C
:103E9000184810B5164901604FF4165141600021D1
:103EA00081600C22C160C0E904128161C1610162BC
:103EB00041628162FFF7CEF908B1FCF715FC0021E1
:103EC0000C48FFF718F808B1FCF70EFC0021094870
:103ED000FEF7EBFF08B1FCF707FC0648FEF7C4FF4E
:103EE000002803D0BDE81040FCF7FEBB10BD000069
:103EF0000038014084020020FEE7FEE7704730B53D
:103F000001210020FFF76EFD4FF47A70FCF7DEFB15
:103F100000210120FFF766FD41F290711020FFF7AC
:103F200061FD4FF41C516020FFF75CFD0121612011
:103F3000FFF758FD02214620FFF754FD48F210011B
:103F40001320FFF74FFD48F2FE011220FFF74AFD54
:103F50004FF4A0610220FFF745FD41F2300103203C
:103F6000FFF740FD40F2033421463020FFF73AFDD1
:103F700021463120FFF736FD21463220FFF732FD82
:103F8000E51E29463320FFF72DFD03213420FFF7DE
:103F900029FD21463520FFF725FD14213620FFF7A6
:103FA00021FD21463720FFF71DFD21463820FFF770
:103FB00019FD21463920FFF715FD29463A20FFF764
:103FC00011FD03213B20FFF70DFD21463C20FFF7AB
:103FD00009FD4FF4A0513D20FFF704FD4FF400719F
:103FE0009220FFF7FFFC21469320FFF7FBFC40F6F1
:103FF0000D019020FFF7F6FC41F218010320FFF7B6
:10400000F1FCBDE8304040F273110720FFF7EABC35
:1040100010B543F20801E320FFF7E4FC1221E7208A
:10402000FFF7E0FC41F23121EF20FFF7DBFC00213C
:104030000120FFF7D7FC4FF4E0610220FFF7D2FC2C
:1040400041F230010320FFF7CDFC00210420FFF7EF
:10405000C9FC40F207210820FFF7C4FC0021092019
:10406000FFF7C0FC00210A20FFF7BCFC00210C2058
:10407000FFF7B8FC00210D20FFF7B4FC00210F2052
:10408000FFF7B0FC00211020FFF7ACFC0721112046
:10409000FFF7A8FC00211220FFF7A4FC0021132049
:1040A000FFF7A0FCC820FDF7C5F841F29061102091
:1040B000FFF798FC40F227211120FFF793FC3220F4
:1040C000FDF7B8F81D211220FFF78CFC3220FDF718
:1040D000B1F84FF400611320FFF784FC142129206C
:1040E000FFF780FC0B212B20FFF77CFC3220FDF733
:1040F000A1F800212020FFF775FC00212120FFF707
:1041000071FC07213020FFF76DFC40F20771312070
:10411000FFF768FC06213220FFF764FC40F20471CF
:104120003520FFF75FFC41F604713620FFF75AFC9B
:1041300004213720FFF756FC00213820FFF752FCFE
:1041400040F206713920FFF74DFC40F201713C202E
:10415000FFF748FC0F213D20FFF744FC00215020D1
:10416000FFF740FCEF215120FFF73CFC00215220DB
:10417000FFF738FC40F23F115320FFF733FC4FF4B8
:104180001C516020FFF72EFC01216120FFF72AFC63
:1041900000216A20FFF726FC00218020FFF722FC87
:1041A00000218120FFF71EFC00218220FFF71AFC6E
:1041B00000218320FFF716FC00218420FFF712FC6A
:1041C00000218520FFF70EFC10219020FFF70AFC4C
:1041D00000219220FFF706FC03219320FFF702FC49
:1041E0004FF488719520FFF7FDFB00219720FFF722
:1041F000F9FB00219820FFF7F5FB41F2180103209D
:10420000FFF7F0FBBDE8104040F273110720FFF705
:10421000E9BB010901EB810100F00F0000EB410057
:10422000C0B270470022014602E00A39C9B2521CEE
:104230000A29FAD2100741EA106070472DE9F041CF
:10424000044600680025C168490619D4C16841F0D8
:104250008001C160FDF72EF906464FF47A780327F6
:1042600008E000BFFDF726F9801B404502D9032571
:1042700084F825702068C068400601D4032DF1D170
:104280002846BDE8F08170B5044600680025C16885
:1042900021F08001C160206881694FF00306890622
:1042A00007D42046FEF710F898B184F8256003255E
:1042B0000FE0816921F0200181612046FEF704F8BA
:1042C00010B184F8256003252068816941F0200140
:1042D0008161284670BD000008B1044801E0034830
:1042E0001030016841F04001016070471804004837
:1042F00010B580210348FDF7D3F8012800D0002035
:1043000010BD00000004004800B585B014216846C7
:10431000FCF7F1F88020009000200190012002902D
:104320000220039069460248FCF796FF05B000BDE5
:104330000004004808B1044801E003481030016857
:1043400041F08001016070471804004800B585B055
:1043500014216846FCF7CFF88020009011200190CE
:10436000002002900220039069460248FCF774FF87
:1043700005B000BD000400487047FDF7A1B810B5B6
:1043800094B038216846FCF7B6F814210EA8FCF763
:10439000B2F84FF40070FDF725F903244FF4803094
:1043A000CDE90040001203904020049002200790C5
:1043B00014210890CDE909010B900C900D906846EE
:1043C000FDF704FC08B172B6FEE70F20CDE90E043C
:1043D000002010901190129002210EA8FDF7ACFA67
:1043E000002801D072B6FEE714B010BD0248016883
:1043F00041F470010160704788ED00E00148FEF76C
:10440000CFBA0000EC0100200148FEF7C9BA000055
:10441000380200202DE9F0430268264B264D274E36
:10442000274C4FF08049984207D0484505D0A84214
:1044300003D0B04201D0A04203D122F070074A68F5
:104440003A43204FDFF880C0DFF8808098420DD0DB
:1044500048450BD0A84209D0B04207D0A04205D0B1
:10446000B84203D0604501D0404503D122F44075E5
:10447000CA682A434D6922F080022A4302608A6892
:10448000C2620A688262984207D0A04205D0B84250
:1044900003D0604501D0404501D109690163012184
:1044A00041610169C90703D0016921F0010101617E
:1044B000BDE8F083002C01400004004000080040EB
:1044C00000340140004001400044014000480140E8
:1044D00010B501F01F030121046A99408C43046266
:1044E000016A9A401143016210BD10B5846842EA26
:1044F000032224F47F440A432243826010BD00005B
:104500008268034B1A400A4342F0070181607047FA
:104510008FFFCFFF2DE9F043056A026A22F0010206
:104520000262436882691C4C25F0020522400C6837
:1045300022F0030214438A68194E2A43174D194F7B
:10454000DFF864C0DFF86490A84207D0B04205D01D
:10455000B84203D0604501D0484506D122F0080892
:10456000CA6842EA080222F00402A84207D0B04218
:1045700005D0B84203D0604501D0484505D14D690A
:1045800023F440731D438B692B4343608461496866
:1045900041630262BDE8F0838FFFFEFF002C014003
:1045A0000034014000400140004401400048014007
:1045B000F0B5056A026A22F010020262426883695D
:1045C000194C1B4E23400C6823F4407343EA042427
:1045D00025F020038D6843EA0513144DA84201D04D
:1045E000B04206D1CF6823F0800343EA071323F0DB
:1045F0004003A8420AD0B04208D00E4DA84205D0D0
:104600000D4DA84202D00D4DA84207D14D6922F4AC
:10461000406242EA85028D6942EA85024260846115
:10462000496881630362F0BDFF8FFFFE002C0140EB
:104630000034014000400140004401400048014076
:10464000F0B5056A026A22F4807202624368C269A8
:10465000194C1B4E22400C6822F00302144325F42F
:1046600000728D6842EA0522144DA84201D0B04282
:1046700006D1CF6822F4006242EA072222F4806267
:10468000A8420AD0B04208D00E4DA84205D00E4D27
:10469000A84202D00D4DA84207D14D6923F44053E2
:1046A00043EA05138D6943EA05134360C461496811
:1046B000C1630262F0BD00008FFFFEFF002C0140CD
:1046C00000340140004001400044014000480140E6
:1046D000F0B5056A026A22F4805202624268C36938
:1046E000194C1B4E23400C6823F4407343EA042406
:1046F00025F400538D6843EA0533144DA84201D0D8
:10470000B04206D1CF6823F4004343EA073323F4D1
:104710008043A8420AD0B04208D00E4DA84205D02E
:104720000D4DA84202D00D4DA84207D14D6922F48B
:10473000404242EA85128D6942EA85124260C461B4
:10474000496801640362F0BDFF8FFFFE002C014049
:104750000034014000400140004401400048014055
:1047600030B5056A026A22F4803202624268036D43
:10477000114C23400C681C4325F400330D8943EA97
:1047800005430E4DA8420BD00D4DA84208D00D4D4B
:10479000A84205D00C4DA84202D00C4DA84204D12D
:1047A0004D6922F4803242EA05224260046549687C
:1047B0008164036230BD00008FFFFEFF002C0140CA
:1047C00000340140004001400044014000480140E5
:1047D00030B5046A026A22F4801202624268036DF4
:1047E000114D24F400142B400D6843EA05230D8974
:1047F00044EA05540D4DA8420BD00D4DA84208D0F7
:104800000C4DA84205D00C4DA84202D00B4DA84239
:1048100004D14D6922F4802242EA85224260036578
:104820004968C164046230BDFF8FFFFE002C014067
:104830000034014000400140004401400048014074
:1048400010B5036A046A24F001040462846924F048
:10485000F00444EA021423F00A020A43846102626B
:1048600010BD000070B5056A046A24F001040462FA
:104870008469124EB0420ED0B0F1804F0BD0104E72
:10488000B04208D00F4EB04205D00F4EB04202D019
:104890000E4EB04203D124F00304144301E044F06F
:1048A00001041A0724F0F00444EA126225F00A0316
:1048B00001F00A0119438261016270BD002C0140C0
:1048C0000004004000080040003401400040014066
:1048D00010B5036A046A24F010040462846923F0AA
:1048E000A00324F4704444EA023243EA01118261D5
:1048F000016210BD30B5046A056A25F01005056235
:10490000856925F4407545EA022222F470454FF688
:10491000FF7202EA033224F0A0032A43A02404EA2F
:10492000011119438261016230BD000030B5416E52
:10493000B9B1026891689268C1F342610B4B520FA2
:104940009C5CE50003F10804A25CB5FBF2F2A0F860
:104950006A205A5C615CD200B2FBF1F1A0F86810E9
:1049600030BD0121A0F86A10F8E70000C057000828
:1049700090F82810090706D501684A68836B22F46D
:1049800000421A434A6090F82810C90706D001680F
:104990004A68C36A22F400321A434A6090F8281029
:1049A000890706D501684A68036B22F480321A43EE
:1049B0004A6090F82810490706D501684A68436B99
:1049C00022F480221A434A6090F82810C90606D5BE
:1049D00001688A68C36B22F480521A438A6090F897
:1049E0002810890606D501688A68036C22F40052F3
:1049F0001A438A6090F82810490611D501684A6860
:104A0000436C22F480121A434A60416CB1F5801F56
:104A100006D101684A68836C22F4C0021A434A60D6
:104A200090F82810090606D501684A68C06C22F47F
:104A3000002202434A6070472DE9F84300260446ED
:104A4000C0F89060FCF736FD8046206800684FF0A3
:104A5000200500076FF07E4713D543460022290446
:104A60002046009700F09CFC58B1216851E8000FE7
:104A700020F0800041E80002002AF6D1C4F88850F6
:104A800021E020680068400722D5434600224FF409
:104A900080012046009700F083FCC8B1216851E8EE
:104AA000000F20F4907041E80002002AF6D120683F
:104AB000083050E8001F21F0010140E80012002AF0
:104AC000F5D1C4F88C5084F884600320BDE8F883E5
:104AD000C4F88850C4F88C5044F86C6F6660267631
:104AE0000020F3E710B5806A0021A0F85E10A0F85E
:104AF0005610FEF728FA10BD10B5026852E8001FE4
:104B000021F4907142E80013002BF6D10E4B02689D
:104B1000083252E8001F194042E80014002CF6D178
:104B2000C16E012908D1016851E8002F22F010025E
:104B300041E80023002BF6D12021C0F88C10002181
:104B4000C166416710BD0000FEFFFFEF10B5B0F871
:104B50006020D0F88C300168222B04D0886940F0A6
:104B60000800886110BD496A836D11401980816D0C
:104B7000891C8165B0F85E10491EA0F85E10B0F87F
:104B80005E100029EED1026852E8001F21F49071F6
:104B900042E80013002BF6D10168083151E8002FDC
:104BA00022F0010241E80023002BF5D12021C0F8BA
:104BB0008C10002141670167154B02689A420BD0A7
:104BC0005268120208D5036853E8002F22F0806271
:104BD00043E80024002CF6D1C26E012A02D0FEF771
:104BE000D9FB10BDC166026852E8001F21F0100118
:104BF00042E80013002BF6D10168CA69D243D206FD
:104C000001D410220A62B0F85C10FEF74CF910BD16
:104C1000008000402DE9F0470446B0F8606000686D
:104C2000C569D0F800A0D0F80880D4F88C102229EB
:104C300005D0816941F008018161BDE8F087B4F8D1
:104C400068704FF0000975E02068406AA16D30403F
:104C50000880A06D801CA065B4F85E00401EA4F81A
:104C60005E002068C569690730D0E9070AD05FEAAD
:104C7000CA5107D501210162D4F8900040F001002B
:104C8000C4F89000A8070BD55FEAC87008D0216867
:104C900002200862D4F8900040F00400C4F89000AC
:104CA00068070BD55FEAC87008D021680420086245
:104CB000D4F8900040F00200C4F89000D4F89000BE
:104CC00020B12046FEF73FF9C4F89090B4F85E009A
:104CD00080BB216851E8000F20F4807041E8000299
:104CE000002AF6D1304A2068083050E8001F1140F1
:104CF00040E80013002BF6D12020C4F88C00C4F843
:104D000074904946C4F87090284A206890420BD0AD
:104D10004068000208D5226852E8000F20F0806346
:104D200042E800300028F6D1E06E012825D0204668
:104D3000FEF730FB0FB1A80686D4B4F85E00002859
:104D40003FF47BAFB4F8681081427FF676AF2068FD
:104D5000083050E8001F21F0805140E80012002A7E
:104D6000F5D113486067216851E8000F40F020003A
:104D700041E80002002AF6D15FE7E166216851E8C8
:104D8000000F20F0100041E80002002AF6D1206850
:104D9000C169C943C90601D410210162B4F85C108D
:104DA0002046FEF780F8C5E7FEFFFFEF00800040D9
:104DB0004D4B000810B5B0F86020D0F88C30016879
:104DC000222B04D0886940F00800886110BD496A30
:104DD0001140826D1170816D491C8165B0F85E10C3
:104DE000491EA0F85E10B0F85E100029EED10168EF
:104DF00051E8002F22F4907241E80023002BF6D1F5
:104E00000168083151E8002F22F0010241E8002337
:104E1000002BF5D12021C0F88C10002141670167DB
:104E2000154B02689A420BD05268120208D50368EB
:104E300053E8002F22F0806243E80024002CF6D1D2
:104E4000C26E012A02D0FEF7A5FA10BDC166026843
:104E500052E8001F21F0100142E80013002BF6D1A8
:104E60000168CA69D243D20601D410220A62B0F89E
:104E70005C10FEF718F810BD008000402DE9F047E7
:104E80000446B0F860600068C569D0F800A0D0F8AA
:104E90000880D4F88C10222905D0816941F00801DE
:104EA0008161BDE8F087B4F868704FF0000975E0E3
:104EB0002068406AA16D30400870A06D401CA0655C
:104EC000B4F85E00401EA4F85E002068C56969075A
:104ED00030D0E9070AD05FEACA5107D50121016243
:104EE000D4F8900040F00100C4F89000A8070BD55A
:104EF0005FEAC87008D0216802200862D4F89000E8
:104F000040F00400C4F8900068070BD55FEAC87051
:104F100008D0216804200862D4F8900040F0020014
:104F2000C4F89000D4F8900020B12046FEF70BF8AA
:104F3000C4F89090B4F85E0080BB216851E8000F7F
:104F400020F4807041E80002002AF6D1304A20683F
:104F5000083050E8001F114040E80013002BF6D144
:104F60002020C4F88C00C4F874904A46C4F87090AD
:104F70002849206888420BD04068000208D5216883
:104F800051E8000F20F0806041E80003002BF6D1CB
:104F9000E06E012825D02046FEF7FCF90FB1A806E7
:104FA00086D4B4F85E0000283FF47BAFB4F86810F4
:104FB00081427FF676AF2068083050E8001F21F06C
:104FC000805140E80012002AF5D11348606720683C
:104FD00050E8001F41F0200140E80012002AF6D1FD
:104FE0005FE7E266216851E8000F20F0100041E819
:104FF0000002002AF6D12068C169C943C90601D45C
:1050000010210162B4F85C102046FDF74CFFC5E7A3
:10501000FEFFFFEF00800040B54D00082DE9F04194
:105020000446016880682269E369104362690025CB
:105030001A431043DFF82CC20A688B4B1A40024314
:105040000A6020684168E26821F4405111434160E0
:105050002168A069614501D0226A10438A68834BA8
:105060001A4002438A602068C16A626A21F00F0117
:105070001143C1627E4923687E488B420DD1D0F82E
:10508000880010F0030006D0012855D0022842D035
:1050900003283FD152E001203DE077498B420BD1FC
:1050A000D0F8880010F00C0035D0042833D0082840
:1050B00040D00C282ED141E070498B420BD1D0F862
:1050C000880010F0300026D0102835D0202831D0AC
:1050D00030281FD132E06A498B420BD1D0F88800CA
:1050E00010F0C00017D0402826D0802822D0C02839
:1050F00010D123E063450DD1D0F8880010F4406052
:1051000009D0B0F5806F17D0B0F5006F12D0B0F5B0
:10511000406F13D010205B495B4F00264FF40042D4
:1051200063453BD160B1022813D004280BD0082876
:1051300072D10DE00220EEE70420ECE70820EAE758
:10514000FCF7E8FC01E0FCF709FD010001D17CE07F
:105150001146606A37F810206768B1FBF2F007EB80
:105160004703834270D8B0EB073F6DD80023084651
:105170001946FBF7A5F8090241EA10610202780816
:10518000101871413A460023FBF79AF83F4AA0F500
:105190004071914258D82168C86056E0E3694FF6E3
:1051A000EF7893422CD109284ED2DFE800F00508B1
:1051B000114D0D4D4D4D1000FCF7ACFC01E0FCF71E
:1051C000BBFC010004D140E0FCF7C8FCF9E7114644
:1051D000606A37F81000B1FBF0F04100606801EB45
:1051E0005001B1FBF0F0A0F1100141452CD84FF671
:1051F000F0710140C0F3420001432068C16024E027
:10520000092821D2DFE800F0050912200E20202015
:105210001100FCF77FFC02E016E0FCF78DFC0100BA
:1052200004D112E0FCF79AFCF9E71146606A37F8FE
:105230001000B1FBF0F1606801EB5001B1FBF0F040
:10524000A0F1100141450AD901250120A4F86A0006
:1052500024F8680F2846E6602661BDE8F08180B238
:1052600099E7000000800040F369FFCFFFF4FF11D1
:105270000038014000100240004400400048004057
:10528000004C00400024F400A8570008FFFC0F0069
:1052900070B58165A0F85C20A0F85E20002343670C
:1052A00081684FF48056FF24B14204D10169F9B9F5
:1052B00040F2FF1122E07F25C1B1B1F1805F1AD029
:1052C000A0F86030C0F890302221C0F88C1001683E
:1052D000083151E8003F43F0010341E80034002C5D
:1052E000F5D1416EB1F1005F0ED031E0016941B9F5
:1052F000A0F86040E6E7016919B13F21A0F860100D
:10530000E0E7A0F86050DDE7B0F8681091421FD8E0
:105310008168B14201D10169B9B11D494167016993
:1053200041B1026852E8001F41F4807142E8001365
:10533000002BF6D10168083151E8002F42F080526D
:1053400041E80023002BF5D120E012494167F1E745
:105350008168B14201D1016969B10F4941670169B1
:1053600059B1026852E8001F41F4907142E80013FD
:10537000002BF6D10AE009494167026852E8001F94
:1053800041F0200142E80013002BF6D1002070BD4F
:105390007D4E0008154C0008B54D00084D4B000827
:1053A0002DE9F047994617460D4604464FF0000890
:1053B000089E33E0701C31D0FCF77CF8A0EB0900AC
:1053C000B04218D8BEB120680168490726D5802DA3
:1053D00024D0402D22D0C169C94309070DD4082526
:1053E00005622046FFF788FBC4F8905084F884805B
:1053F0000120BDE8F0870320FBE7C069C04300053A
:105400000CD421684FF4006008622046FFF774FB5B
:105410002020C4F8900084F88480ECE72068C069FC
:1054200035EA000004D00020B842C3D00020E0E7F5
:105430000120F9E70148FDF787BD00008402002044
:10544000FEE70907090E002804DB00F1E02080F8E0
:105450000014704700F00F0000F1E02080F8141DE8
:105460007047002100E0491C8142FCD3704770B5B1
:1054700015460E460446FEF7B1F8A020FEF76FF879
:10548000FEF7E2F83046FEF76AF8FEF7DDF8FEF7C1
:10549000A5F8A120FEF763F8FEF7D6F809E0FEF7BD
:1054A0001FF804F8010B15B1FEF741F801E0FEF713
:1054B0007DF86D1EEDB2F2D2BDE87040FEF7A9B8DE
:1054C00070B515460E460446FEF788F8A020FEF794
:1054D00046F8FEF7B9F8304602E000BF14F8010BB9
:1054E000FEF73DF8FEF7B0F86D1EEDB2F6D2FEF70E
:1054F00090F8BDE870404FF4FA70FFF7B2BF0000BB
:10550000114810B50168114C6269891A322918D303
:105510000068606100F01EF82070E27820EA020165
:105520004240A17082436270E0700948192201294B
:1055300008D0022905D1F9210368D962C160006849
:10554000826310BD7C21F7E73400002000000020BA
:10555000A001002070B50E4D002401212846FBF764
:105560009FFF00B9012402212846FBF799FF00B9EB
:10557000022404212846FBF793FF00B903240121EC
:105580004FF09040FBF78CFF00B90424204670BD1B
:105590000004004810B510480168104C2269891AAF
:1055A000642917D3006820610DA11248FAF700FFA3
:1055B00010494820FEF704F90F49E06991FBF0F229
:1055C0000EA10C48FAF7F4FEBDE81040094960202E
:1055D000FEF7F6B810BD00003400002000000020E7
:1055E0002020202020202020444154412020202021
:1055F000202000004400002040420F0020202020F6
:1056000020505233393A2564487A20202000000087
:1056100070B5124D044601224FF6FF712846FBF784
:1056200044FF0F4E012204213046FBF73EFF0022CB
:1056300004213046FBF739FF210200222846FBF700
:1056400034FF012204213046FBF72FFF3046BDE82E
:10565000704000220421FBF728BF0000000800482A
:10566000000C0048FBF734FFFEF789FEFEF7AAFAAC
:10567000FEF70EFCFEF7F6FAFEF71CFAFEF764FAE8
:10568000FEF7E2FBFEF73AFBFEF786FB0020FFF792
:10569000BFFFFEF7D7F80020FEF72CF80020FEF73A
:1056A0002BF94FF6FF70FEF73BF9012223492448FE
:1056B000FDF74CFEFDF7FEFE204803220021801C72
:1056C000FFF7FEFE0A20FBF7B5FD1C480322002170
:1056D000401DFFF7CCFE0D2000F04FF800F03CF825
:1056E0001649091F48711748FCF710FF1648FCF7C8
:1056F0000DFF04211548FDF711FB00211248FDF7AD
:10570000B9F804211048FDF7B5F81048F9210268EE
:10571000D162C16000681921C0F83810FFF73AFF64
:10572000FFF7EEFE00220A490A48FCF773FC034922
:10573000002214310748FCF74BFCEFE7040000207F
:105740008402002038020020EC010020A00100208B
:105750008C0000207801002010B5FDF73FFF5F208E
:10576000FDF7FDFEFDF770FFFDF7BAFE0446FDF7FD
:105770006BFFFDF74EFF204610BD10B50446FDF748
:105780002DFF5E20FDF7EBFEFDF75EFF2046FDF7E7
:10579000E6FEFDF759FFBDE81040FDF73ABF4FF0B8
:1057A0004070E1EE100A704701000200040006009C
:1057B00008000A000C0010002000400080000001DA
:1057C00001010103070100000804020408010101AE
:1057D00000000000000000000102030406070809A1
:1057E00000000000010203040000000000000000AF
:1057F00000000000000000000000000000000000A9
:105800000000000000000000000000000000000098
:105810000000000000000000000080018001800105
:105820008001800180018001800180018001800170
:105830008001800100000000800180010000000064
:10584000000000000000000000000000CC00CC00C0
:10585000CC00CC00CC00CC00000000000000000018
:105860000000000000000000000000000000000038
:105870000000000000000000000000000000000028
:1058800000000000600C600C600C30063006FE1F4B
:10589000FE1F300638071803FE1FFE1F18031803EB
:1058A0008C018C018C01000000008000E003F80FE7
:1058B0009C0E8C1C8C188C009800F801E007800E60
:1058C000801C8C188C189C18B80CF00FE00380001A
:1058D00080000000000000000000000000000E1822
:1058E0001B0C110C11061106110311039B018E01F3
:1058F000C038C06C60446044304430441844186C74
:105900000C380000000000000000E001F003380740
:10591000180618063003F001F000F8009C310E3331
:10592000061E061C061C063FFC73F021000000004A
:105930000000000000000000000000000C000C004F
:105940000C000C000C000C00000000000000000027
:105950000000000000000000000000000000000047
:1059600000000000000000000000000200038001B1
:10597000C000C00060006000300030003000300027
:10598000300030003000300060006000C000C00017
:105990008001000300020000000020006000C00041
:1059A00080018001000300030006000600060006D7
:1059B00000060006000600060003000380018001C7
:1059C000C000600020000000000000000000000097
:1059D00000000000C000C000D806F807E001300356
:1059E0003807000000000000000000000000000078
:1059F00000000000000000000000000000000000A7
:105A00000000000080018001800180018001FC3FD6
:105A1000FC3F8001800180018001800100000000C6
:105A20000000000000000000000000000000000076
:105A30000000000000000000000000000000000066
:105A40000000000000000000000080018001000153
:105A500000018000000000000000000000000000C5
:105A60000000000000000000000000000000000036
:105A7000E007E00700000000000000000000000058
:105A80000000000000000000000000000000000016
:105A90000000000000000000000000000000000006
:105AA00000000000000000000000C000C000000076
:105AB00000000000000000000000000C000C0006C8
:105AC000000600060003000300038003800180013C
:105AD0008001C000C000C000600060000000000045
